{
  "_format": "hh3-artifact-1",
  "contractName": "RifasPlatform",
  "sourceName": "contracts/RifasPlatform.sol",
  "abi": [
    {
      "inputs": [
        {
          "internalType": "address",
          "name": "_usdtToken",
          "type": "address"
        },
        {
          "internalType": "address",
          "name": "_vrfCoordinator",
          "type": "address"
        },
        {
          "internalType": "uint64",
          "name": "_subscriptionId",
          "type": "uint64"
        },
        {
          "internalType": "bytes32",
          "name": "_keyHash",
          "type": "bytes32"
        }
      ],
      "stateMutability": "nonpayable",
      "type": "constructor"
    },
    {
      "inputs": [],
      "name": "EnforcedPause",
      "type": "error"
    },
    {
      "inputs": [],
      "name": "ExpectedPause",
      "type": "error"
    },
    {
      "inputs": [
        {
          "internalType": "address",
          "name": "have",
          "type": "address"
        },
        {
          "internalType": "address",
          "name": "want",
          "type": "address"
        }
      ],
      "name": "OnlyCoordinatorCanFulfill",
      "type": "error"
    },
    {
      "inputs": [
        {
          "internalType": "address",
          "name": "owner",
          "type": "address"
        }
      ],
      "name": "OwnableInvalidOwner",
      "type": "error"
    },
    {
      "inputs": [
        {
          "internalType": "address",
          "name": "account",
          "type": "address"
        }
      ],
      "name": "OwnableUnauthorizedAccount",
      "type": "error"
    },
    {
      "inputs": [],
      "name": "ReentrancyGuardReentrantCall",
      "type": "error"
    },
    {
      "inputs": [
        {
          "internalType": "address",
          "name": "token",
          "type": "address"
        }
      ],
      "name": "SafeERC20FailedOperation",
      "type": "error"
    },
    {
      "anonymous": false,
      "inputs": [
        {
          "indexed": true,
          "internalType": "address",
          "name": "previousOwner",
          "type": "address"
        },
        {
          "indexed": true,
          "internalType": "address",
          "name": "newOwner",
          "type": "address"
        }
      ],
      "name": "OwnershipTransferred",
      "type": "event"
    },
    {
      "anonymous": false,
      "inputs": [
        {
          "indexed": false,
          "internalType": "address",
          "name": "account",
          "type": "address"
        }
      ],
      "name": "Paused",
      "type": "event"
    },
    {
      "anonymous": false,
      "inputs": [
        {
          "indexed": true,
          "internalType": "address",
          "name": "owner",
          "type": "address"
        },
        {
          "indexed": false,
          "internalType": "uint256",
          "name": "amount",
          "type": "uint256"
        }
      ],
      "name": "PlatformFeesWithdrawn",
      "type": "event"
    },
    {
      "anonymous": false,
      "inputs": [
        {
          "indexed": true,
          "internalType": "uint256",
          "name": "raffleId",
          "type": "uint256"
        }
      ],
      "name": "RaffleCancelled",
      "type": "event"
    },
    {
      "anonymous": false,
      "inputs": [
        {
          "indexed": true,
          "internalType": "uint256",
          "name": "raffleId",
          "type": "uint256"
        },
        {
          "indexed": true,
          "internalType": "uint256",
          "name": "templateId",
          "type": "uint256"
        },
        {
          "indexed": true,
          "internalType": "address",
          "name": "winner",
          "type": "address"
        },
        {
          "indexed": false,
          "internalType": "uint256",
          "name": "prizeAmount",
          "type": "uint256"
        },
        {
          "indexed": false,
          "internalType": "uint256",
          "name": "platformFee",
          "type": "uint256"
        },
        {
          "indexed": false,
          "internalType": "uint256",
          "name": "randomNumber",
          "type": "uint256"
        }
      ],
      "name": "RaffleCompleted",
      "type": "event"
    },
    {
      "anonymous": false,
      "inputs": [
        {
          "indexed": true,
          "internalType": "uint256",
          "name": "raffleId",
          "type": "uint256"
        },
        {
          "indexed": true,
          "internalType": "uint256",
          "name": "templateId",
          "type": "uint256"
        },
        {
          "indexed": false,
          "internalType": "uint256",
          "name": "ticketPrice",
          "type": "uint256"
        },
        {
          "indexed": false,
          "internalType": "uint256",
          "name": "maxTickets",
          "type": "uint256"
        },
        {
          "indexed": false,
          "internalType": "uint256",
          "name": "minTickets",
          "type": "uint256"
        },
        {
          "indexed": false,
          "internalType": "uint256",
          "name": "expiresAt",
          "type": "uint256"
        }
      ],
      "name": "RaffleCreated",
      "type": "event"
    },
    {
      "anonymous": false,
      "inputs": [
        {
          "indexed": true,
          "internalType": "uint256",
          "name": "raffleId",
          "type": "uint256"
        },
        {
          "indexed": true,
          "internalType": "uint256",
          "name": "vrfRequestId",
          "type": "uint256"
        }
      ],
      "name": "RandomnessRequested",
      "type": "event"
    },
    {
      "anonymous": false,
      "inputs": [
        {
          "indexed": true,
          "internalType": "uint256",
          "name": "raffleId",
          "type": "uint256"
        },
        {
          "indexed": false,
          "internalType": "uint256",
          "name": "participantsRefunded",
          "type": "uint256"
        },
        {
          "indexed": false,
          "internalType": "uint256",
          "name": "totalRefunded",
          "type": "uint256"
        }
      ],
      "name": "RefundBatchCompleted",
      "type": "event"
    },
    {
      "anonymous": false,
      "inputs": [
        {
          "indexed": true,
          "internalType": "uint256",
          "name": "raffleId",
          "type": "uint256"
        },
        {
          "indexed": true,
          "internalType": "address",
          "name": "user",
          "type": "address"
        },
        {
          "indexed": false,
          "internalType": "uint256",
          "name": "amount",
          "type": "uint256"
        }
      ],
      "name": "RefundIssued",
      "type": "event"
    },
    {
      "anonymous": false,
      "inputs": [
        {
          "indexed": true,
          "internalType": "uint256",
          "name": "raffleId",
          "type": "uint256"
        },
        {
          "indexed": true,
          "internalType": "address",
          "name": "participant",
          "type": "address"
        },
        {
          "indexed": false,
          "internalType": "uint256",
          "name": "ticketNumber",
          "type": "uint256"
        }
      ],
      "name": "TicketBought",
      "type": "event"
    },
    {
      "anonymous": false,
      "inputs": [
        {
          "indexed": false,
          "internalType": "address",
          "name": "account",
          "type": "address"
        }
      ],
      "name": "Unpaused",
      "type": "event"
    },
    {
      "inputs": [],
      "name": "BASIS_POINTS",
      "outputs": [
        {
          "internalType": "uint256",
          "name": "",
          "type": "uint256"
        }
      ],
      "stateMutability": "view",
      "type": "function"
    },
    {
      "inputs": [],
      "name": "FIXED_FEE",
      "outputs": [
        {
          "internalType": "uint256",
          "name": "",
          "type": "uint256"
        }
      ],
      "stateMutability": "view",
      "type": "function"
    },
    {
      "inputs": [],
      "name": "PERCENTAGE_FEE",
      "outputs": [
        {
          "internalType": "uint256",
          "name": "",
          "type": "uint256"
        }
      ],
      "stateMutability": "view",
      "type": "function"
    },
    {
      "inputs": [
        {
          "internalType": "uint256",
          "name": "raffleId",
          "type": "uint256"
        }
      ],
      "name": "buyTicket",
      "outputs": [],
      "stateMutability": "nonpayable",
      "type": "function"
    },
    {
      "inputs": [
        {
          "internalType": "uint256",
          "name": "ticketPrice",
          "type": "uint256"
        },
        {
          "internalType": "uint256",
          "name": "ticketCount",
          "type": "uint256"
        }
      ],
      "name": "calculatePlatformFee",
      "outputs": [
        {
          "internalType": "uint256",
          "name": "platformFee",
          "type": "uint256"
        }
      ],
      "stateMutability": "pure",
      "type": "function"
    },
    {
      "inputs": [
        {
          "internalType": "uint256",
          "name": "raffleId",
          "type": "uint256"
        }
      ],
      "name": "cancelMyTicket",
      "outputs": [],
      "stateMutability": "nonpayable",
      "type": "function"
    },
    {
      "inputs": [
        {
          "internalType": "uint256",
          "name": "raffleId",
          "type": "uint256"
        }
      ],
      "name": "cancelRaffle",
      "outputs": [],
      "stateMutability": "nonpayable",
      "type": "function"
    },
    {
      "inputs": [
        {
          "internalType": "uint256",
          "name": "templateId",
          "type": "uint256"
        },
        {
          "internalType": "uint256",
          "name": "ticketPrice",
          "type": "uint256"
        },
        {
          "internalType": "uint256",
          "name": "maxTickets",
          "type": "uint256"
        },
        {
          "internalType": "uint256",
          "name": "minTickets",
          "type": "uint256"
        },
        {
          "internalType": "uint256",
          "name": "durationSeconds",
          "type": "uint256"
        }
      ],
      "name": "createRaffle",
      "outputs": [
        {
          "internalType": "uint256",
          "name": "raffleId",
          "type": "uint256"
        }
      ],
      "stateMutability": "nonpayable",
      "type": "function"
    },
    {
      "inputs": [
        {
          "internalType": "address",
          "name": "token",
          "type": "address"
        },
        {
          "internalType": "uint256",
          "name": "amount",
          "type": "uint256"
        }
      ],
      "name": "emergencyTokenRecovery",
      "outputs": [],
      "stateMutability": "nonpayable",
      "type": "function"
    },
    {
      "inputs": [
        {
          "internalType": "uint256",
          "name": "raffleId",
          "type": "uint256"
        }
      ],
      "name": "estimateCancelGas",
      "outputs": [
        {
          "internalType": "uint256",
          "name": "currentTickets",
          "type": "uint256"
        }
      ],
      "stateMutability": "view",
      "type": "function"
    },
    {
      "inputs": [
        {
          "internalType": "uint256",
          "name": "raffleId",
          "type": "uint256"
        }
      ],
      "name": "executeRaffle",
      "outputs": [],
      "stateMutability": "nonpayable",
      "type": "function"
    },
    {
      "inputs": [
        {
          "internalType": "uint256",
          "name": "raffleId",
          "type": "uint256"
        }
      ],
      "name": "executeRefundBatch",
      "outputs": [],
      "stateMutability": "nonpayable",
      "type": "function"
    },
    {
      "inputs": [
        {
          "internalType": "uint256",
          "name": "raffleId",
          "type": "uint256"
        }
      ],
      "name": "getRaffle",
      "outputs": [
        {
          "internalType": "uint256",
          "name": "id",
          "type": "uint256"
        },
        {
          "internalType": "uint256",
          "name": "ticketPrice",
          "type": "uint256"
        },
        {
          "internalType": "uint256",
          "name": "maxTickets",
          "type": "uint256"
        },
        {
          "internalType": "uint256",
          "name": "minTickets",
          "type": "uint256"
        },
        {
          "internalType": "uint256",
          "name": "currentTickets",
          "type": "uint256"
        },
        {
          "internalType": "uint256",
          "name": "expiresAt",
          "type": "uint256"
        },
        {
          "internalType": "enum RifasPlatform.RaffleStatus",
          "name": "status",
          "type": "uint8"
        },
        {
          "internalType": "address",
          "name": "winner",
          "type": "address"
        },
        {
          "internalType": "uint256",
          "name": "prizeAmount",
          "type": "uint256"
        },
        {
          "internalType": "uint256",
          "name": "platformFee",
          "type": "uint256"
        }
      ],
      "stateMutability": "view",
      "type": "function"
    },
    {
      "inputs": [
        {
          "internalType": "uint256",
          "name": "raffleId",
          "type": "uint256"
        }
      ],
      "name": "getRaffleParticipants",
      "outputs": [
        {
          "internalType": "address[]",
          "name": "participants",
          "type": "address[]"
        }
      ],
      "stateMutability": "view",
      "type": "function"
    },
    {
      "inputs": [
        {
          "internalType": "uint256",
          "name": "raffleId",
          "type": "uint256"
        }
      ],
      "name": "getRaffleVRFRequestId",
      "outputs": [
        {
          "internalType": "uint256",
          "name": "vrfRequestId",
          "type": "uint256"
        }
      ],
      "stateMutability": "view",
      "type": "function"
    },
    {
      "inputs": [
        {
          "internalType": "address",
          "name": "user",
          "type": "address"
        }
      ],
      "name": "getUserRaffles",
      "outputs": [
        {
          "internalType": "uint256[]",
          "name": "raffleIds",
          "type": "uint256[]"
        }
      ],
      "stateMutability": "view",
      "type": "function"
    },
    {
      "inputs": [],
      "name": "globalReservedUserFunds",
      "outputs": [
        {
          "internalType": "uint256",
          "name": "",
          "type": "uint256"
        }
      ],
      "stateMutability": "view",
      "type": "function"
    },
    {
      "inputs": [
        {
          "internalType": "uint256",
          "name": "raffleId",
          "type": "uint256"
        },
        {
          "internalType": "address",
          "name": "user",
          "type": "address"
        }
      ],
      "name": "hasTicketInRaffle",
      "outputs": [
        {
          "internalType": "bool",
          "name": "hasTicket",
          "type": "bool"
        }
      ],
      "stateMutability": "view",
      "type": "function"
    },
    {
      "inputs": [],
      "name": "nextRaffleId",
      "outputs": [
        {
          "internalType": "uint256",
          "name": "",
          "type": "uint256"
        }
      ],
      "stateMutability": "view",
      "type": "function"
    },
    {
      "inputs": [],
      "name": "owner",
      "outputs": [
        {
          "internalType": "address",
          "name": "",
          "type": "address"
        }
      ],
      "stateMutability": "view",
      "type": "function"
    },
    {
      "inputs": [],
      "name": "pause",
      "outputs": [],
      "stateMutability": "nonpayable",
      "type": "function"
    },
    {
      "inputs": [],
      "name": "paused",
      "outputs": [
        {
          "internalType": "bool",
          "name": "",
          "type": "bool"
        }
      ],
      "stateMutability": "view",
      "type": "function"
    },
    {
      "inputs": [
        {
          "internalType": "uint256",
          "name": "",
          "type": "uint256"
        }
      ],
      "name": "raffles",
      "outputs": [
        {
          "internalType": "uint256",
          "name": "id",
          "type": "uint256"
        },
        {
          "internalType": "uint256",
          "name": "ticketPrice",
          "type": "uint256"
        },
        {
          "internalType": "uint256",
          "name": "maxTickets",
          "type": "uint256"
        },
        {
          "internalType": "uint256",
          "name": "minTickets",
          "type": "uint256"
        },
        {
          "internalType": "uint256",
          "name": "currentTickets",
          "type": "uint256"
        },
        {
          "internalType": "uint256",
          "name": "expiresAt",
          "type": "uint256"
        },
        {
          "internalType": "enum RifasPlatform.RaffleStatus",
          "name": "status",
          "type": "uint8"
        },
        {
          "internalType": "address",
          "name": "winner",
          "type": "address"
        },
        {
          "internalType": "uint256",
          "name": "prizeAmount",
          "type": "uint256"
        },
        {
          "internalType": "uint256",
          "name": "platformFee",
          "type": "uint256"
        },
        {
          "internalType": "uint256",
          "name": "vrfRequestId",
          "type": "uint256"
        },
        {
          "internalType": "uint256",
          "name": "templateId",
          "type": "uint256"
        }
      ],
      "stateMutability": "view",
      "type": "function"
    },
    {
      "inputs": [
        {
          "internalType": "uint256",
          "name": "requestId",
          "type": "uint256"
        },
        {
          "internalType": "uint256[]",
          "name": "randomWords",
          "type": "uint256[]"
        }
      ],
      "name": "rawFulfillRandomWords",
      "outputs": [],
      "stateMutability": "nonpayable",
      "type": "function"
    },
    {
      "inputs": [],
      "name": "renounceOwnership",
      "outputs": [],
      "stateMutability": "nonpayable",
      "type": "function"
    },
    {
      "inputs": [],
      "name": "totalPlatformFees",
      "outputs": [
        {
          "internalType": "uint256",
          "name": "",
          "type": "uint256"
        }
      ],
      "stateMutability": "view",
      "type": "function"
    },
    {
      "inputs": [
        {
          "internalType": "address",
          "name": "newOwner",
          "type": "address"
        }
      ],
      "name": "transferOwnership",
      "outputs": [],
      "stateMutability": "nonpayable",
      "type": "function"
    },
    {
      "inputs": [],
      "name": "unpause",
      "outputs": [],
      "stateMutability": "nonpayable",
      "type": "function"
    },
    {
      "inputs": [],
      "name": "usdtToken",
      "outputs": [
        {
          "internalType": "contract IERC20",
          "name": "",
          "type": "address"
        }
      ],
      "stateMutability": "view",
      "type": "function"
    },
    {
      "inputs": [
        {
          "internalType": "address",
          "name": "",
          "type": "address"
        },
        {
          "internalType": "uint256",
          "name": "",
          "type": "uint256"
        }
      ],
      "name": "userRaffles",
      "outputs": [
        {
          "internalType": "uint256",
          "name": "",
          "type": "uint256"
        }
      ],
      "stateMutability": "view",
      "type": "function"
    },
    {
      "inputs": [
        {
          "internalType": "uint256",
          "name": "",
          "type": "uint256"
        }
      ],
      "name": "vrfRequestToRaffleId",
      "outputs": [
        {
          "internalType": "uint256",
          "name": "",
          "type": "uint256"
        }
      ],
      "stateMutability": "view",
      "type": "function"
    },
    {
      "inputs": [],
      "name": "withdrawPlatformFees",
      "outputs": [],
      "stateMutability": "nonpayable",
      "type": "function"
    }
  ],
  "bytecode": "0x6101006040526001600355348015610015575f5ffd5b50604051612800380380612800833981016040819052610034916101c8565b82338061005b57604051631e4fbdf760e01b81525f60048201526024015b60405180910390fd5b6100648161015e565b50600180556001600160a01b0390811660805284166100c55760405162461bcd60e51b815260206004820152601460248201527f496e76616c6964205553445420616464726573730000000000000000000000006044820152606401610052565b6001600160a01b03831661011b5760405162461bcd60e51b815260206004820152601760248201527f496e76616c69642056524620636f6f7264696e61746f720000000000000000006044820152606401610052565b6001600160a01b0393841660a05260028054610100600160a81b0319166101009490951693909302939093179091556001600160401b031660c05260e05261021e565b5f80546001600160a01b038381166001600160a01b0319831681178455604051919092169283917f8be0079c531659141344cd1fd0a4f28419497f9722a3daafe3b4186f6b6457e09190a35050565b80516001600160a01b03811681146101c3575f5ffd5b919050565b5f5f5f5f608085870312156101db575f5ffd5b6101e4856101ad565b93506101f2602086016101ad565b60408601519093506001600160401b038116811461020e575f5ffd5b6060959095015193969295505050565b60805160a05160c05160e0516125706102905f395f611c4201525f611c7101525f81816103e401528181610bf901528181610ec701528181610f7e01528181611300015281816113f2015281816116a201528181611aed0152611f9b01525f8181610741015261078301526125705ff3fe608060405234801561000f575f5ffd5b50600436106101e7575f3560e01c80638da5cb5b11610109578063d3631fa51161009e578063e4be261d1161006e578063e4be261d14610480578063e4dafec914610493578063ef11c809146104bc578063f2fde38b146104cf575f5ffd5b8063d3631fa514610453578063d51075c11461045c578063d665b67d1461046f578063e1f1c4a714610477575f5ffd5b8063b49b0cb3116100d9578063b49b0cb314610406578063b678b37014610419578063ce65089c14610438578063d0b7830b1461044b575f5ffd5b80638da5cb5b1461037b57806398d711381461039f578063a6e3295b146103bf578063a98ad46c146103df575f5ffd5b80635d4bc0ce1161017f57806367dd74ca1161014f57806367dd74ca1461034f578063715018a6146103625780638456cb591461036a5780638458e3e414610372575f5ffd5b80635d4bc0ce146102915780635fba31711461032057806360314b1f1461033357806366ea762c1461033c575f5ffd5b806323d1b06c116101ba57806323d1b06c1461025c5780632463bef61461026b5780633f4ba83a1461027e5780635c975abb14610286575f5ffd5b80630cb9ea7a146101eb5780631ce38054146102115780631fe543e3146102245780631ff6da2114610239575b5f5ffd5b6101fe6101f93660046120af565b6104e2565b6040519081526020015b60405180910390f35b6101fe61021f3660046120e6565b6106f2565b610237610232366004612111565b610736565b005b61024c610247366004612200565b6107be565b6040519015158152602001610208565b6101fe670de0b6b3a764000081565b6101fe6102793660046120e6565b61081c565b610237610860565b60025460ff1661024c565b61030861029f3660046120e6565b600660208190525f91825260409091208054600182015460028301546003840154600485015460058601549686015460078701546008880154600b890154600c9099015497999698959794969395939460ff8416946101009094046001600160a01b031693908c565b6040516102089c9b9a9998979695949392919061225e565b61023761032e3660046120e6565b610872565b6101fe60055481565b61023761034a3660046120e6565b610936565b61023761035d3660046120e6565b610a45565b610237610d2e565b610237610d3f565b6101fe60035481565b5f546001600160a01b03165b6040516001600160a01b039091168152602001610208565b6103b26103ad3660046122cf565b610d4f565b60405161020891906122e8565b6103d26103cd3660046120e6565b610db8565b604051610208919061232a565b6103877f000000000000000000000000000000000000000000000000000000000000000081565b61023761041436600461236a565b610eb5565b6101fe6104273660046120e6565b60086020525f908152604090205481565b6102376104463660046120e6565b611093565b61023761137a565b6101fe60045481565b6101fe61046a36600461236a565b611470565b6101fe60c881565b6101fe61271081565b61023761048e3660046120e6565b61149b565b6104a66104a13660046120e6565b6117b3565b6040516102089a99989796959493929190612392565b6101fe6104ca3660046123f4565b611850565b6102376104dd3660046122cf565b611871565b5f6104eb6118ae565b6104f36118da565b5f85116105475760405162461bcd60e51b815260206004820152601d60248201527f5469636b6574207072696365206d75737420626520706f73697469766500000060448201526064015b60405180910390fd5b5f84116105965760405162461bcd60e51b815260206004820152601c60248201527f4d6178207469636b657473206d75737420626520706f73697469766500000000604482015260640161053e565b5f831180156105a55750838311155b6105e75760405162461bcd60e51b8152602060048201526013602482015272496e76616c6964206d696e207469636b65747360681b604482015260640161053e565b5f82116106365760405162461bcd60e51b815260206004820152601960248201527f4475726174696f6e206d75737420626520706f73697469766500000000000000604482015260640161053e565b60038054905f61064583612428565b909155505f81815260066020526040812082815560018101889055600281018790556003810186905560048101919091559091506106838342612440565b6005820181905560068201805460ff19169055600c82018890556040805188815260208101889052808201879052606081019290925251889184917f38e4b9d0e4320e52e3c771ea31882a1cb858df7355c2f2a8eb69362bc010fcc29181900360800190a35095945050505050565b5f815f81118015610704575060035481105b6107205760405162461bcd60e51b815260040161053e90612453565b50505f9081526006602052604090206004015490565b336001600160a01b037f000000000000000000000000000000000000000000000000000000000000000016146107b05760405163073e64fd60e21b81523360048201526001600160a01b037f000000000000000000000000000000000000000000000000000000000000000016602482015260440161053e565b6107ba82826118fe565b5050565b5f825f811180156107d0575060035481105b6107ec5760405162461bcd60e51b815260040161053e90612453565b50505f9182526006602090815260408084206001600160a01b03939093168452600a909201905290205460ff1690565b5f815f8111801561082e575060035481105b61084a5760405162461bcd60e51b815260040161053e90612453565b50505f908152600660205260409020600b015490565b6108686118ae565b6108706119f4565b565b61087a6118ae565b805f8111801561088b575060035481105b6108a75760405162461bcd60e51b815260040161053e90612453565b6108af611a46565b5f82815260066020526040812090600682015460ff1660058111156108d6576108d661222a565b146109235760405162461bcd60e51b815260206004820152601f60248201527f43616e206f6e6c792063616e63656c2066696c6c696e6720726166666c657300604482015260640161053e565b61092c83611a70565b506107ba60018055565b61093e6118ae565b805f8111801561094f575060035481105b61096b5760405162461bcd60e51b815260040161053e90612453565b610973611a46565b61097b6118da565b5f8281526006602052604090206001600682015460ff1660058111156109a3576109a361222a565b14806109e957505f600682015460ff1660058111156109c4576109c461222a565b1480156109d5575080600501544210155b80156109e957508060030154816004015410155b610a2d5760405162461bcd60e51b815260206004820152601560248201527443616e6e6f74206578656375746520726166666c6560581b604482015260640161053e565b60068101805460ff1916600217905561092c83611bbb565b805f81118015610a56575060035481105b610a725760405162461bcd60e51b815260040161053e90612453565b815f5f828152600660208190526040909120015460ff166005811115610a9a57610a9a61222a565b14610ae75760405162461bcd60e51b815260206004820152601c60248201527f526166666c65206e6f7420616363657074696e67207469636b65747300000000604482015260640161053e565b610aef611a46565b610af76118da565b5f83815260066020526040902060058101544210610b485760405162461bcd60e51b815260206004820152600e60248201526d149859999b1948195e1c1a5c995960921b604482015260640161053e565b335f908152600a8201602052604090205460ff1615610b9e5760405162461bcd60e51b8152602060048201526012602482015271105b1c9958591e481a185cc81d1a58dad95d60721b604482015260640161053e565b8060020154816004015410610be65760405162461bcd60e51b815260206004820152600e60248201526d149859999b19481a5cc8199d5b1b60921b604482015260640161053e565b6001810154610c23906001600160a01b037f0000000000000000000000000000000000000000000000000000000000000000169033903090611d4f565b600981018054600181810183555f928352602080842090920180546001600160a01b031916339081179091558352600a840190915260408220805460ff1916909117905560048201805491610c7783612428565b9091555050335f90815260076020908152604082208054600181810183559184529183209091018690558201546005805491929091610cb7908490612440565b90915550506004810154604051908152339085907f913d09b391f64143215d9312fd7e8ecaa06001c646789c9d2109dc515bc34fad9060200160405180910390a38060020154816004015403610d1f5760068101805460ff19166002179055610d1f84611bbb565b50610d2960018055565b505050565b610d366118ae565b6108705f611dbc565b610d476118ae565b610870611e0b565b6001600160a01b0381165f90815260076020908152604091829020805483518184028101840190945280845260609392830182828015610dac57602002820191905f5260205f20905b815481526020019060010190808311610d98575b50505050509050919050565b6060815f81118015610dcb575060035481105b610de75760405162461bcd60e51b815260040161053e90612453565b5f838152600660205260409020600481015467ffffffffffffffff811115610e1157610e116120fd565b604051908082528060200260200182016040528015610e3a578160200160208202803683370190505b5092505f5b8160040154811015610ead57816009018181548110610e6057610e60612482565b905f5260205f20015f9054906101000a90046001600160a01b0316848281518110610e8d57610e8d612482565b6001600160a01b0390921660209283029190910190910152600101610e3f565b505050919050565b610ebd6118ae565b610ec5611a46565b7f00000000000000000000000000000000000000000000000000000000000000006001600160a01b0316826001600160a01b03160361106557600454811115610f675760405162461bcd60e51b815260206004820152602e60248201527f43616e6e6f74207265636f76657220757365722066756e6473202d206f6e6c7960448201526d20706c6174666f726d206665657360901b606482015260840161053e565b6040516370a0823160e01b81523060048201525f907f00000000000000000000000000000000000000000000000000000000000000006001600160a01b0316906370a0823190602401602060405180830381865afa158015610fcb573d5f5f3e3d5ffd5b505050506040513d601f19601f82011682018060405250810190610fef9190612496565b90505f610ffb60055490565b90508061100884846124ad565b10156110625760405162461bcd60e51b8152602060048201526024808201527f5265636f7665727920776f756c6420636f6d70726f6d69736520757365722066604482015263756e647360e01b606482015260840161053e565b50505b61108a6110795f546001600160a01b031690565b6001600160a01b0384169083611e48565b6107ba60018055565b805f811180156110a4575060035481105b6110c05760405162461bcd60e51b815260040161053e90612453565b6110c8611a46565b6110d06118da565b5f82815260066020526040812090600682015460ff1660058111156110f7576110f761222a565b146111445760405162461bcd60e51b815260206004820152601c60248201527f526166666c65206e6f7420696e2066696c6c696e672073746174757300000000604482015260640161053e565b335f908152600a8201602052604090205460ff166111a45760405162461bcd60e51b815260206004820152601760248201527f596f7520646f6e277420686176652061207469636b6574000000000000000000604482015260640161053e565b335f908152600a820160205260408120805460ff19169055600482018054916111cc836124c0565b909155505f90505b60098201548110156112d257336001600160a01b03168260090182815481106111ff576111ff612482565b5f918252602090912001546001600160a01b0316036112ca5760098201805461122a906001906124ad565b8154811061123a5761123a612482565b5f918252602090912001546009830180546001600160a01b03909216918390811061126757611267612482565b905f5260205f20015f6101000a8154816001600160a01b0302191690836001600160a01b03160217905550816009018054806112a5576112a56124d5565b5f8281526020902081015f1990810180546001600160a01b03191690550190556112d2565b6001016111d4565b50806001015460055f8282546112e891906124ad565b90915550506001810154611328906001600160a01b037f000000000000000000000000000000000000000000000000000000000000000016903390611e48565b336001600160a01b0316837f7a482fdeb6bc9a1376f597068a214a7a39472bb2eff1b8cad21ba04f49ddca1b836001015460405161136891815260200190565b60405180910390a3506107ba60018055565b6113826118ae565b61138a611a46565b600454806113d05760405162461bcd60e51b81526020600482015260136024820152724e6f206665657320746f20776974686472617760681b604482015260640161053e565b5f6004556114196113e85f546001600160a01b031690565b6001600160a01b037f0000000000000000000000000000000000000000000000000000000000000000169083611e48565b5f546001600160a01b03166001600160a01b03167ffc7ad544ff6a06d6499925723d25b6fe70457a42939995b1d3d6f560fe3363338260405161145e91815260200190565b60405180910390a25061087060018055565b6007602052815f5260405f208181548110611489575f80fd5b905f5260205f20015f91509150505481565b6114a36118ae565b805f811180156114b4575060035481105b6114d05760405162461bcd60e51b815260040161053e90612453565b6114d8611a46565b6114e06118da565b5f82815260066020526040812090600682015460ff1660058111156115075761150761222a565b146115545760405162461bcd60e51b815260206004820152601c60248201527f526166666c65206e6f7420696e2066696c6c696e672073746174757300000000604482015260640161053e565b806005015442101561159d5760405162461bcd60e51b8152602060048201526012602482015271149859999b19481b9bdd08195e1c1a5c995960721b604482015260640161053e565b80600301548160040154106115f45760405162461bcd60e51b815260206004820152601a60248201527f4d65657473206d696e696d756d207061727469636970616e7473000000000000604482015260640161053e565b60068101805460ff19166005179055600481015460018201545f91611618916124e9565b60048301549091505f5b836004015481101561171c575f84600901828154811061164457611644612482565b5f9182526020808320909101546001600160a01b0316808352600a880190915260409091205490915060ff1615611713576001600160a01b038082165f908152600a870160205260409020805460ff1916905560018601546116ca917f000000000000000000000000000000000000000000000000000000000000000016908390611e48565b806001600160a01b0316877f7a482fdeb6bc9a1376f597068a214a7a39472bb2eff1b8cad21ba04f49ddca1b876001015460405161170a91815260200190565b60405180910390a35b50600101611622565b508160055f82825461172e91906124ad565b909155505060068301805460ff19166004179055604080518281526020810184905286917f4ec7e56c3033a6bd83b9349e021aec6978d1fb9d8aa84ee11e0cf7a996fc0407910160405180910390a260405185907f7fa78bab5d5570f162c69234a3f4d1b9294fd5bca72219cb16c1fe38839ccb8a905f90a25050506107ba60018055565b5f5f5f5f5f5f5f5f5f5f8a5f811180156117ce575060035481105b6117ea5760405162461bcd60e51b815260040161053e90612453565b5050505f98895250506006602081905260409097208054600182015460028301546003840154600485015460058601549c8601546007870154600890970154959e949d939c50919a50985090965060ff8116955061010090046001600160a01b03169350565b5f8061185c83856124e9565b905061186781611e79565b9150505b92915050565b6118796118ae565b6001600160a01b0381166118a257604051631e4fbdf760e01b81525f600482015260240161053e565b6118ab81611dbc565b50565b5f546001600160a01b031633146108705760405163118cdaa760e01b815233600482015260240161053e565b60025460ff16156108705760405163d93c066560e01b815260040160405180910390fd5b5f82815260086020526040812054908190036119515760405162461bcd60e51b8152602060048201526012602482015271125b9d985b1a59081c995c5d595cdd08125160721b604482015260640161053e565b5f8181526006602052604090206002600682015460ff1660058111156119795761197961222a565b146119c65760405162461bcd60e51b815260206004820152601c60248201527f526166666c65206e6f7420696e2064726177696e672073746174757300000000604482015260640161053e565b5f835f815181106119d9576119d9612482565b602002602001015190506119ed8382611eae565b5050505050565b6119fc612020565b6002805460ff191690557f5db9ee0a495bf2e6ff9c91a7834c1ba4fdd244a5e8aa4e537bd38aeae4b073aa335b6040516001600160a01b03909116815260200160405180910390a1565b600260015403611a6957604051633ee5aeb560e01b815260040160405180910390fd5b6002600155565b5f8181526006602081905260408220908101805460ff1916600517905560048101546001820154919291611aa491906124e9565b90505f5b8260040154811015611b66575f836009018281548110611aca57611aca612482565b5f9182526020909120015460018501546001600160a01b039182169250611b15917f000000000000000000000000000000000000000000000000000000000000000016908390611e48565b806001600160a01b0316857f7a482fdeb6bc9a1376f597068a214a7a39472bb2eff1b8cad21ba04f49ddca1b8660010154604051611b5591815260200190565b60405180910390a350600101611aa8565b508060055f828254611b7891906124ad565b909155505060068201805460ff1916600417905560405183907f7fa78bab5d5570f162c69234a3f4d1b9294fd5bca72219cb16c1fe38839ccb8a905f90a2505050565b5f8181526006602052604090206002600682015460ff166005811115611be357611be361222a565b14611c305760405162461bcd60e51b815260206004820181905260248201527f526166666c65206d75737420626520696e2044524157494e4720737461747573604482015260640161053e565b6002546040516305d3b1d360e41b81527f0000000000000000000000000000000000000000000000000000000000000000600482015267ffffffffffffffff7f000000000000000000000000000000000000000000000000000000000000000016602482015260036044820152620186a06064820152600160848201525f9161010090046001600160a01b031690635d3b1d309060a4016020604051808303815f875af1158015611ce3573d5f5f3e3d5ffd5b505050506040513d601f19601f82011682018060405250810190611d079190612496565b600b83018190555f8181526008602052604080822086905551919250829185917f3d94fecedaa4f90b8bd459797adb95f5bb11426025c5541390d9ccc1ad1b60a191a3505050565b6040516001600160a01b038481166024830152838116604483015260648201839052611db69186918216906323b872dd906084015b604051602081830303815290604052915060e01b6020820180516001600160e01b038381831617835250505050612043565b50505050565b5f80546001600160a01b038381166001600160a01b0319831681178455604051919092169283917f8be0079c531659141344cd1fd0a4f28419497f9722a3daafe3b4186f6b6457e09190a35050565b611e136118da565b6002805460ff191660011790557f62e78cea01bee320cd4e420270b5ea74000d11b0c9f74754ebdbfc544b05a258611a293390565b6040516001600160a01b03838116602483015260448201839052610d2991859182169063a9059cbb90606401611d84565b5f80612710611e8960c8856124e9565b611e939190612514565b9050611ea781670de0b6b3a7640000612440565b9392505050565b5f82815260066020526040812060048101546001820154919291611ed291906124e9565b90505f611ede82611e79565b90505f611eeb82846124ad565b60088501839055600785018190556004805491925083915f90611f0f908490612440565b909155505060048401545f90611f259087612527565b90505f856009018281548110611f3d57611f3d612482565b5f9182526020822001546006880180546001600160a81b03191660ff196101006001600160a01b03909416938402161760031790556005805491935087929091611f889084906124ad565b90915550611fc290506001600160a01b037f0000000000000000000000000000000000000000000000000000000000000000168285611e48565b600c86015460408051858152602081018790529081018990526001600160a01b03831691908a907fd3a62d4818ae90e3fa377a41a384af90b8a070e4b4ca5bf8ce3382ad664085eb9060600160405180910390a45050505050505050565b60025460ff1661087057604051638dfc202b60e01b815260040160405180910390fd5b5f5f60205f8451602086015f885af180612062576040513d5f823e3d81fd5b50505f513d91508115612079578060011415612086565b6001600160a01b0384163b155b15611db657604051635274afe760e01b81526001600160a01b038516600482015260240161053e565b5f5f5f5f5f60a086880312156120c3575f5ffd5b505083359560208501359550604085013594606081013594506080013592509050565b5f602082840312156120f6575f5ffd5b5035919050565b634e487b7160e01b5f52604160045260245ffd5b5f5f60408385031215612122575f5ffd5b82359150602083013567ffffffffffffffff81111561213f575f5ffd5b8301601f8101851361214f575f5ffd5b803567ffffffffffffffff811115612169576121696120fd565b8060051b604051601f19603f830116810181811067ffffffffffffffff82111715612196576121966120fd565b6040529182526020818401810192908101888411156121b3575f5ffd5b6020850194505b838510156121d6578435808252602095860195909350016121ba565b50809450505050509250929050565b80356001600160a01b03811681146121fb575f5ffd5b919050565b5f5f60408385031215612211575f5ffd5b82359150612221602084016121e5565b90509250929050565b634e487b7160e01b5f52602160045260245ffd5b6006811061225a57634e487b7160e01b5f52602160045260245ffd5b9052565b5f610180820190508d82528c60208301528b60408301528a60608301528960808301528860a083015261229460c083018961223e565b6001600160a01b039690961660e082015261010081019490945261012084019290925261014083015261016090910152979650505050505050565b5f602082840312156122df575f5ffd5b611ea7826121e5565b602080825282518282018190525f918401906040840190835b8181101561231f578351835260209384019390920191600101612301565b509095945050505050565b602080825282518282018190525f918401906040840190835b8181101561231f5783516001600160a01b0316835260209384019390920191600101612343565b5f5f6040838503121561237b575f5ffd5b612384836121e5565b946020939093013593505050565b5f610140820190508b82528a60208301528960408301528860608301528760808301528660a08301526123c860c083018761223e565b6001600160a01b039490941660e082015261010081019290925261012090910152979650505050505050565b5f5f60408385031215612405575f5ffd5b50508035926020909101359150565b634e487b7160e01b5f52601160045260245ffd5b5f6001820161243957612439612414565b5060010190565b8082018082111561186b5761186b612414565b602080825260159082015274149859999b1948191bd95cc81b9bdd08195e1a5cdd605a1b604082015260600190565b634e487b7160e01b5f52603260045260245ffd5b5f602082840312156124a6575f5ffd5b5051919050565b8181038181111561186b5761186b612414565b5f816124ce576124ce612414565b505f190190565b634e487b7160e01b5f52603160045260245ffd5b808202811582820484141761186b5761186b612414565b634e487b7160e01b5f52601260045260245ffd5b5f8261252257612522612500565b500490565b5f8261253557612535612500565b50069056fea2646970667358221220c6d10e342081fe650b3ace5b3f04a0c2492f5b40fafa278c1c1026ce59b6d5df64736f6c634300081c0033",
  "linkReferences": {},
  "deployedLinkReferences": {},
  "immutableReferences": {
    "10": [
      {
        "length": 32,
        "start": 1857
      },
      {
        "length": 32,
        "start": 1923
      }
    ],
    "1997": [
      {
        "length": 32,
        "start": 996
      },
      {
        "length": 32,
        "start": 3065
      },
      {
        "length": 32,
        "start": 3783
      },
      {
        "length": 32,
        "start": 3966
      },
      {
        "length": 32,
        "start": 4864
      },
      {
        "length": 32,
        "start": 5106
      },
      {
        "length": 32,
        "start": 5794
      },
      {
        "length": 32,
        "start": 6893
      },
      {
        "length": 32,
        "start": 8091
      }
    ],
    "2011": [
      {
        "length": 32,
        "start": 7281
      }
    ],
    "2013": [
      {
        "length": 32,
        "start": 7234
      }
    ]
  },
  "inputSourceName": "project/contracts/RifasPlatform.sol",
  "buildInfoId": "solc-0_8_28-9891d09b55e111b13e372b089db7c676817d7b1e"
}