{
  "_format": "hh3-artifact-1",
  "contractName": "RifasPlatform",
  "sourceName": "contracts/RifasPlatform.sol",
  "abi": [
    {
      "inputs": [
        {
          "internalType": "address",
          "name": "_usdtToken",
          "type": "address"
        },
        {
          "internalType": "address",
          "name": "_vrfCoordinator",
          "type": "address"
        },
        {
          "internalType": "uint64",
          "name": "_subscriptionId",
          "type": "uint64"
        },
        {
          "internalType": "bytes32",
          "name": "_keyHash",
          "type": "bytes32"
        }
      ],
      "stateMutability": "nonpayable",
      "type": "constructor"
    },
    {
      "inputs": [],
      "name": "EnforcedPause",
      "type": "error"
    },
    {
      "inputs": [],
      "name": "ExpectedPause",
      "type": "error"
    },
    {
      "inputs": [
        {
          "internalType": "address",
          "name": "have",
          "type": "address"
        },
        {
          "internalType": "address",
          "name": "want",
          "type": "address"
        }
      ],
      "name": "OnlyCoordinatorCanFulfill",
      "type": "error"
    },
    {
      "inputs": [
        {
          "internalType": "address",
          "name": "owner",
          "type": "address"
        }
      ],
      "name": "OwnableInvalidOwner",
      "type": "error"
    },
    {
      "inputs": [
        {
          "internalType": "address",
          "name": "account",
          "type": "address"
        }
      ],
      "name": "OwnableUnauthorizedAccount",
      "type": "error"
    },
    {
      "inputs": [],
      "name": "ReentrancyGuardReentrantCall",
      "type": "error"
    },
    {
      "inputs": [
        {
          "internalType": "address",
          "name": "token",
          "type": "address"
        }
      ],
      "name": "SafeERC20FailedOperation",
      "type": "error"
    },
    {
      "anonymous": false,
      "inputs": [
        {
          "indexed": true,
          "internalType": "address",
          "name": "addr",
          "type": "address"
        },
        {
          "indexed": false,
          "internalType": "string",
          "name": "reason",
          "type": "string"
        },
        {
          "indexed": true,
          "internalType": "uint256",
          "name": "timestamp",
          "type": "uint256"
        }
      ],
      "name": "AddressBlocked",
      "type": "event"
    },
    {
      "anonymous": false,
      "inputs": [
        {
          "indexed": true,
          "internalType": "address",
          "name": "addr",
          "type": "address"
        },
        {
          "indexed": true,
          "internalType": "uint256",
          "name": "timestamp",
          "type": "uint256"
        }
      ],
      "name": "AddressUnblocked",
      "type": "event"
    },
    {
      "anonymous": false,
      "inputs": [
        {
          "indexed": true,
          "internalType": "address",
          "name": "admin",
          "type": "address"
        },
        {
          "indexed": true,
          "internalType": "uint256",
          "name": "timestamp",
          "type": "uint256"
        }
      ],
      "name": "EmergencyPaused",
      "type": "event"
    },
    {
      "anonymous": false,
      "inputs": [
        {
          "indexed": true,
          "internalType": "address",
          "name": "admin",
          "type": "address"
        },
        {
          "indexed": true,
          "internalType": "uint256",
          "name": "timestamp",
          "type": "uint256"
        }
      ],
      "name": "EmergencyUnpaused",
      "type": "event"
    },
    {
      "anonymous": false,
      "inputs": [
        {
          "indexed": true,
          "internalType": "address",
          "name": "previousOwner",
          "type": "address"
        },
        {
          "indexed": true,
          "internalType": "address",
          "name": "newOwner",
          "type": "address"
        }
      ],
      "name": "OwnershipTransferred",
      "type": "event"
    },
    {
      "anonymous": false,
      "inputs": [
        {
          "indexed": false,
          "internalType": "address",
          "name": "account",
          "type": "address"
        }
      ],
      "name": "Paused",
      "type": "event"
    },
    {
      "anonymous": false,
      "inputs": [
        {
          "indexed": true,
          "internalType": "address",
          "name": "owner",
          "type": "address"
        },
        {
          "indexed": true,
          "internalType": "uint256",
          "name": "amount",
          "type": "uint256"
        }
      ],
      "name": "PlatformFeesWithdrawn",
      "type": "event"
    },
    {
      "anonymous": false,
      "inputs": [
        {
          "indexed": true,
          "internalType": "uint256",
          "name": "raffleId",
          "type": "uint256"
        }
      ],
      "name": "RaffleCancelled",
      "type": "event"
    },
    {
      "anonymous": false,
      "inputs": [
        {
          "indexed": true,
          "internalType": "uint256",
          "name": "raffleId",
          "type": "uint256"
        },
        {
          "indexed": true,
          "internalType": "uint256",
          "name": "templateId",
          "type": "uint256"
        },
        {
          "indexed": true,
          "internalType": "address",
          "name": "winner",
          "type": "address"
        },
        {
          "indexed": false,
          "internalType": "uint256",
          "name": "prizeAmount",
          "type": "uint256"
        },
        {
          "indexed": false,
          "internalType": "uint256",
          "name": "platformFee",
          "type": "uint256"
        },
        {
          "indexed": false,
          "internalType": "uint256",
          "name": "randomNumber",
          "type": "uint256"
        }
      ],
      "name": "RaffleCompleted",
      "type": "event"
    },
    {
      "anonymous": false,
      "inputs": [
        {
          "indexed": true,
          "internalType": "uint256",
          "name": "contractRaffleId",
          "type": "uint256"
        },
        {
          "indexed": true,
          "internalType": "uint256",
          "name": "templateId",
          "type": "uint256"
        },
        {
          "indexed": true,
          "internalType": "uint256",
          "name": "referenceId",
          "type": "uint256"
        },
        {
          "indexed": false,
          "internalType": "uint256",
          "name": "ticketPrice",
          "type": "uint256"
        },
        {
          "indexed": false,
          "internalType": "uint256",
          "name": "maxTickets",
          "type": "uint256"
        },
        {
          "indexed": false,
          "internalType": "uint256",
          "name": "minTickets",
          "type": "uint256"
        },
        {
          "indexed": false,
          "internalType": "uint256",
          "name": "expiresAt",
          "type": "uint256"
        }
      ],
      "name": "RaffleCreated",
      "type": "event"
    },
    {
      "anonymous": false,
      "inputs": [
        {
          "indexed": true,
          "internalType": "uint256",
          "name": "raffleId",
          "type": "uint256"
        },
        {
          "indexed": true,
          "internalType": "uint256",
          "name": "vrfRequestId",
          "type": "uint256"
        }
      ],
      "name": "RandomnessRequested",
      "type": "event"
    },
    {
      "anonymous": false,
      "inputs": [
        {
          "indexed": true,
          "internalType": "uint256",
          "name": "raffleId",
          "type": "uint256"
        },
        {
          "indexed": true,
          "internalType": "uint256",
          "name": "newVrfRequestId",
          "type": "uint256"
        }
      ],
      "name": "RandomnessRetried",
      "type": "event"
    },
    {
      "anonymous": false,
      "inputs": [
        {
          "indexed": true,
          "internalType": "uint256",
          "name": "raffleId",
          "type": "uint256"
        },
        {
          "indexed": true,
          "internalType": "uint256",
          "name": "participantsRefunded",
          "type": "uint256"
        },
        {
          "indexed": true,
          "internalType": "uint256",
          "name": "totalRefunded",
          "type": "uint256"
        }
      ],
      "name": "RefundBatchCompleted",
      "type": "event"
    },
    {
      "anonymous": false,
      "inputs": [
        {
          "indexed": true,
          "internalType": "uint256",
          "name": "raffleId",
          "type": "uint256"
        },
        {
          "indexed": true,
          "internalType": "address",
          "name": "user",
          "type": "address"
        },
        {
          "indexed": true,
          "internalType": "uint256",
          "name": "amount",
          "type": "uint256"
        }
      ],
      "name": "RefundIssued",
      "type": "event"
    },
    {
      "anonymous": false,
      "inputs": [
        {
          "indexed": true,
          "internalType": "uint256",
          "name": "raffleId",
          "type": "uint256"
        },
        {
          "indexed": true,
          "internalType": "address",
          "name": "participant",
          "type": "address"
        },
        {
          "indexed": true,
          "internalType": "uint256",
          "name": "ticketNumber",
          "type": "uint256"
        }
      ],
      "name": "TicketBought",
      "type": "event"
    },
    {
      "anonymous": false,
      "inputs": [
        {
          "indexed": false,
          "internalType": "address",
          "name": "account",
          "type": "address"
        }
      ],
      "name": "Unpaused",
      "type": "event"
    },
    {
      "inputs": [],
      "name": "BASIS_POINTS",
      "outputs": [
        {
          "internalType": "uint256",
          "name": "",
          "type": "uint256"
        }
      ],
      "stateMutability": "view",
      "type": "function"
    },
    {
      "inputs": [],
      "name": "FIXED_FEE",
      "outputs": [
        {
          "internalType": "uint256",
          "name": "",
          "type": "uint256"
        }
      ],
      "stateMutability": "view",
      "type": "function"
    },
    {
      "inputs": [],
      "name": "PERCENTAGE_FEE",
      "outputs": [
        {
          "internalType": "uint256",
          "name": "",
          "type": "uint256"
        }
      ],
      "stateMutability": "view",
      "type": "function"
    },
    {
      "inputs": [
        {
          "internalType": "address",
          "name": "addr",
          "type": "address"
        },
        {
          "internalType": "string",
          "name": "reason",
          "type": "string"
        }
      ],
      "name": "addToBlocklist",
      "outputs": [],
      "stateMutability": "nonpayable",
      "type": "function"
    },
    {
      "inputs": [
        {
          "internalType": "address[]",
          "name": "addresses",
          "type": "address[]"
        },
        {
          "internalType": "string[]",
          "name": "reasons",
          "type": "string[]"
        }
      ],
      "name": "addToBlocklistBatch",
      "outputs": [],
      "stateMutability": "nonpayable",
      "type": "function"
    },
    {
      "inputs": [
        {
          "internalType": "uint256[]",
          "name": "raffleIds",
          "type": "uint256[]"
        }
      ],
      "name": "archiveRaffles",
      "outputs": [],
      "stateMutability": "nonpayable",
      "type": "function"
    },
    {
      "inputs": [
        {
          "internalType": "address",
          "name": "",
          "type": "address"
        }
      ],
      "name": "blockReasons",
      "outputs": [
        {
          "internalType": "string",
          "name": "",
          "type": "string"
        }
      ],
      "stateMutability": "view",
      "type": "function"
    },
    {
      "inputs": [
        {
          "internalType": "address",
          "name": "",
          "type": "address"
        }
      ],
      "name": "blocklist",
      "outputs": [
        {
          "internalType": "bool",
          "name": "",
          "type": "bool"
        }
      ],
      "stateMutability": "view",
      "type": "function"
    },
    {
      "inputs": [
        {
          "internalType": "uint256",
          "name": "raffleId",
          "type": "uint256"
        }
      ],
      "name": "buyTicket",
      "outputs": [],
      "stateMutability": "nonpayable",
      "type": "function"
    },
    {
      "inputs": [
        {
          "internalType": "uint256",
          "name": "raffleId",
          "type": "uint256"
        }
      ],
      "name": "cancelRaffle",
      "outputs": [],
      "stateMutability": "nonpayable",
      "type": "function"
    },
    {
      "inputs": [],
      "name": "checkAccountingInvariant",
      "outputs": [
        {
          "internalType": "bool",
          "name": "isValid",
          "type": "bool"
        },
        {
          "internalType": "uint256",
          "name": "contractBalance",
          "type": "uint256"
        },
        {
          "internalType": "uint256",
          "name": "reservedFunds",
          "type": "uint256"
        },
        {
          "internalType": "uint256",
          "name": "platformFees",
          "type": "uint256"
        }
      ],
      "stateMutability": "view",
      "type": "function"
    },
    {
      "inputs": [
        {
          "internalType": "uint256",
          "name": "raffleId",
          "type": "uint256"
        },
        {
          "internalType": "uint256",
          "name": "ticketNumber",
          "type": "uint256"
        }
      ],
      "name": "claimRefund",
      "outputs": [],
      "stateMutability": "nonpayable",
      "type": "function"
    },
    {
      "inputs": [
        {
          "internalType": "uint256",
          "name": "templateId",
          "type": "uint256"
        },
        {
          "internalType": "uint256",
          "name": "referenceId",
          "type": "uint256"
        },
        {
          "internalType": "uint256",
          "name": "ticketPrice",
          "type": "uint256"
        },
        {
          "internalType": "uint256",
          "name": "maxTickets",
          "type": "uint256"
        },
        {
          "internalType": "uint256",
          "name": "minTickets",
          "type": "uint256"
        },
        {
          "internalType": "uint256",
          "name": "durationSeconds",
          "type": "uint256"
        }
      ],
      "name": "createRaffle",
      "outputs": [
        {
          "internalType": "uint256",
          "name": "contractRaffleId",
          "type": "uint256"
        }
      ],
      "stateMutability": "nonpayable",
      "type": "function"
    },
    {
      "inputs": [],
      "name": "emergencyPause",
      "outputs": [],
      "stateMutability": "nonpayable",
      "type": "function"
    },
    {
      "inputs": [],
      "name": "emergencyUnpause",
      "outputs": [],
      "stateMutability": "nonpayable",
      "type": "function"
    },
    {
      "inputs": [
        {
          "internalType": "uint256",
          "name": "raffleId",
          "type": "uint256"
        }
      ],
      "name": "executeRaffle",
      "outputs": [],
      "stateMutability": "nonpayable",
      "type": "function"
    },
    {
      "inputs": [
        {
          "internalType": "uint256",
          "name": "raffleId",
          "type": "uint256"
        }
      ],
      "name": "executeRefundBatch",
      "outputs": [],
      "stateMutability": "nonpayable",
      "type": "function"
    },
    {
      "inputs": [
        {
          "internalType": "address",
          "name": "addr",
          "type": "address"
        }
      ],
      "name": "getBlockStatus",
      "outputs": [
        {
          "internalType": "bool",
          "name": "isBlocked",
          "type": "bool"
        },
        {
          "internalType": "string",
          "name": "reason",
          "type": "string"
        }
      ],
      "stateMutability": "view",
      "type": "function"
    },
    {
      "inputs": [],
      "name": "getContractFinancials",
      "outputs": [
        {
          "internalType": "uint256",
          "name": "contractBalance",
          "type": "uint256"
        },
        {
          "internalType": "uint256",
          "name": "platformFeesAccumulated",
          "type": "uint256"
        },
        {
          "internalType": "uint256",
          "name": "userFundsReserved",
          "type": "uint256"
        },
        {
          "internalType": "uint256",
          "name": "withdrawableAmount",
          "type": "uint256"
        }
      ],
      "stateMutability": "view",
      "type": "function"
    },
    {
      "inputs": [
        {
          "internalType": "uint256",
          "name": "raffleId",
          "type": "uint256"
        }
      ],
      "name": "getRaffle",
      "outputs": [
        {
          "internalType": "uint256",
          "name": "id",
          "type": "uint256"
        },
        {
          "internalType": "uint256",
          "name": "ticketPrice",
          "type": "uint256"
        },
        {
          "internalType": "uint256",
          "name": "maxTickets",
          "type": "uint256"
        },
        {
          "internalType": "uint256",
          "name": "minTickets",
          "type": "uint256"
        },
        {
          "internalType": "uint256",
          "name": "currentTickets",
          "type": "uint256"
        },
        {
          "internalType": "uint256",
          "name": "expiresAt",
          "type": "uint256"
        },
        {
          "internalType": "enum RifasPlatform.RaffleStatus",
          "name": "status",
          "type": "uint8"
        }
      ],
      "stateMutability": "view",
      "type": "function"
    },
    {
      "inputs": [
        {
          "internalType": "uint256",
          "name": "raffleId",
          "type": "uint256"
        }
      ],
      "name": "getRaffleVRFRequestId",
      "outputs": [
        {
          "internalType": "uint256",
          "name": "vrfRequestId",
          "type": "uint256"
        }
      ],
      "stateMutability": "view",
      "type": "function"
    },
    {
      "inputs": [],
      "name": "getTokenDecimals",
      "outputs": [
        {
          "internalType": "uint8",
          "name": "decimals",
          "type": "uint8"
        }
      ],
      "stateMutability": "view",
      "type": "function"
    },
    {
      "inputs": [],
      "name": "globalReservedUserFunds",
      "outputs": [
        {
          "internalType": "uint256",
          "name": "",
          "type": "uint256"
        }
      ],
      "stateMutability": "view",
      "type": "function"
    },
    {
      "inputs": [
        {
          "internalType": "uint256",
          "name": "raffleId",
          "type": "uint256"
        },
        {
          "internalType": "address",
          "name": "user",
          "type": "address"
        }
      ],
      "name": "hasTicketInRaffle",
      "outputs": [
        {
          "internalType": "bool",
          "name": "hasTicket",
          "type": "bool"
        }
      ],
      "stateMutability": "view",
      "type": "function"
    },
    {
      "inputs": [],
      "name": "nextRaffleId",
      "outputs": [
        {
          "internalType": "uint256",
          "name": "",
          "type": "uint256"
        }
      ],
      "stateMutability": "view",
      "type": "function"
    },
    {
      "inputs": [],
      "name": "owner",
      "outputs": [
        {
          "internalType": "address",
          "name": "",
          "type": "address"
        }
      ],
      "stateMutability": "view",
      "type": "function"
    },
    {
      "inputs": [],
      "name": "pause",
      "outputs": [],
      "stateMutability": "nonpayable",
      "type": "function"
    },
    {
      "inputs": [],
      "name": "paused",
      "outputs": [
        {
          "internalType": "bool",
          "name": "",
          "type": "bool"
        }
      ],
      "stateMutability": "view",
      "type": "function"
    },
    {
      "inputs": [
        {
          "internalType": "uint256",
          "name": "",
          "type": "uint256"
        }
      ],
      "name": "raffles",
      "outputs": [
        {
          "internalType": "uint256",
          "name": "id",
          "type": "uint256"
        },
        {
          "internalType": "uint256",
          "name": "ticketPrice",
          "type": "uint256"
        },
        {
          "internalType": "uint256",
          "name": "maxTickets",
          "type": "uint256"
        },
        {
          "internalType": "uint256",
          "name": "minTickets",
          "type": "uint256"
        },
        {
          "internalType": "uint256",
          "name": "currentTickets",
          "type": "uint256"
        },
        {
          "internalType": "uint256",
          "name": "expiresAt",
          "type": "uint256"
        },
        {
          "internalType": "enum RifasPlatform.RaffleStatus",
          "name": "status",
          "type": "uint8"
        },
        {
          "internalType": "uint256",
          "name": "vrfRequestId",
          "type": "uint256"
        },
        {
          "internalType": "uint256",
          "name": "templateId",
          "type": "uint256"
        },
        {
          "internalType": "uint256",
          "name": "refundsCompleted",
          "type": "uint256"
        }
      ],
      "stateMutability": "view",
      "type": "function"
    },
    {
      "inputs": [
        {
          "internalType": "uint256",
          "name": "requestId",
          "type": "uint256"
        },
        {
          "internalType": "uint256[]",
          "name": "randomWords",
          "type": "uint256[]"
        }
      ],
      "name": "rawFulfillRandomWords",
      "outputs": [],
      "stateMutability": "nonpayable",
      "type": "function"
    },
    {
      "inputs": [
        {
          "internalType": "address",
          "name": "addr",
          "type": "address"
        }
      ],
      "name": "removeFromBlocklist",
      "outputs": [],
      "stateMutability": "nonpayable",
      "type": "function"
    },
    {
      "inputs": [],
      "name": "renounceOwnership",
      "outputs": [],
      "stateMutability": "nonpayable",
      "type": "function"
    },
    {
      "inputs": [
        {
          "internalType": "uint256",
          "name": "raffleId",
          "type": "uint256"
        }
      ],
      "name": "retryRandomness",
      "outputs": [],
      "stateMutability": "nonpayable",
      "type": "function"
    },
    {
      "inputs": [
        {
          "internalType": "uint256",
          "name": "startId",
          "type": "uint256"
        },
        {
          "internalType": "uint256",
          "name": "endId",
          "type": "uint256"
        }
      ],
      "name": "scanRaffles",
      "outputs": [
        {
          "internalType": "uint256[]",
          "name": "ids",
          "type": "uint256[]"
        },
        {
          "internalType": "enum RifasPlatform.RaffleStatus[]",
          "name": "statuses",
          "type": "uint8[]"
        }
      ],
      "stateMutability": "view",
      "type": "function"
    },
    {
      "inputs": [],
      "name": "totalPlatformFees",
      "outputs": [
        {
          "internalType": "uint256",
          "name": "",
          "type": "uint256"
        }
      ],
      "stateMutability": "view",
      "type": "function"
    },
    {
      "inputs": [
        {
          "internalType": "address",
          "name": "newOwner",
          "type": "address"
        }
      ],
      "name": "transferOwnership",
      "outputs": [],
      "stateMutability": "nonpayable",
      "type": "function"
    },
    {
      "inputs": [],
      "name": "unpause",
      "outputs": [],
      "stateMutability": "nonpayable",
      "type": "function"
    },
    {
      "inputs": [],
      "name": "usdtToken",
      "outputs": [
        {
          "internalType": "contract IERC20",
          "name": "",
          "type": "address"
        }
      ],
      "stateMutability": "view",
      "type": "function"
    },
    {
      "inputs": [
        {
          "internalType": "uint256",
          "name": "",
          "type": "uint256"
        }
      ],
      "name": "vrfRequestToRaffleId",
      "outputs": [
        {
          "internalType": "uint256",
          "name": "",
          "type": "uint256"
        }
      ],
      "stateMutability": "view",
      "type": "function"
    },
    {
      "inputs": [],
      "name": "withdrawPlatformFees",
      "outputs": [],
      "stateMutability": "nonpayable",
      "type": "function"
    }
  ],
  "bytecode": "0x6101006040526001600355348015610015575f5ffd5b50604051613ae9380380613ae9833981016040819052610034916102c7565b82338061005b57604051631e4fbdf760e01b81525f60048201526024015b60405180910390fd5b6100648161025d565b50600180556001600160a01b0390811660805284166100c55760405162461bcd60e51b815260206004820152601460248201527f496e76616c6964205553445420616464726573730000000000000000000000006044820152606401610052565b6001600160a01b03831661011b5760405162461bcd60e51b815260206004820152601760248201527f496e76616c69642056524620636f6f7264696e61746f720000000000000000006044820152606401610052565b6001600160a01b03841660a08190526040805163313ce56760e01b8152905163313ce567916004808201926020929091908290030181865afa925050508015610181575060408051601f3d908101601f1916820190925261017e9181019061031d565b60015b6101cd5760405162461bcd60e51b815260206004820152601e60248201527f55534454206d75737420696d706c656d656e7420646563696d616c73282900006044820152606401610052565b8060ff166012146102205760405162461bcd60e51b815260206004820152601960248201527f55534454206d7573742075736520313820646563696d616c73000000000000006044820152606401610052565b50600280546001600160a01b0390941661010002610100600160a81b0319909416939093179092556001600160401b031660c05260e05250610344565b5f80546001600160a01b038381166001600160a01b0319831681178455604051919092169283917f8be0079c531659141344cd1fd0a4f28419497f9722a3daafe3b4186f6b6457e09190a35050565b80516001600160a01b03811681146102c2575f5ffd5b919050565b5f5f5f5f608085870312156102da575f5ffd5b6102e3856102ac565b93506102f1602086016102ac565b60408601519093506001600160401b038116811461030d575f5ffd5b6060959095015193969295505050565b5f6020828403121561032d575f5ffd5b815160ff8116811461033d575f5ffd5b9392505050565b60805160a05160c05160e0516137336103b65f395f612a5a01525f612a8801525f81816104820152818161061a0152818161082f0152818161132f0152818161163601528181611df401528181611f48015281816122120152612ce001525f81816106b001526106f201526137335ff3fe608060405234801561000f575f5ffd5b506004361061023f575f3560e01c80638458e3e411610135578063d0b7830b116100b4578063e4dafec911610079578063e4dafec914610559578063e5c7160b1461057f578063e808f34b146105a1578063ee59777e146105c1578063f2fde38b146105e2575f5ffd5b8063d0b7830b14610524578063d3631fa51461052c578063d665b67d14610535578063e1f1c4a71461053d578063e4be261d14610546575f5ffd5b8063af0e59bc116100fa578063af0e59bc146104a4578063b678b370146104b7578063bc41082e146104d6578063c47ca91b146104e9578063cc7ed02c146104fc575f5ffd5b80638458e3e41461042a5780638527d58f146104335780638da5cb5b14610446578063a314637e1461046a578063a98ad46c1461047d575f5ffd5b806351858e27116101c157806360314b1f1161018657806360314b1f146103eb57806366ea762c146103f457806367dd74ca14610407578063715018a61461041a5780638456cb5914610422575f5ffd5b806351858e2714610338578063592ca850146103405780635c975abb146103535780635d4bc0ce1461035e5780635fba3171146103d8575f5ffd5b806324f65ee71161020757806324f65ee7146102da578063348e4774146102f4578063350c6c44146103155780633f4ba83a146103285780634a4e3bd514610330575f5ffd5b80630333ac9e146102435780631fe543e3146102725780631ff6da211461028757806323d1b06c146102aa5780632463bef6146102c7575b5f5ffd5b61024b6105f5565b60408051941515855260208501939093529183015260608201526080015b60405180910390f35b610285610280366004612f0d565b6106a5565b005b61029a610295366004612ff9565b610732565b6040519015158152602001610269565b6102b9670de0b6b3a764000081565b604051908152602001610269565b6102b96102d5366004613023565b6107bc565b6102e261082c565b60405160ff9091168152602001610269565b61030761030236600461303a565b6108b2565b604051610269929190613081565b6102b96103233660046130a3565b61096d565b610285610c0d565b610285610c1f565b610285610c5d565b61028561034e36600461303a565b610c9b565b60025460ff1661029a565b6103c261036c366004613023565b600660208190525f9182526040909120805460018201546002830154600384015460048501546005860154968601546009870154600a880154600b9098015496989597949693959294929360ff9092169290918a565b6040516102699a99989796959493929190613116565b6102856103e6366004613023565b610da1565b6102b960055481565b610285610402366004613023565b610f10565b610285610415366004613023565b6110fe565b61028561140c565b61028561141d565b6102b960035481565b61028561044136600461316f565b61142d565b5f546001600160a01b03165b6040516001600160a01b039091168152602001610269565b61028561047836600461318f565b6116da565b6104527f000000000000000000000000000000000000000000000000000000000000000081565b6102856104b2366004613023565b6117d4565b6102b96104c5366004613023565b60076020525f908152604090205481565b6102856104e4366004613252565b61191a565b6102856104f7366004613290565b611b15565b610504611dd3565b604080519485526020850193909352918301526060820152608001610269565b610285611ed4565b6102b960045481565b6102b960c881565b6102b961271081565b610285610554366004613023565b611fc4565b61056c610567366004613023565b61239b565b60405161026997969594939291906132fa565b61029a61058d36600461303a565b60086020525f908152604090205460ff1681565b6105b46105af36600461303a565b612443565b604051610269919061333b565b6105d46105cf36600461316f565b6124da565b60405161026992919061334d565b6102856105f036600461303a565b61271a565b6040516370a0823160e01b81523060048201525f908190819081906001600160a01b037f000000000000000000000000000000000000000000000000000000000000000016906370a0823190602401602060405180830381865afa15801561065f573d5f5f3e3d5ffd5b505050506040513d601f19601f8201168201806040525081019061068391906133d5565b6005546004549194509250905061069a8183613400565b831015935090919293565b336001600160a01b037f000000000000000000000000000000000000000000000000000000000000000016146107245760405163073e64fd60e21b81523360048201526001600160a01b037f00000000000000000000000000000000000000000000000000000000000000001660248201526044015b60405180910390fd5b61072e8282612754565b5050565b5f825f81118015610744575060035481105b6107605760405162461bcd60e51b815260040161071b90613419565b5f81815260066020526040812054900361078c5760405162461bcd60e51b815260040161071b90613448565b50505f9182526006602090815260408084206001600160a01b039390931684526008909201905290205460ff1690565b5f815f811180156107ce575060035481105b6107ea5760405162461bcd60e51b815260040161071b90613419565b5f8181526006602052604081205490036108165760405162461bcd60e51b815260040161071b90613448565b50505f9081526006602052604090206009015490565b5f7f00000000000000000000000000000000000000000000000000000000000000006001600160a01b031663313ce5676040518163ffffffff1660e01b8152600401602060405180830381865afa158015610889573d5f5f3e3d5ffd5b505050506040513d601f19601f820116820180604052508101906108ad919061347f565b905090565b6001600160a01b0381165f908152600860209081526040808320546009909252909120805460ff90921691606091906108ea9061349f565b80601f01602080910402602001604051908101604052809291908181526020018280546109169061349f565b80156109615780601f1061093857610100808354040283529160200191610961565b820191905f5260205f20905b81548152906001019060200180831161094457829003601f168201915b50505050509050915091565b5f61097661284a565b61097e612876565b61098661289a565b5f85116109d55760405162461bcd60e51b815260206004820152601d60248201527f5469636b6574207072696365206d75737420626520706f736974697665000000604482015260640161071b565b5f8411610a245760405162461bcd60e51b815260206004820152601c60248201527f4d6178207469636b657473206d75737420626520706f73697469766500000000604482015260640161071b565b5f83118015610a335750838311155b610a755760405162461bcd60e51b8152602060048201526013602482015272496e76616c6964206d696e207469636b65747360681b604482015260640161071b565b5f8211610ac45760405162461bcd60e51b815260206004820152601960248201527f4475726174696f6e206d75737420626520706f73697469766500000000000000604482015260640161071b565b5f610acf86856134d7565b90505f610adb826128c4565b9050808211610b415760405162461bcd60e51b815260206004820152602c60248201527f4d696e20706f6f6c20696e73756666696369656e7420746f20636f766572207060448201526b6c6174666f726d206665657360a01b606482015260840161071b565b60038054905f610b50836134ee565b909155505f818152600660205260408120828155600181018a905560028101899055600381018890556004810191909155909350610b8e8542613400565b6005820181905560068201805460ff19169055600a82018b9055604080518a8152602081018a9052908101889052606081019190915289908b9086907f8fc4432049bb3dc4624db5e2842ce62f3644222ed3d957d67f940b56b85c9c8a9060800160405180910390a4505050610c0360018055565b9695505050505050565b610c1561284a565b610c1d6128f9565b565b610c2761284a565b610c2f6128f9565b604051429033907fdacac23d353cc4fe05be85350ed1e8227ed9edf2323b7cb5aad3174e6a9ce1d6905f90a3565b610c6561284a565b610c6d61294b565b604051429033907f2e31b3b12b9bb0e82c32f27df5f234fabc95a374f54fd287a7132878d5dc9fc3905f90a3565b610ca361284a565b610cab61289a565b6001600160a01b038116610cd15760405162461bcd60e51b815260040161071b90613506565b6001600160a01b0381165f9081526008602052604090205460ff16610d2e5760405162461bcd60e51b81526020600482015260136024820152721059191c995cdcc81b9bdd08189b1bd8dad959606a1b604482015260640161071b565b6001600160a01b0381165f908152600860209081526040808320805460ff1916905560099091528120610d6091612e93565b60405142906001600160a01b038316907f0ccaefd9d2631e53c2ba7f5e4a105d4b2921b85e7e4b0170f946dce574c11c18905f90a3610d9e60018055565b50565b610da961284a565b805f81118015610dba575060035481105b610dd65760405162461bcd60e51b815260040161071b90613419565b5f818152600660205260408120549003610e025760405162461bcd60e51b815260040161071b90613448565b610e0a61289a565b5f82815260066020526040812090600682015460ff166003811115610e3157610e316130e2565b1480610e5557506001600682015460ff166003811115610e5357610e536130e2565b145b610eb45760405162461bcd60e51b815260206004820152602a60248201527f43616e206f6e6c792063616e63656c2046494c4c494e47206f722044524157496044820152694e4720726166666c657360b01b606482015260840161071b565b6001600682015460ff166003811115610ecf57610ecf6130e2565b148015610edf5750600981015415155b15610efd576009810180545f90815260076020526040812081905590555b610f0683612988565b5061072e60018055565b610f1861284a565b805f81118015610f29575060035481105b610f455760405162461bcd60e51b815260040161071b90613419565b5f818152600660205260408120549003610f715760405162461bcd60e51b815260040161071b90613448565b610f7961289a565b610f81612876565b5f82815260066020526040812090600682015460ff166003811115610fa857610fa86130e2565b14610ff55760405162461bcd60e51b815260206004820152601c60248201527f526166666c65206e6f7420696e2066696c6c696e672073746174757300000000604482015260640161071b565b80600201548160040154148061102257508060050154421015801561102257508060030154816004015410155b61106e5760405162461bcd60e51b815260206004820152601e60248201527f526166666c65206e6f7420726561647920666f7220657865637574696f6e0000604482015260640161071b565b5f8160010154826004015461108391906134d7565b90505f61108f826128c4565b90508181106110d95760068301805460ff1916600317905560405185907f7fa78bab5d5570f162c69234a3f4d1b9294fd5bca72219cb16c1fe38839ccb8a905f90a25050506110f5565b60068301805460ff191660011790556110f1856129d3565b5050505b61072e60018055565b805f8111801561110f575060035481105b61112b5760405162461bcd60e51b815260040161071b90613419565b5f8181526006602052604081205490036111575760405162461bcd60e51b815260040161071b90613448565b815f5f828152600660208190526040909120015460ff16600381111561117f5761117f6130e2565b146111cc5760405162461bcd60e51b815260206004820152601c60248201527f526166666c65206e6f7420616363657074696e67207469636b65747300000000604482015260640161071b565b6111d461289a565b6111dc612876565b5f83815260066020908152604080832033845260089092529091205460ff161561123a5760405162461bcd60e51b815260206004820152600f60248201526e1059191c995cdcc8189b1bd8dad959608a1b604482015260640161071b565b8060050154421061127e5760405162461bcd60e51b815260206004820152600e60248201526d149859999b1948195e1c1a5c995960921b604482015260640161071b565b335f90815260088201602052604090205460ff16156112d45760405162461bcd60e51b8152602060048201526012602482015271105b1c9958591e481a185cc81d1a58dad95d60721b604482015260640161071b565b806002015481600401541061131c5760405162461bcd60e51b815260206004820152600e60248201526d149859999b19481a5cc8199d5b1b60921b604482015260640161071b565b6001810154611359906001600160a01b037f0000000000000000000000000000000000000000000000000000000000000000169033903090612b66565b600781018054600181810183555f928352602080842090920180546001600160a01b0319163390811790915583526008840190915260408220805460ff19169091179055600482018054916113ad836134ee565b9190505550806001015460055f8282546113c79190613400565b90915550506004810154604051339086907f913d09b391f64143215d9312fd7e8ecaa06001c646789c9d2109dc515bc34fad905f90a45061140760018055565b505050565b61141461284a565b610c1d5f612bcd565b61142561284a565b610c1d61294b565b815f8111801561143e575060035481105b61145a5760405162461bcd60e51b815260040161071b90613419565b5f8181526006602052604081205490036114865760405162461bcd60e51b815260040161071b90613448565b61148e61289a565b5f8381526006602052604090206003600682015460ff1660038111156114b6576114b66130e2565b146114fa5760405162461bcd60e51b8152602060048201526014602482015273149859999b19481b9bdd0818d85b98d95b1b195960621b604482015260640161071b565b5f8311801561150d575080600401548311155b6115515760405162461bcd60e51b815260206004820152601560248201527424b73b30b634b2103a34b1b5b2ba10373ab6b132b960591b604482015260640161071b565b5f61155d60018561352f565b9050336001600160a01b031682600701828154811061157e5761157e613542565b5f918252602090912001546001600160a01b0316146115d15760405162461bcd60e51b815260206004820152600f60248201526e139bdd081e5bdd5c881d1a58dad95d608a1b604482015260640161071b565b335f90815260088301602052604090205460ff166116245760405162461bcd60e51b815260206004820152601060248201526f105b1c9958591e481c99599d5b99195960821b604482015260640161071b565b600182015461165d6001600160a01b037f0000000000000000000000000000000000000000000000000000000000000000163383612c1c565b335f9081526008840160205260408120805460ff19169055600b8401805491611685836134ee565b91905055508060055f82825461169b919061352f565b90915550506040518190339088907f7a482fdeb6bc9a1376f597068a214a7a39472bb2eff1b8cad21ba04f49ddca1b905f90a450505061140760018055565b6116e261284a565b6116ea61289a565b6001600160a01b0383166117105760405162461bcd60e51b815260040161071b90613506565b8061174f5760405162461bcd60e51b815260206004820152600f60248201526e1499585cdbdb881c995c5d5a5c9959608a1b604482015260640161071b565b6001600160a01b0383165f908152600860209081526040808320805460ff191660011790556009909152902061178682848361359a565b5042836001600160a01b03167f5773bf4e7c421b9769b61bdf7ee064c30bfa3244c26f78e3dcbf9a3764f0278c84846040516117c3929190613653565b60405180910390a361140760018055565b6117dc61284a565b805f811180156117ed575060035481105b6118095760405162461bcd60e51b815260040161071b90613419565b5f8181526006602052604081205490036118355760405162461bcd60e51b815260040161071b90613448565b61183d61289a565b611845612876565b5f8281526006602052604090206001600682015460ff16600381111561186d5761186d6130e2565b146118ba5760405162461bcd60e51b815260206004820152601c60248201527f526166666c65206e6f7420696e2064726177696e672073746174757300000000604482015260640161071b565b6009810154156118d85760098101545f908152600760205260408120555b6118e1836129d3565b600981015460405184907fab13c26ee0c8434df83350b0f67d7ee67ecd0bc6b13440853b3150614579f795905f90a35061072e60018055565b61192261284a565b61192a61289a565b5f5b81811015610f06575f83838381811061194757611947613542565b602090810292909201355f8181526006909352604090922091925060029050600682015460ff16600381111561197f5761197f6130e2565b14806119a357506003600682015460ff1660038111156119a1576119a16130e2565b145b611a045760405162461bcd60e51b815260206004820152602c60248201527f43616e206f6e6c79206172636869766520636f6d706c657465642f63616e636560448201526b6c6c656420726166666c657360a01b606482015260840161071b565b6003600682015460ff166003811115611a1f57611a1f6130e2565b03611a8957806004015481600b015414611a895760405162461bcd60e51b815260206004820152602560248201527f43616e6e6f7420617263686976653a2070656e64696e6720726566756e647320604482015264195e1a5cdd60da1b606482015260840161071b565b600981015415611aa75760098101545f908152600760205260408120555b5f82815260066020819052604082208281556001810183905560028101839055600381018390556004810183905560058101839055908101805460ff1916905590611af56007830182612eca565b505f60098201819055600a8201819055600b90910155505060010161192c565b611b1d61284a565b611b2561289a565b6064831115611b6a5760405162461bcd60e51b815260206004820152601160248201527009ac2f04062606040e0cae440c4c2e8c6d607b1b604482015260640161071b565b828114611bab5760405162461bcd60e51b815260206004820152600f60248201526e098cadccee8d040dad2e6dac2e8c6d608b1b604482015260640161071b565b5f5b83811015611dc3575f858583818110611bc857611bc8613542565b9050602002016020810190611bdd919061303a565b6001600160a01b031603611c035760405162461bcd60e51b815260040161071b90613506565b5f838383818110611c1657611c16613542565b9050602002810190611c289190613681565b905011611c695760405162461bcd60e51b815260206004820152600f60248201526e1499585cdbdb881c995c5d5a5c9959608a1b604482015260640161071b565b600160085f878785818110611c8057611c80613542565b9050602002016020810190611c95919061303a565b6001600160a01b0316815260208101919091526040015f20805460ff1916911515919091179055828282818110611cce57611cce613542565b9050602002810190611ce09190613681565b60095f888886818110611cf557611cf5613542565b9050602002016020810190611d0a919061303a565b6001600160a01b0316815260208101919091526040015f2091611d2e91908361359a565b5042858583818110611d4257611d42613542565b9050602002016020810190611d57919061303a565b6001600160a01b03167f5773bf4e7c421b9769b61bdf7ee064c30bfa3244c26f78e3dcbf9a3764f0278c858585818110611d9357611d93613542565b9050602002810190611da59190613681565b604051611db3929190613653565b60405180910390a3600101611bad565b50611dcd60018055565b50505050565b5f5f5f5f611ddf61284a565b6040516370a0823160e01b81523060048201527f00000000000000000000000000000000000000000000000000000000000000006001600160a01b0316906370a0823190602401602060405180830381865afa158015611e41573d5f5f3e3d5ffd5b505050506040513d601f19601f82011682018060405250810190611e6591906133d5565b60045460055491955093509150829050611e7f8183613400565b841015611ece5760405162461bcd60e51b815260206004820152601d60248201527f4163636f756e74696e6720696e76617269616e742076696f6c61746564000000604482015260640161071b565b90919293565b611edc61284a565b611ee461289a565b60045480611f2a5760405162461bcd60e51b81526020600482015260136024820152724e6f206665657320746f20776974686472617760681b604482015260640161071b565b611f6f611f3e5f546001600160a01b031690565b6001600160a01b037f0000000000000000000000000000000000000000000000000000000000000000169083612c1c565b5f60045580611f855f546001600160a01b031690565b6001600160a01b03167ffc7ad544ff6a06d6499925723d25b6fe70457a42939995b1d3d6f560fe33633360405160405180910390a350610c1d60018055565b611fcc61284a565b805f81118015611fdd575060035481105b611ff95760405162461bcd60e51b815260040161071b90613419565b5f8181526006602052604081205490036120255760405162461bcd60e51b815260040161071b90613448565b61202d61289a565b5f82815260066020526040812090600682015460ff166003811115612054576120546130e2565b146120a15760405162461bcd60e51b815260206004820152601c60248201527f526166666c65206e6f7420696e2066696c6c696e672073746174757300000000604482015260640161071b565b80600501544210156120ea5760405162461bcd60e51b8152602060048201526012602482015271149859999b19481b9bdd08195e1c1a5c995960721b604482015260640161071b565b80600301548160040154106121415760405162461bcd60e51b815260206004820152601a60248201527f4d65657473206d696e696d756d207061727469636970616e7473000000000000604482015260640161071b565b6064816004015411156121a85760405162461bcd60e51b815260206004820152602960248201527f546f6f206d616e79207469636b6574732c2075736520636c61696d526566756e60448201526819081a5b9cdd19585960ba1b606482015260840161071b565b5f80805b83600401548110156122bd575f8460070182815481106121ce576121ce613542565b5f9182526020808320909101546001600160a01b03168083526008880190915260409091205490915060ff16156122b457600185015461223a906001600160a01b037f000000000000000000000000000000000000000000000000000000000000000016908390612c1c565b6001600160a01b0381165f9081526008860160205260409020805460ff19169055600185015461226a9085613400565b9350612275836134ee565b92508460010154816001600160a01b0316887f7a482fdeb6bc9a1376f597068a214a7a39472bb2eff1b8cad21ba04f49ddca1b60405160405180910390a45b506001016121ac565b508160055f8282546122cf919061352f565b90915550506040518290829087907f4ec7e56c3033a6bd83b9349e021aec6978d1fb9d8aa84ee11e0cf7a996fc0407905f90a460405185907f7fa78bab5d5570f162c69234a3f4d1b9294fd5bca72219cb16c1fe38839ccb8a905f90a25f85815260066020819052604082208281556001810183905560028101839055600381018390556004810183905560058101839055908101805460ff191690559061237a6007830182612eca565b505f60098201819055600a8201819055600b90910155505060018055505050565b5f5f5f5f5f5f5f875f811180156123b3575060035481105b6123cf5760405162461bcd60e51b815260040161071b90613419565b5f8181526006602052604081205490036123fb5760405162461bcd60e51b815260040161071b90613448565b5050505f95865250506006602081905260409094208054600182015460028301546003840154600485015460058601549590990154939992989197509550935060ff90911690565b60096020525f90815260409020805461245b9061349f565b80601f01602080910402602001604051908101604052809291908181526020018280546124879061349f565b80156124d25780601f106124a9576101008083540402835291602001916124d2565b820191905f5260205f20905b8154815290600101906020018083116124b557829003601f168201915b505050505081565b6060806124e561284a565b8284106125245760405162461bcd60e51b815260206004820152600d60248201526c496e76616c69642072616e676560981b604482015260640161071b565b6003548311156125765760405162461bcd60e51b815260206004820152601860248201527f456e642065786365656473206e657874526166666c6549640000000000000000604482015260640161071b565b5f612581858561352f565b90506103e88111156125d55760405162461bcd60e51b815260206004820152601a60248201527f52616e676520746f6f206c6172676520286d6178203130303029000000000000604482015260640161071b565b806001600160401b038111156125ed576125ed612ef9565b604051908082528060200260200182016040528015612616578160200160208202803683370190505b509250806001600160401b0381111561263157612631612ef9565b60405190808252806020026020018201604052801561265a578160200160208202803683370190505b5091505f855b8581101561270a575f8181526006602052604090205415612702578085838151811061268e5761268e613542565b6020908102919091018101919091525f828152600691829052604090200154845160ff909116908590849081106126c7576126c7613542565b602002602001019060038111156126e0576126e06130e2565b908160038111156126f3576126f36130e2565b9052506126ff826134ee565b91505b600101612660565b5080845280835250509250929050565b61272261284a565b6001600160a01b03811661274b57604051631e4fbdf760e01b81525f600482015260240161071b565b610d9e81612bcd565b5f82815260076020526040812054908190036127a75760405162461bcd60e51b8152602060048201526012602482015271125b9d985b1a59081c995c5d595cdd08125160721b604482015260640161071b565b5f8181526006602052604090206001600682015460ff1660038111156127cf576127cf6130e2565b1461281c5760405162461bcd60e51b815260206004820152601c60248201527f526166666c65206e6f7420696e2064726177696e672073746174757300000000604482015260640161071b565b5f835f8151811061282f5761282f613542565b602002602001015190506128438382612c4d565b5050505050565b5f546001600160a01b03163314610c1d5760405163118cdaa760e01b815233600482015260240161071b565b60025460ff1615610c1d5760405163d93c066560e01b815260040160405180910390fd5b6002600154036128bd57604051633ee5aeb560e01b815260040160405180910390fd5b6002600155565b5f806127106128d460c8856134d7565b6128de91906136d7565b90506128f281670de0b6b3a7640000613400565b9392505050565b612901612e04565b6002805460ff191690557f5db9ee0a495bf2e6ff9c91a7834c1ba4fdd244a5e8aa4e537bd38aeae4b073aa335b6040516001600160a01b03909116815260200160405180910390a1565b612953612876565b6002805460ff191660011790557f62e78cea01bee320cd4e420270b5ea74000d11b0c9f74754ebdbfc544b05a25861292e3390565b5f818152600660208190526040808320918201805460ff1916600317905551909183917f7fa78bab5d5570f162c69234a3f4d1b9294fd5bca72219cb16c1fe38839ccb8a9190a25050565b5f8181526006602052604090206001600682015460ff1660038111156129fb576129fb6130e2565b14612a485760405162461bcd60e51b815260206004820181905260248201527f526166666c65206d75737420626520696e2044524157494e4720737461747573604482015260640161071b565b6002546040516305d3b1d360e41b81527f000000000000000000000000000000000000000000000000000000000000000060048201526001600160401b037f0000000000000000000000000000000000000000000000000000000000000000166024820152600360448201526203d0906064820152600160848201525f9161010090046001600160a01b031690635d3b1d309060a4016020604051808303815f875af1158015612afa573d5f5f3e3d5ffd5b505050506040513d601f19601f82011682018060405250810190612b1e91906133d5565b600983018190555f8181526007602052604080822086905551919250829185917f3d94fecedaa4f90b8bd459797adb95f5bb11426025c5541390d9ccc1ad1b60a191a3505050565b6040516001600160a01b038481166024830152838116604483015260648201839052611dcd9186918216906323b872dd906084015b604051602081830303815290604052915060e01b6020820180516001600160e01b038381831617835250505050612e27565b5f80546001600160a01b038381166001600160a01b0319831681178455604051919092169283917f8be0079c531659141344cd1fd0a4f28419497f9722a3daafe3b4186f6b6457e09190a35050565b6040516001600160a01b0383811660248301526044820183905261140791859182169063a9059cbb90606401612b9b565b5f82815260066020526040812060048101546001820154919291612c7191906134d7565b90505f612c7d826128c4565b90505f612c8a828461352f565b600a8501546009860154600487015492935090915f90612caa90896136ea565b90505f876007018281548110612cc257612cc2613542565b5f918252602090912001546001600160a01b039081169150612d07907f0000000000000000000000000000000000000000000000000000000000000000168287612c1c565b8560045f828254612d189190613400565b925050819055508660055f828254612d30919061352f565b909155505060408051868152602081018890529081018a90526001600160a01b0382169085908c907fd3a62d4818ae90e3fa377a41a384af90b8a070e4b4ca5bf8ce3382ad664085eb9060600160405180910390a45f8381526007602081815260408084208490558d845260069182905283208381556001810184905560028101849055600381018490556004810184905560058101849055908101805460ff191690559190612de290830182612eca565b505f60098201819055600a8201819055600b9091015550505050505050505050565b60025460ff16610c1d57604051638dfc202b60e01b815260040160405180910390fd5b5f5f60205f8451602086015f885af180612e46576040513d5f823e3d81fd5b50505f513d91508115612e5d578060011415612e6a565b6001600160a01b0384163b155b15611dcd57604051635274afe760e01b81526001600160a01b038516600482015260240161071b565b508054612e9f9061349f565b5f825580601f10612eae575050565b601f0160209004905f5260205f2090810190610d9e9190612ee1565b5080545f8255905f5260205f2090810190610d9e91905b5b80821115612ef5575f8155600101612ee2565b5090565b634e487b7160e01b5f52604160045260245ffd5b5f5f60408385031215612f1e575f5ffd5b8235915060208301356001600160401b03811115612f3a575f5ffd5b8301601f81018513612f4a575f5ffd5b80356001600160401b03811115612f6357612f63612ef9565b8060051b604051601f19603f83011681018181106001600160401b0382111715612f8f57612f8f612ef9565b604052918252602081840181019290810188841115612fac575f5ffd5b6020850194505b83851015612fcf57843580825260209586019590935001612fb3565b50809450505050509250929050565b80356001600160a01b0381168114612ff4575f5ffd5b919050565b5f5f6040838503121561300a575f5ffd5b8235915061301a60208401612fde565b90509250929050565b5f60208284031215613033575f5ffd5b5035919050565b5f6020828403121561304a575f5ffd5b6128f282612fde565b5f81518084528060208401602086015e5f602082860101526020601f19601f83011685010191505092915050565b8215158152604060208201525f61309b6040830184613053565b949350505050565b5f5f5f5f5f5f60c087890312156130b8575f5ffd5b505084359660208601359650604086013595606081013595506080810135945060a0013592509050565b634e487b7160e01b5f52602160045260245ffd5b6004811061311257634e487b7160e01b5f52602160045260245ffd5b9052565b5f610140820190508b82528a60208301528960408301528860608301528760808301528660a083015261314c60c08301876130f6565b8460e083015283610100830152826101208301529b9a5050505050505050505050565b5f5f60408385031215613180575f5ffd5b50508035926020909101359150565b5f5f5f604084860312156131a1575f5ffd5b6131aa84612fde565b925060208401356001600160401b038111156131c4575f5ffd5b8401601f810186136131d4575f5ffd5b80356001600160401b038111156131e9575f5ffd5b8660208284010111156131fa575f5ffd5b939660209190910195509293505050565b5f5f83601f84011261321b575f5ffd5b5081356001600160401b03811115613231575f5ffd5b6020830191508360208260051b850101111561324b575f5ffd5b9250929050565b5f5f60208385031215613263575f5ffd5b82356001600160401b03811115613278575f5ffd5b6132848582860161320b565b90969095509350505050565b5f5f5f5f604085870312156132a3575f5ffd5b84356001600160401b038111156132b8575f5ffd5b6132c48782880161320b565b90955093505060208501356001600160401b038111156132e2575f5ffd5b6132ee8782880161320b565b95989497509550505050565b5f60e0820190508882528760208301528660408301528560608301528460808301528360a083015261332f60c08301846130f6565b98975050505050505050565b602081525f6128f26020830184613053565b604080825283519082018190525f9060208501906060840190835b81811015613386578351835260209384019390920191600101613368565b5050838103602080860191909152855180835291810192508501905f5b818110156133c9576133b68484516130f6565b60209384019392909201916001016133a3565b50919695505050505050565b5f602082840312156133e5575f5ffd5b5051919050565b634e487b7160e01b5f52601160045260245ffd5b80820180821115613413576134136133ec565b92915050565b602080825260159082015274149859999b1948191bd95cc81b9bdd08195e1a5cdd605a1b604082015260600190565b60208082526018908201527f526166666c6520686173206265656e2061726368697665640000000000000000604082015260600190565b5f6020828403121561348f575f5ffd5b815160ff811681146128f2575f5ffd5b600181811c908216806134b357607f821691505b6020821081036134d157634e487b7160e01b5f52602260045260245ffd5b50919050565b8082028115828204841417613413576134136133ec565b5f600182016134ff576134ff6133ec565b5060010190565b6020808252600f908201526e496e76616c6964206164647265737360881b604082015260600190565b81810381811115613413576134136133ec565b634e487b7160e01b5f52603260045260245ffd5b601f82111561140757805f5260205f20601f840160051c8101602085101561357b5750805b601f840160051c820191505b81811015612843575f8155600101613587565b6001600160401b038311156135b1576135b1612ef9565b6135c5836135bf835461349f565b83613556565b5f601f8411600181146135f6575f85156135df5750838201355b5f19600387901b1c1916600186901b178355612843565b5f83815260208120601f198716915b828110156136255786850135825560209485019460019092019101613605565b5086821015613641575f1960f88860031b161c19848701351681555b505060018560011b0183555050505050565b60208152816020820152818360408301375f818301604090810191909152601f909201601f19160101919050565b5f5f8335601e19843603018112613696575f5ffd5b8301803591506001600160401b038211156136af575f5ffd5b60200191503681900382131561324b575f5ffd5b634e487b7160e01b5f52601260045260245ffd5b5f826136e5576136e56136c3565b500490565b5f826136f8576136f86136c3565b50069056fea264697066735822122036836872b02430e4178707e619154967afb64cd14254fcd205033a33bd23fb7f64736f6c634300081c0033",
  "linkReferences": {},
  "deployedLinkReferences": {},
  "immutableReferences": {
    "10": [
      {
        "length": 32,
        "start": 1712
      },
      {
        "length": 32,
        "start": 1778
      }
    ],
    "1998": [
      {
        "length": 32,
        "start": 1154
      },
      {
        "length": 32,
        "start": 1562
      },
      {
        "length": 32,
        "start": 2095
      },
      {
        "length": 32,
        "start": 4911
      },
      {
        "length": 32,
        "start": 5686
      },
      {
        "length": 32,
        "start": 7668
      },
      {
        "length": 32,
        "start": 8008
      },
      {
        "length": 32,
        "start": 8722
      },
      {
        "length": 32,
        "start": 11488
      }
    ],
    "2012": [
      {
        "length": 32,
        "start": 10888
      }
    ],
    "2014": [
      {
        "length": 32,
        "start": 10842
      }
    ]
  },
  "inputSourceName": "project/contracts/RifasPlatform.sol",
  "buildInfoId": "solc-0_8_28-1d3f7634e6fd3014a6c5315bb088d365c33e75dc"
}