{
  "_format": "hh3-artifact-1",
  "contractName": "RifasPlatform",
  "sourceName": "contracts/RifasPlatform.sol",
  "abi": [
    {
      "inputs": [
        {
          "internalType": "address",
          "name": "_usdtToken",
          "type": "address"
        },
        {
          "internalType": "address",
          "name": "_vrfCoordinator",
          "type": "address"
        },
        {
          "internalType": "uint64",
          "name": "_subscriptionId",
          "type": "uint64"
        },
        {
          "internalType": "bytes32",
          "name": "_keyHash",
          "type": "bytes32"
        }
      ],
      "stateMutability": "nonpayable",
      "type": "constructor"
    },
    {
      "inputs": [],
      "name": "EnforcedPause",
      "type": "error"
    },
    {
      "inputs": [],
      "name": "ExpectedPause",
      "type": "error"
    },
    {
      "inputs": [
        {
          "internalType": "address",
          "name": "have",
          "type": "address"
        },
        {
          "internalType": "address",
          "name": "want",
          "type": "address"
        }
      ],
      "name": "OnlyCoordinatorCanFulfill",
      "type": "error"
    },
    {
      "inputs": [
        {
          "internalType": "address",
          "name": "owner",
          "type": "address"
        }
      ],
      "name": "OwnableInvalidOwner",
      "type": "error"
    },
    {
      "inputs": [
        {
          "internalType": "address",
          "name": "account",
          "type": "address"
        }
      ],
      "name": "OwnableUnauthorizedAccount",
      "type": "error"
    },
    {
      "inputs": [],
      "name": "ReentrancyGuardReentrantCall",
      "type": "error"
    },
    {
      "inputs": [
        {
          "internalType": "address",
          "name": "token",
          "type": "address"
        }
      ],
      "name": "SafeERC20FailedOperation",
      "type": "error"
    },
    {
      "anonymous": false,
      "inputs": [
        {
          "indexed": true,
          "internalType": "address",
          "name": "admin",
          "type": "address"
        },
        {
          "indexed": false,
          "internalType": "uint256",
          "name": "timestamp",
          "type": "uint256"
        }
      ],
      "name": "EmergencyPaused",
      "type": "event"
    },
    {
      "anonymous": false,
      "inputs": [
        {
          "indexed": true,
          "internalType": "address",
          "name": "admin",
          "type": "address"
        },
        {
          "indexed": false,
          "internalType": "uint256",
          "name": "timestamp",
          "type": "uint256"
        }
      ],
      "name": "EmergencyUnpaused",
      "type": "event"
    },
    {
      "anonymous": false,
      "inputs": [
        {
          "indexed": true,
          "internalType": "address",
          "name": "previousOwner",
          "type": "address"
        },
        {
          "indexed": true,
          "internalType": "address",
          "name": "newOwner",
          "type": "address"
        }
      ],
      "name": "OwnershipTransferred",
      "type": "event"
    },
    {
      "anonymous": false,
      "inputs": [
        {
          "indexed": false,
          "internalType": "address",
          "name": "account",
          "type": "address"
        }
      ],
      "name": "Paused",
      "type": "event"
    },
    {
      "anonymous": false,
      "inputs": [
        {
          "indexed": true,
          "internalType": "address",
          "name": "owner",
          "type": "address"
        },
        {
          "indexed": false,
          "internalType": "uint256",
          "name": "amount",
          "type": "uint256"
        }
      ],
      "name": "PlatformFeesWithdrawn",
      "type": "event"
    },
    {
      "anonymous": false,
      "inputs": [
        {
          "indexed": true,
          "internalType": "uint256",
          "name": "raffleId",
          "type": "uint256"
        }
      ],
      "name": "RaffleCancelled",
      "type": "event"
    },
    {
      "anonymous": false,
      "inputs": [
        {
          "indexed": true,
          "internalType": "uint256",
          "name": "raffleId",
          "type": "uint256"
        },
        {
          "indexed": true,
          "internalType": "uint256",
          "name": "templateId",
          "type": "uint256"
        },
        {
          "indexed": true,
          "internalType": "address",
          "name": "winner",
          "type": "address"
        },
        {
          "indexed": false,
          "internalType": "uint256",
          "name": "prizeAmount",
          "type": "uint256"
        },
        {
          "indexed": false,
          "internalType": "uint256",
          "name": "platformFee",
          "type": "uint256"
        },
        {
          "indexed": false,
          "internalType": "uint256",
          "name": "randomNumber",
          "type": "uint256"
        }
      ],
      "name": "RaffleCompleted",
      "type": "event"
    },
    {
      "anonymous": false,
      "inputs": [
        {
          "indexed": true,
          "internalType": "uint256",
          "name": "contractRaffleId",
          "type": "uint256"
        },
        {
          "indexed": true,
          "internalType": "uint256",
          "name": "templateId",
          "type": "uint256"
        },
        {
          "indexed": true,
          "internalType": "uint256",
          "name": "referenceId",
          "type": "uint256"
        },
        {
          "indexed": false,
          "internalType": "uint256",
          "name": "ticketPrice",
          "type": "uint256"
        },
        {
          "indexed": false,
          "internalType": "uint256",
          "name": "maxTickets",
          "type": "uint256"
        },
        {
          "indexed": false,
          "internalType": "uint256",
          "name": "minTickets",
          "type": "uint256"
        },
        {
          "indexed": false,
          "internalType": "uint256",
          "name": "expiresAt",
          "type": "uint256"
        }
      ],
      "name": "RaffleCreated",
      "type": "event"
    },
    {
      "anonymous": false,
      "inputs": [
        {
          "indexed": true,
          "internalType": "uint256",
          "name": "raffleId",
          "type": "uint256"
        },
        {
          "indexed": true,
          "internalType": "uint256",
          "name": "vrfRequestId",
          "type": "uint256"
        }
      ],
      "name": "RandomnessRequested",
      "type": "event"
    },
    {
      "anonymous": false,
      "inputs": [
        {
          "indexed": true,
          "internalType": "uint256",
          "name": "raffleId",
          "type": "uint256"
        },
        {
          "indexed": false,
          "internalType": "uint256",
          "name": "participantsRefunded",
          "type": "uint256"
        },
        {
          "indexed": false,
          "internalType": "uint256",
          "name": "totalRefunded",
          "type": "uint256"
        }
      ],
      "name": "RefundBatchCompleted",
      "type": "event"
    },
    {
      "anonymous": false,
      "inputs": [
        {
          "indexed": true,
          "internalType": "uint256",
          "name": "raffleId",
          "type": "uint256"
        },
        {
          "indexed": true,
          "internalType": "address",
          "name": "user",
          "type": "address"
        },
        {
          "indexed": false,
          "internalType": "uint256",
          "name": "amount",
          "type": "uint256"
        }
      ],
      "name": "RefundIssued",
      "type": "event"
    },
    {
      "anonymous": false,
      "inputs": [
        {
          "indexed": true,
          "internalType": "uint256",
          "name": "raffleId",
          "type": "uint256"
        },
        {
          "indexed": true,
          "internalType": "address",
          "name": "participant",
          "type": "address"
        },
        {
          "indexed": false,
          "internalType": "uint256",
          "name": "ticketNumber",
          "type": "uint256"
        }
      ],
      "name": "TicketBought",
      "type": "event"
    },
    {
      "anonymous": false,
      "inputs": [
        {
          "indexed": false,
          "internalType": "address",
          "name": "account",
          "type": "address"
        }
      ],
      "name": "Unpaused",
      "type": "event"
    },
    {
      "inputs": [],
      "name": "BASIS_POINTS",
      "outputs": [
        {
          "internalType": "uint256",
          "name": "",
          "type": "uint256"
        }
      ],
      "stateMutability": "view",
      "type": "function"
    },
    {
      "inputs": [],
      "name": "FIXED_FEE",
      "outputs": [
        {
          "internalType": "uint256",
          "name": "",
          "type": "uint256"
        }
      ],
      "stateMutability": "view",
      "type": "function"
    },
    {
      "inputs": [],
      "name": "PERCENTAGE_FEE",
      "outputs": [
        {
          "internalType": "uint256",
          "name": "",
          "type": "uint256"
        }
      ],
      "stateMutability": "view",
      "type": "function"
    },
    {
      "inputs": [
        {
          "internalType": "uint256",
          "name": "raffleId",
          "type": "uint256"
        }
      ],
      "name": "buyTicket",
      "outputs": [],
      "stateMutability": "nonpayable",
      "type": "function"
    },
    {
      "inputs": [
        {
          "internalType": "uint256",
          "name": "ticketPrice",
          "type": "uint256"
        },
        {
          "internalType": "uint256",
          "name": "ticketCount",
          "type": "uint256"
        }
      ],
      "name": "calculatePlatformFee",
      "outputs": [
        {
          "internalType": "uint256",
          "name": "platformFee",
          "type": "uint256"
        }
      ],
      "stateMutability": "pure",
      "type": "function"
    },
    {
      "inputs": [
        {
          "internalType": "uint256",
          "name": "raffleId",
          "type": "uint256"
        }
      ],
      "name": "cancelMyTicket",
      "outputs": [],
      "stateMutability": "nonpayable",
      "type": "function"
    },
    {
      "inputs": [
        {
          "internalType": "uint256",
          "name": "raffleId",
          "type": "uint256"
        }
      ],
      "name": "cancelRaffle",
      "outputs": [],
      "stateMutability": "nonpayable",
      "type": "function"
    },
    {
      "inputs": [
        {
          "internalType": "uint256",
          "name": "templateId",
          "type": "uint256"
        },
        {
          "internalType": "uint256",
          "name": "referenceId",
          "type": "uint256"
        },
        {
          "internalType": "uint256",
          "name": "ticketPrice",
          "type": "uint256"
        },
        {
          "internalType": "uint256",
          "name": "maxTickets",
          "type": "uint256"
        },
        {
          "internalType": "uint256",
          "name": "minTickets",
          "type": "uint256"
        },
        {
          "internalType": "uint256",
          "name": "durationSeconds",
          "type": "uint256"
        }
      ],
      "name": "createRaffle",
      "outputs": [
        {
          "internalType": "uint256",
          "name": "contractRaffleId",
          "type": "uint256"
        }
      ],
      "stateMutability": "nonpayable",
      "type": "function"
    },
    {
      "inputs": [],
      "name": "emergencyPause",
      "outputs": [],
      "stateMutability": "nonpayable",
      "type": "function"
    },
    {
      "inputs": [
        {
          "internalType": "address",
          "name": "token",
          "type": "address"
        },
        {
          "internalType": "uint256",
          "name": "amount",
          "type": "uint256"
        }
      ],
      "name": "emergencyTokenRecovery",
      "outputs": [],
      "stateMutability": "nonpayable",
      "type": "function"
    },
    {
      "inputs": [],
      "name": "emergencyUnpause",
      "outputs": [],
      "stateMutability": "nonpayable",
      "type": "function"
    },
    {
      "inputs": [
        {
          "internalType": "uint256",
          "name": "raffleId",
          "type": "uint256"
        }
      ],
      "name": "estimateCancelGas",
      "outputs": [
        {
          "internalType": "uint256",
          "name": "currentTickets",
          "type": "uint256"
        }
      ],
      "stateMutability": "view",
      "type": "function"
    },
    {
      "inputs": [
        {
          "internalType": "uint256",
          "name": "raffleId",
          "type": "uint256"
        }
      ],
      "name": "executeRaffle",
      "outputs": [],
      "stateMutability": "nonpayable",
      "type": "function"
    },
    {
      "inputs": [
        {
          "internalType": "uint256",
          "name": "raffleId",
          "type": "uint256"
        }
      ],
      "name": "executeRefundBatch",
      "outputs": [],
      "stateMutability": "nonpayable",
      "type": "function"
    },
    {
      "inputs": [
        {
          "internalType": "uint256",
          "name": "raffleId",
          "type": "uint256"
        }
      ],
      "name": "getRaffle",
      "outputs": [
        {
          "internalType": "uint256",
          "name": "id",
          "type": "uint256"
        },
        {
          "internalType": "uint256",
          "name": "ticketPrice",
          "type": "uint256"
        },
        {
          "internalType": "uint256",
          "name": "maxTickets",
          "type": "uint256"
        },
        {
          "internalType": "uint256",
          "name": "minTickets",
          "type": "uint256"
        },
        {
          "internalType": "uint256",
          "name": "currentTickets",
          "type": "uint256"
        },
        {
          "internalType": "uint256",
          "name": "expiresAt",
          "type": "uint256"
        },
        {
          "internalType": "enum RifasPlatform.RaffleStatus",
          "name": "status",
          "type": "uint8"
        },
        {
          "internalType": "address",
          "name": "winner",
          "type": "address"
        },
        {
          "internalType": "uint256",
          "name": "prizeAmount",
          "type": "uint256"
        },
        {
          "internalType": "uint256",
          "name": "platformFee",
          "type": "uint256"
        }
      ],
      "stateMutability": "view",
      "type": "function"
    },
    {
      "inputs": [
        {
          "internalType": "uint256",
          "name": "raffleId",
          "type": "uint256"
        }
      ],
      "name": "getRaffleParticipants",
      "outputs": [
        {
          "internalType": "address[]",
          "name": "participants",
          "type": "address[]"
        }
      ],
      "stateMutability": "view",
      "type": "function"
    },
    {
      "inputs": [
        {
          "internalType": "uint256",
          "name": "raffleId",
          "type": "uint256"
        }
      ],
      "name": "getRaffleVRFRequestId",
      "outputs": [
        {
          "internalType": "uint256",
          "name": "vrfRequestId",
          "type": "uint256"
        }
      ],
      "stateMutability": "view",
      "type": "function"
    },
    {
      "inputs": [
        {
          "internalType": "address",
          "name": "user",
          "type": "address"
        }
      ],
      "name": "getUserRaffles",
      "outputs": [
        {
          "internalType": "uint256[]",
          "name": "raffleIds",
          "type": "uint256[]"
        }
      ],
      "stateMutability": "view",
      "type": "function"
    },
    {
      "inputs": [],
      "name": "globalReservedUserFunds",
      "outputs": [
        {
          "internalType": "uint256",
          "name": "",
          "type": "uint256"
        }
      ],
      "stateMutability": "view",
      "type": "function"
    },
    {
      "inputs": [
        {
          "internalType": "uint256",
          "name": "raffleId",
          "type": "uint256"
        },
        {
          "internalType": "address",
          "name": "user",
          "type": "address"
        }
      ],
      "name": "hasTicketInRaffle",
      "outputs": [
        {
          "internalType": "bool",
          "name": "hasTicket",
          "type": "bool"
        }
      ],
      "stateMutability": "view",
      "type": "function"
    },
    {
      "inputs": [],
      "name": "nextRaffleId",
      "outputs": [
        {
          "internalType": "uint256",
          "name": "",
          "type": "uint256"
        }
      ],
      "stateMutability": "view",
      "type": "function"
    },
    {
      "inputs": [],
      "name": "owner",
      "outputs": [
        {
          "internalType": "address",
          "name": "",
          "type": "address"
        }
      ],
      "stateMutability": "view",
      "type": "function"
    },
    {
      "inputs": [],
      "name": "pause",
      "outputs": [],
      "stateMutability": "nonpayable",
      "type": "function"
    },
    {
      "inputs": [],
      "name": "paused",
      "outputs": [
        {
          "internalType": "bool",
          "name": "",
          "type": "bool"
        }
      ],
      "stateMutability": "view",
      "type": "function"
    },
    {
      "inputs": [
        {
          "internalType": "uint256",
          "name": "",
          "type": "uint256"
        }
      ],
      "name": "raffles",
      "outputs": [
        {
          "internalType": "uint256",
          "name": "id",
          "type": "uint256"
        },
        {
          "internalType": "uint256",
          "name": "ticketPrice",
          "type": "uint256"
        },
        {
          "internalType": "uint256",
          "name": "maxTickets",
          "type": "uint256"
        },
        {
          "internalType": "uint256",
          "name": "minTickets",
          "type": "uint256"
        },
        {
          "internalType": "uint256",
          "name": "currentTickets",
          "type": "uint256"
        },
        {
          "internalType": "uint256",
          "name": "expiresAt",
          "type": "uint256"
        },
        {
          "internalType": "enum RifasPlatform.RaffleStatus",
          "name": "status",
          "type": "uint8"
        },
        {
          "internalType": "address",
          "name": "winner",
          "type": "address"
        },
        {
          "internalType": "uint256",
          "name": "prizeAmount",
          "type": "uint256"
        },
        {
          "internalType": "uint256",
          "name": "platformFee",
          "type": "uint256"
        },
        {
          "internalType": "uint256",
          "name": "vrfRequestId",
          "type": "uint256"
        },
        {
          "internalType": "uint256",
          "name": "templateId",
          "type": "uint256"
        }
      ],
      "stateMutability": "view",
      "type": "function"
    },
    {
      "inputs": [
        {
          "internalType": "uint256",
          "name": "requestId",
          "type": "uint256"
        },
        {
          "internalType": "uint256[]",
          "name": "randomWords",
          "type": "uint256[]"
        }
      ],
      "name": "rawFulfillRandomWords",
      "outputs": [],
      "stateMutability": "nonpayable",
      "type": "function"
    },
    {
      "inputs": [],
      "name": "renounceOwnership",
      "outputs": [],
      "stateMutability": "nonpayable",
      "type": "function"
    },
    {
      "inputs": [],
      "name": "totalPlatformFees",
      "outputs": [
        {
          "internalType": "uint256",
          "name": "",
          "type": "uint256"
        }
      ],
      "stateMutability": "view",
      "type": "function"
    },
    {
      "inputs": [
        {
          "internalType": "address",
          "name": "newOwner",
          "type": "address"
        }
      ],
      "name": "transferOwnership",
      "outputs": [],
      "stateMutability": "nonpayable",
      "type": "function"
    },
    {
      "inputs": [],
      "name": "unpause",
      "outputs": [],
      "stateMutability": "nonpayable",
      "type": "function"
    },
    {
      "inputs": [],
      "name": "usdtToken",
      "outputs": [
        {
          "internalType": "contract IERC20",
          "name": "",
          "type": "address"
        }
      ],
      "stateMutability": "view",
      "type": "function"
    },
    {
      "inputs": [
        {
          "internalType": "address",
          "name": "",
          "type": "address"
        },
        {
          "internalType": "uint256",
          "name": "",
          "type": "uint256"
        }
      ],
      "name": "userRaffles",
      "outputs": [
        {
          "internalType": "uint256",
          "name": "",
          "type": "uint256"
        }
      ],
      "stateMutability": "view",
      "type": "function"
    },
    {
      "inputs": [
        {
          "internalType": "uint256",
          "name": "",
          "type": "uint256"
        }
      ],
      "name": "vrfRequestToRaffleId",
      "outputs": [
        {
          "internalType": "uint256",
          "name": "",
          "type": "uint256"
        }
      ],
      "stateMutability": "view",
      "type": "function"
    },
    {
      "inputs": [],
      "name": "withdrawPlatformFees",
      "outputs": [],
      "stateMutability": "nonpayable",
      "type": "function"
    }
  ],
  "bytecode": "0x6101006040526001600355348015610015575f5ffd5b506040516128c13803806128c1833981016040819052610034916101c8565b82338061005b57604051631e4fbdf760e01b81525f60048201526024015b60405180910390fd5b6100648161015e565b50600180556001600160a01b0390811660805284166100c55760405162461bcd60e51b815260206004820152601460248201527f496e76616c6964205553445420616464726573730000000000000000000000006044820152606401610052565b6001600160a01b03831661011b5760405162461bcd60e51b815260206004820152601760248201527f496e76616c69642056524620636f6f7264696e61746f720000000000000000006044820152606401610052565b6001600160a01b0393841660a05260028054610100600160a81b0319166101009490951693909302939093179091556001600160401b031660c05260e05261021e565b5f80546001600160a01b038381166001600160a01b0319831681178455604051919092169283917f8be0079c531659141344cd1fd0a4f28419497f9722a3daafe3b4186f6b6457e09190a35050565b80516001600160a01b03811681146101c3575f5ffd5b919050565b5f5f5f5f608085870312156101db575f5ffd5b6101e4856101ad565b93506101f2602086016101ad565b60408601519093506001600160401b038116811461020e575f5ffd5b6060959095015193969295505050565b60805160a05160c05160e0516126316102905f395f611d3801525f611d6701525f818161040a01528181610cb201528181610f8001528181611037015281816113b9015281816114ab0152818161175b01528181611be3015261205401525f818161056001526105a201526126315ff3fe608060405234801561000f575f5ffd5b50600436106101fd575f3560e01c80638458e3e411610114578063d0b7830b116100a9578063e1f1c4a711610079578063e1f1c4a71461049d578063e4be261d146104a6578063e4dafec9146104b9578063ef11c809146104e2578063f2fde38b146104f5575f5ffd5b8063d0b7830b14610471578063d3631fa514610479578063d51075c114610482578063d665b67d14610495575f5ffd5b8063a98ad46c116100e4578063a98ad46c14610405578063b49b0cb31461042c578063b678b3701461043f578063ce65089c1461045e575f5ffd5b80638458e3e4146103985780638da5cb5b146103a157806398d71138146103c5578063a6e3295b146103e5575f5ffd5b806351858e271161019557806360314b1f1161016557806360314b1f1461035957806366ea762c1461036257806367dd74ca14610375578063715018a6146103885780638456cb5914610390575f5ffd5b806351858e27146102a45780635c975abb146102ac5780635d4bc0ce146102b75780635fba317114610346575f5ffd5b80632463bef6116101d05780632463bef61461026e578063350c6c44146102815780633f4ba83a146102945780634a4e3bd51461029c575f5ffd5b80631ce38054146102015780631fe543e3146102275780631ff6da211461023c57806323d1b06c1461025f575b5f5ffd5b61021461020f366004612168565b610508565b6040519081526020015b60405180910390f35b61023a610235366004612193565b610555565b005b61024f61024a366004612282565b6105dd565b604051901515815260200161021e565b610214670de0b6b3a764000081565b61021461027c366004612168565b61063b565b61021461028f3660046122ac565b61067f565b61023a61088f565b61023a6108a1565b61023a6108e9565b60025460ff1661024f565b61032e6102c5366004612168565b600660208190525f91825260409091208054600182015460028301546003840154600485015460058601549686015460078701546008880154600b890154600c9099015497999698959794969395939460ff8416946101009094046001600160a01b031693908c565b60405161021e9c9b9a9998979695949392919061231f565b61023a610354366004612168565b61092b565b61021460055481565b61023a610370366004612168565b6109ef565b61023a610383366004612168565b610afe565b61023a610de7565b61023a610df8565b61021460035481565b5f546001600160a01b03165b6040516001600160a01b03909116815260200161021e565b6103d86103d3366004612390565b610e08565b60405161021e91906123a9565b6103f86103f3366004612168565b610e71565b60405161021e91906123eb565b6103ad7f000000000000000000000000000000000000000000000000000000000000000081565b61023a61043a36600461242b565b610f6e565b61021461044d366004612168565b60086020525f908152604090205481565b61023a61046c366004612168565b61114c565b61023a611433565b61021460045481565b61021461049036600461242b565b611529565b61021460c881565b61021461271081565b61023a6104b4366004612168565b611554565b6104cc6104c7366004612168565b61186c565b60405161021e9a99989796959493929190612453565b6102146104f03660046124b5565b611909565b61023a610503366004612390565b61192a565b5f815f8111801561051a575060035481105b61053f5760405162461bcd60e51b8152600401610536906124d5565b60405180910390fd5b50505f9081526006602052604090206004015490565b336001600160a01b037f000000000000000000000000000000000000000000000000000000000000000016146105cf5760405163073e64fd60e21b81523360048201526001600160a01b037f0000000000000000000000000000000000000000000000000000000000000000166024820152604401610536565b6105d98282611967565b5050565b5f825f811180156105ef575060035481105b61060b5760405162461bcd60e51b8152600401610536906124d5565b50505f9182526006602090815260408084206001600160a01b03939093168452600a909201905290205460ff1690565b5f815f8111801561064d575060035481105b6106695760405162461bcd60e51b8152600401610536906124d5565b50505f908152600660205260409020600b015490565b5f610688611a5d565b610690611a89565b5f85116106df5760405162461bcd60e51b815260206004820152601d60248201527f5469636b6574207072696365206d75737420626520706f7369746976650000006044820152606401610536565b5f841161072e5760405162461bcd60e51b815260206004820152601c60248201527f4d6178207469636b657473206d75737420626520706f736974697665000000006044820152606401610536565b5f8311801561073d5750838311155b61077f5760405162461bcd60e51b8152602060048201526013602482015272496e76616c6964206d696e207469636b65747360681b6044820152606401610536565b5f82116107ce5760405162461bcd60e51b815260206004820152601960248201527f4475726174696f6e206d75737420626520706f736974697665000000000000006044820152606401610536565b60038054905f6107dd83612518565b909155505f818152600660205260408120828155600181018890556002810187905560038101869055600481019190915590915061081b8342612530565b6005820181905560068201805460ff19169055600c8201899055604080518881526020810188905290810186905260608101919091528790899084907f8fc4432049bb3dc4624db5e2842ce62f3644222ed3d957d67f940b56b85c9c8a9060800160405180910390a4509695505050505050565b610897611a5d565b61089f611aad565b565b6108a9611a5d565b6108b1611aad565b60405142815233907fdacac23d353cc4fe05be85350ed1e8227ed9edf2323b7cb5aad3174e6a9ce1d6906020015b60405180910390a2565b6108f1611a5d565b6108f9611aff565b60405142815233907f2e31b3b12b9bb0e82c32f27df5f234fabc95a374f54fd287a7132878d5dc9fc3906020016108df565b610933611a5d565b805f81118015610944575060035481105b6109605760405162461bcd60e51b8152600401610536906124d5565b610968611b3c565b5f82815260066020526040812090600682015460ff16600581111561098f5761098f6122eb565b146109dc5760405162461bcd60e51b815260206004820152601f60248201527f43616e206f6e6c792063616e63656c2066696c6c696e6720726166666c6573006044820152606401610536565b6109e583611b66565b506105d960018055565b6109f7611a5d565b805f81118015610a08575060035481105b610a245760405162461bcd60e51b8152600401610536906124d5565b610a2c611b3c565b610a34611a89565b5f8281526006602052604090206001600682015460ff166005811115610a5c57610a5c6122eb565b1480610aa257505f600682015460ff166005811115610a7d57610a7d6122eb565b148015610a8e575080600501544210155b8015610aa257508060030154816004015410155b610ae65760405162461bcd60e51b815260206004820152601560248201527443616e6e6f74206578656375746520726166666c6560581b6044820152606401610536565b60068101805460ff191660021790556109e583611cb1565b805f81118015610b0f575060035481105b610b2b5760405162461bcd60e51b8152600401610536906124d5565b815f5f828152600660208190526040909120015460ff166005811115610b5357610b536122eb565b14610ba05760405162461bcd60e51b815260206004820152601c60248201527f526166666c65206e6f7420616363657074696e67207469636b657473000000006044820152606401610536565b610ba8611b3c565b610bb0611a89565b5f83815260066020526040902060058101544210610c015760405162461bcd60e51b815260206004820152600e60248201526d149859999b1948195e1c1a5c995960921b6044820152606401610536565b335f908152600a8201602052604090205460ff1615610c575760405162461bcd60e51b8152602060048201526012602482015271105b1c9958591e481a185cc81d1a58dad95d60721b6044820152606401610536565b8060020154816004015410610c9f5760405162461bcd60e51b815260206004820152600e60248201526d149859999b19481a5cc8199d5b1b60921b6044820152606401610536565b6001810154610cdc906001600160a01b037f0000000000000000000000000000000000000000000000000000000000000000169033903090611e45565b600981018054600181810183555f928352602080842090920180546001600160a01b031916339081179091558352600a840190915260408220805460ff1916909117905560048201805491610d3083612518565b9091555050335f90815260076020908152604082208054600181810183559184529183209091018690558201546005805491929091610d70908490612530565b90915550506004810154604051908152339085907f913d09b391f64143215d9312fd7e8ecaa06001c646789c9d2109dc515bc34fad9060200160405180910390a38060020154816004015403610dd85760068101805460ff19166002179055610dd884611cb1565b50610de260018055565b505050565b610def611a5d565b61089f5f611eb2565b610e00611a5d565b61089f611aff565b6001600160a01b0381165f90815260076020908152604091829020805483518184028101840190945280845260609392830182828015610e6557602002820191905f5260205f20905b815481526020019060010190808311610e51575b50505050509050919050565b6060815f81118015610e84575060035481105b610ea05760405162461bcd60e51b8152600401610536906124d5565b5f838152600660205260409020600481015467ffffffffffffffff811115610eca57610eca61217f565b604051908082528060200260200182016040528015610ef3578160200160208202803683370190505b5092505f5b8160040154811015610f6657816009018181548110610f1957610f19612543565b905f5260205f20015f9054906101000a90046001600160a01b0316848281518110610f4657610f46612543565b6001600160a01b0390921660209283029190910190910152600101610ef8565b505050919050565b610f76611a5d565b610f7e611b3c565b7f00000000000000000000000000000000000000000000000000000000000000006001600160a01b0316826001600160a01b03160361111e576004548111156110205760405162461bcd60e51b815260206004820152602e60248201527f43616e6e6f74207265636f76657220757365722066756e6473202d206f6e6c7960448201526d20706c6174666f726d206665657360901b6064820152608401610536565b6040516370a0823160e01b81523060048201525f907f00000000000000000000000000000000000000000000000000000000000000006001600160a01b0316906370a0823190602401602060405180830381865afa158015611084573d5f5f3e3d5ffd5b505050506040513d601f19601f820116820180604052508101906110a89190612557565b90505f6110b460055490565b9050806110c1848461256e565b101561111b5760405162461bcd60e51b8152602060048201526024808201527f5265636f7665727920776f756c6420636f6d70726f6d69736520757365722066604482015263756e647360e01b6064820152608401610536565b50505b6111436111325f546001600160a01b031690565b6001600160a01b0384169083611f01565b6105d960018055565b805f8111801561115d575060035481105b6111795760405162461bcd60e51b8152600401610536906124d5565b611181611b3c565b611189611a89565b5f82815260066020526040812090600682015460ff1660058111156111b0576111b06122eb565b146111fd5760405162461bcd60e51b815260206004820152601c60248201527f526166666c65206e6f7420696e2066696c6c696e6720737461747573000000006044820152606401610536565b335f908152600a8201602052604090205460ff1661125d5760405162461bcd60e51b815260206004820152601760248201527f596f7520646f6e277420686176652061207469636b65740000000000000000006044820152606401610536565b335f908152600a820160205260408120805460ff191690556004820180549161128583612581565b909155505f90505b600982015481101561138b57336001600160a01b03168260090182815481106112b8576112b8612543565b5f918252602090912001546001600160a01b031603611383576009820180546112e39060019061256e565b815481106112f3576112f3612543565b5f918252602090912001546009830180546001600160a01b03909216918390811061132057611320612543565b905f5260205f20015f6101000a8154816001600160a01b0302191690836001600160a01b031602179055508160090180548061135e5761135e612596565b5f8281526020902081015f1990810180546001600160a01b031916905501905561138b565b60010161128d565b50806001015460055f8282546113a1919061256e565b909155505060018101546113e1906001600160a01b037f000000000000000000000000000000000000000000000000000000000000000016903390611f01565b336001600160a01b0316837f7a482fdeb6bc9a1376f597068a214a7a39472bb2eff1b8cad21ba04f49ddca1b836001015460405161142191815260200190565b60405180910390a3506105d960018055565b61143b611a5d565b611443611b3c565b600454806114895760405162461bcd60e51b81526020600482015260136024820152724e6f206665657320746f20776974686472617760681b6044820152606401610536565b5f6004556114d26114a15f546001600160a01b031690565b6001600160a01b037f0000000000000000000000000000000000000000000000000000000000000000169083611f01565b5f546001600160a01b03166001600160a01b03167ffc7ad544ff6a06d6499925723d25b6fe70457a42939995b1d3d6f560fe3363338260405161151791815260200190565b60405180910390a25061089f60018055565b6007602052815f5260405f208181548110611542575f80fd5b905f5260205f20015f91509150505481565b61155c611a5d565b805f8111801561156d575060035481105b6115895760405162461bcd60e51b8152600401610536906124d5565b611591611b3c565b611599611a89565b5f82815260066020526040812090600682015460ff1660058111156115c0576115c06122eb565b1461160d5760405162461bcd60e51b815260206004820152601c60248201527f526166666c65206e6f7420696e2066696c6c696e6720737461747573000000006044820152606401610536565b80600501544210156116565760405162461bcd60e51b8152602060048201526012602482015271149859999b19481b9bdd08195e1c1a5c995960721b6044820152606401610536565b80600301548160040154106116ad5760405162461bcd60e51b815260206004820152601a60248201527f4d65657473206d696e696d756d207061727469636970616e74730000000000006044820152606401610536565b60068101805460ff19166005179055600481015460018201545f916116d1916125aa565b60048301549091505f5b83600401548110156117d5575f8460090182815481106116fd576116fd612543565b5f9182526020808320909101546001600160a01b0316808352600a880190915260409091205490915060ff16156117cc576001600160a01b038082165f908152600a870160205260409020805460ff191690556001860154611783917f000000000000000000000000000000000000000000000000000000000000000016908390611f01565b806001600160a01b0316877f7a482fdeb6bc9a1376f597068a214a7a39472bb2eff1b8cad21ba04f49ddca1b87600101546040516117c391815260200190565b60405180910390a35b506001016116db565b508160055f8282546117e7919061256e565b909155505060068301805460ff19166004179055604080518281526020810184905286917f4ec7e56c3033a6bd83b9349e021aec6978d1fb9d8aa84ee11e0cf7a996fc0407910160405180910390a260405185907f7fa78bab5d5570f162c69234a3f4d1b9294fd5bca72219cb16c1fe38839ccb8a905f90a25050506105d960018055565b5f5f5f5f5f5f5f5f5f5f8a5f81118015611887575060035481105b6118a35760405162461bcd60e51b8152600401610536906124d5565b5050505f98895250506006602081905260409097208054600182015460028301546003840154600485015460058601549c8601546007870154600890970154959e949d939c50919a50985090965060ff8116955061010090046001600160a01b03169350565b5f8061191583856125aa565b905061192081611f32565b9150505b92915050565b611932611a5d565b6001600160a01b03811661195b57604051631e4fbdf760e01b81525f6004820152602401610536565b61196481611eb2565b50565b5f82815260086020526040812054908190036119ba5760405162461bcd60e51b8152602060048201526012602482015271125b9d985b1a59081c995c5d595cdd08125160721b6044820152606401610536565b5f8181526006602052604090206002600682015460ff1660058111156119e2576119e26122eb565b14611a2f5760405162461bcd60e51b815260206004820152601c60248201527f526166666c65206e6f7420696e2064726177696e6720737461747573000000006044820152606401610536565b5f835f81518110611a4257611a42612543565b60200260200101519050611a568382611f67565b5050505050565b5f546001600160a01b0316331461089f5760405163118cdaa760e01b8152336004820152602401610536565b60025460ff161561089f5760405163d93c066560e01b815260040160405180910390fd5b611ab56120d9565b6002805460ff191690557f5db9ee0a495bf2e6ff9c91a7834c1ba4fdd244a5e8aa4e537bd38aeae4b073aa335b6040516001600160a01b03909116815260200160405180910390a1565b611b07611a89565b6002805460ff191660011790557f62e78cea01bee320cd4e420270b5ea74000d11b0c9f74754ebdbfc544b05a258611ae23390565b600260015403611b5f57604051633ee5aeb560e01b815260040160405180910390fd5b6002600155565b5f8181526006602081905260408220908101805460ff1916600517905560048101546001820154919291611b9a91906125aa565b90505f5b8260040154811015611c5c575f836009018281548110611bc057611bc0612543565b5f9182526020909120015460018501546001600160a01b039182169250611c0b917f000000000000000000000000000000000000000000000000000000000000000016908390611f01565b806001600160a01b0316857f7a482fdeb6bc9a1376f597068a214a7a39472bb2eff1b8cad21ba04f49ddca1b8660010154604051611c4b91815260200190565b60405180910390a350600101611b9e565b508060055f828254611c6e919061256e565b909155505060068201805460ff1916600417905560405183907f7fa78bab5d5570f162c69234a3f4d1b9294fd5bca72219cb16c1fe38839ccb8a905f90a2505050565b5f8181526006602052604090206002600682015460ff166005811115611cd957611cd96122eb565b14611d265760405162461bcd60e51b815260206004820181905260248201527f526166666c65206d75737420626520696e2044524157494e47207374617475736044820152606401610536565b6002546040516305d3b1d360e41b81527f0000000000000000000000000000000000000000000000000000000000000000600482015267ffffffffffffffff7f000000000000000000000000000000000000000000000000000000000000000016602482015260036044820152620186a06064820152600160848201525f9161010090046001600160a01b031690635d3b1d309060a4016020604051808303815f875af1158015611dd9573d5f5f3e3d5ffd5b505050506040513d601f19601f82011682018060405250810190611dfd9190612557565b600b83018190555f8181526008602052604080822086905551919250829185917f3d94fecedaa4f90b8bd459797adb95f5bb11426025c5541390d9ccc1ad1b60a191a3505050565b6040516001600160a01b038481166024830152838116604483015260648201839052611eac9186918216906323b872dd906084015b604051602081830303815290604052915060e01b6020820180516001600160e01b0383818316178352505050506120fc565b50505050565b5f80546001600160a01b038381166001600160a01b0319831681178455604051919092169283917f8be0079c531659141344cd1fd0a4f28419497f9722a3daafe3b4186f6b6457e09190a35050565b6040516001600160a01b03838116602483015260448201839052610de291859182169063a9059cbb90606401611e7a565b5f80612710611f4260c8856125aa565b611f4c91906125d5565b9050611f6081670de0b6b3a7640000612530565b9392505050565b5f82815260066020526040812060048101546001820154919291611f8b91906125aa565b90505f611f9782611f32565b90505f611fa4828461256e565b60088501839055600785018190556004805491925083915f90611fc8908490612530565b909155505060048401545f90611fde90876125e8565b90505f856009018281548110611ff657611ff6612543565b5f9182526020822001546006880180546001600160a81b03191660ff196101006001600160a01b0390941693840216176003179055600580549193508792909161204190849061256e565b9091555061207b90506001600160a01b037f0000000000000000000000000000000000000000000000000000000000000000168285611f01565b600c86015460408051858152602081018790529081018990526001600160a01b03831691908a907fd3a62d4818ae90e3fa377a41a384af90b8a070e4b4ca5bf8ce3382ad664085eb9060600160405180910390a45050505050505050565b60025460ff1661089f57604051638dfc202b60e01b815260040160405180910390fd5b5f5f60205f8451602086015f885af18061211b576040513d5f823e3d81fd5b50505f513d9150811561213257806001141561213f565b6001600160a01b0384163b155b15611eac57604051635274afe760e01b81526001600160a01b0385166004820152602401610536565b5f60208284031215612178575f5ffd5b5035919050565b634e487b7160e01b5f52604160045260245ffd5b5f5f604083850312156121a4575f5ffd5b82359150602083013567ffffffffffffffff8111156121c1575f5ffd5b8301601f810185136121d1575f5ffd5b803567ffffffffffffffff8111156121eb576121eb61217f565b8060051b604051601f19603f830116810181811067ffffffffffffffff821117156122185761221861217f565b604052918252602081840181019290810188841115612235575f5ffd5b6020850194505b838510156122585784358082526020958601959093500161223c565b50809450505050509250929050565b80356001600160a01b038116811461227d575f5ffd5b919050565b5f5f60408385031215612293575f5ffd5b823591506122a360208401612267565b90509250929050565b5f5f5f5f5f5f60c087890312156122c1575f5ffd5b505084359660208601359650604086013595606081013595506080810135945060a0013592509050565b634e487b7160e01b5f52602160045260245ffd5b6006811061231b57634e487b7160e01b5f52602160045260245ffd5b9052565b5f610180820190508d82528c60208301528b60408301528a60608301528960808301528860a083015261235560c08301896122ff565b6001600160a01b039690961660e082015261010081019490945261012084019290925261014083015261016090910152979650505050505050565b5f602082840312156123a0575f5ffd5b611f6082612267565b602080825282518282018190525f918401906040840190835b818110156123e05783518352602093840193909201916001016123c2565b509095945050505050565b602080825282518282018190525f918401906040840190835b818110156123e05783516001600160a01b0316835260209384019390920191600101612404565b5f5f6040838503121561243c575f5ffd5b61244583612267565b946020939093013593505050565b5f610140820190508b82528a60208301528960408301528860608301528760808301528660a083015261248960c08301876122ff565b6001600160a01b039490941660e082015261010081019290925261012090910152979650505050505050565b5f5f604083850312156124c6575f5ffd5b50508035926020909101359150565b602080825260159082015274149859999b1948191bd95cc81b9bdd08195e1a5cdd605a1b604082015260600190565b634e487b7160e01b5f52601160045260245ffd5b5f6001820161252957612529612504565b5060010190565b8082018082111561192457611924612504565b634e487b7160e01b5f52603260045260245ffd5b5f60208284031215612567575f5ffd5b5051919050565b8181038181111561192457611924612504565b5f8161258f5761258f612504565b505f190190565b634e487b7160e01b5f52603160045260245ffd5b808202811582820484141761192457611924612504565b634e487b7160e01b5f52601260045260245ffd5b5f826125e3576125e36125c1565b500490565b5f826125f6576125f66125c1565b50069056fea2646970667358221220ddbb6bd852152226395b651b0fdde0a52c3fc8d263f971709daf90dc12849d4364736f6c634300081c0033",
  "linkReferences": {},
  "deployedLinkReferences": {},
  "immutableReferences": {
    "10": [
      {
        "length": 32,
        "start": 1376
      },
      {
        "length": 32,
        "start": 1442
      }
    ],
    "1177": [
      {
        "length": 32,
        "start": 1034
      },
      {
        "length": 32,
        "start": 3250
      },
      {
        "length": 32,
        "start": 3968
      },
      {
        "length": 32,
        "start": 4151
      },
      {
        "length": 32,
        "start": 5049
      },
      {
        "length": 32,
        "start": 5291
      },
      {
        "length": 32,
        "start": 5979
      },
      {
        "length": 32,
        "start": 7139
      },
      {
        "length": 32,
        "start": 8276
      }
    ],
    "1191": [
      {
        "length": 32,
        "start": 7527
      }
    ],
    "1193": [
      {
        "length": 32,
        "start": 7480
      }
    ]
  },
  "inputSourceName": "project/contracts/RifasPlatform.sol",
  "buildInfoId": "solc-0_8_28-9c2ea4d2ae7f614f326633f53202e0fa82743ff7"
}