{
  "_format": "hh3-artifact-1",
  "contractName": "RifasPlatform",
  "sourceName": "contracts/RifasPlatform.sol",
  "abi": [
    {
      "inputs": [
        {
          "internalType": "address",
          "name": "_usdtToken",
          "type": "address"
        },
        {
          "internalType": "address",
          "name": "_vrfCoordinator",
          "type": "address"
        },
        {
          "internalType": "uint64",
          "name": "_subscriptionId",
          "type": "uint64"
        },
        {
          "internalType": "bytes32",
          "name": "_keyHash",
          "type": "bytes32"
        }
      ],
      "stateMutability": "nonpayable",
      "type": "constructor"
    },
    {
      "inputs": [],
      "name": "EnforcedPause",
      "type": "error"
    },
    {
      "inputs": [],
      "name": "ExpectedPause",
      "type": "error"
    },
    {
      "inputs": [
        {
          "internalType": "address",
          "name": "have",
          "type": "address"
        },
        {
          "internalType": "address",
          "name": "want",
          "type": "address"
        }
      ],
      "name": "OnlyCoordinatorCanFulfill",
      "type": "error"
    },
    {
      "inputs": [
        {
          "internalType": "address",
          "name": "owner",
          "type": "address"
        }
      ],
      "name": "OwnableInvalidOwner",
      "type": "error"
    },
    {
      "inputs": [
        {
          "internalType": "address",
          "name": "account",
          "type": "address"
        }
      ],
      "name": "OwnableUnauthorizedAccount",
      "type": "error"
    },
    {
      "inputs": [],
      "name": "ReentrancyGuardReentrantCall",
      "type": "error"
    },
    {
      "inputs": [
        {
          "internalType": "address",
          "name": "token",
          "type": "address"
        }
      ],
      "name": "SafeERC20FailedOperation",
      "type": "error"
    },
    {
      "anonymous": false,
      "inputs": [
        {
          "indexed": true,
          "internalType": "address",
          "name": "addr",
          "type": "address"
        },
        {
          "indexed": false,
          "internalType": "string",
          "name": "reason",
          "type": "string"
        },
        {
          "indexed": true,
          "internalType": "uint256",
          "name": "timestamp",
          "type": "uint256"
        }
      ],
      "name": "AddressBlocked",
      "type": "event"
    },
    {
      "anonymous": false,
      "inputs": [
        {
          "indexed": true,
          "internalType": "address",
          "name": "addr",
          "type": "address"
        },
        {
          "indexed": true,
          "internalType": "uint256",
          "name": "timestamp",
          "type": "uint256"
        }
      ],
      "name": "AddressUnblocked",
      "type": "event"
    },
    {
      "anonymous": false,
      "inputs": [
        {
          "indexed": true,
          "internalType": "address",
          "name": "admin",
          "type": "address"
        },
        {
          "indexed": true,
          "internalType": "uint256",
          "name": "timestamp",
          "type": "uint256"
        }
      ],
      "name": "EmergencyPaused",
      "type": "event"
    },
    {
      "anonymous": false,
      "inputs": [
        {
          "indexed": true,
          "internalType": "address",
          "name": "admin",
          "type": "address"
        },
        {
          "indexed": true,
          "internalType": "uint256",
          "name": "timestamp",
          "type": "uint256"
        }
      ],
      "name": "EmergencyUnpaused",
      "type": "event"
    },
    {
      "anonymous": false,
      "inputs": [
        {
          "indexed": true,
          "internalType": "address",
          "name": "previousOwner",
          "type": "address"
        },
        {
          "indexed": true,
          "internalType": "address",
          "name": "newOwner",
          "type": "address"
        }
      ],
      "name": "OwnershipTransferred",
      "type": "event"
    },
    {
      "anonymous": false,
      "inputs": [
        {
          "indexed": false,
          "internalType": "address",
          "name": "account",
          "type": "address"
        }
      ],
      "name": "Paused",
      "type": "event"
    },
    {
      "anonymous": false,
      "inputs": [
        {
          "indexed": true,
          "internalType": "address",
          "name": "owner",
          "type": "address"
        },
        {
          "indexed": true,
          "internalType": "uint256",
          "name": "amount",
          "type": "uint256"
        }
      ],
      "name": "PlatformFeesWithdrawn",
      "type": "event"
    },
    {
      "anonymous": false,
      "inputs": [
        {
          "indexed": true,
          "internalType": "uint256",
          "name": "raffleId",
          "type": "uint256"
        }
      ],
      "name": "RaffleCancelled",
      "type": "event"
    },
    {
      "anonymous": false,
      "inputs": [
        {
          "indexed": true,
          "internalType": "uint256",
          "name": "raffleId",
          "type": "uint256"
        },
        {
          "indexed": true,
          "internalType": "uint256",
          "name": "templateId",
          "type": "uint256"
        },
        {
          "indexed": true,
          "internalType": "address",
          "name": "winner",
          "type": "address"
        },
        {
          "indexed": false,
          "internalType": "uint256",
          "name": "prizeAmount",
          "type": "uint256"
        },
        {
          "indexed": false,
          "internalType": "uint256",
          "name": "platformFee",
          "type": "uint256"
        },
        {
          "indexed": false,
          "internalType": "uint256",
          "name": "randomNumber",
          "type": "uint256"
        }
      ],
      "name": "RaffleCompleted",
      "type": "event"
    },
    {
      "anonymous": false,
      "inputs": [
        {
          "indexed": true,
          "internalType": "uint256",
          "name": "contractRaffleId",
          "type": "uint256"
        },
        {
          "indexed": true,
          "internalType": "uint256",
          "name": "templateId",
          "type": "uint256"
        },
        {
          "indexed": true,
          "internalType": "uint256",
          "name": "referenceId",
          "type": "uint256"
        },
        {
          "indexed": false,
          "internalType": "uint256",
          "name": "ticketPrice",
          "type": "uint256"
        },
        {
          "indexed": false,
          "internalType": "uint256",
          "name": "maxTickets",
          "type": "uint256"
        },
        {
          "indexed": false,
          "internalType": "uint256",
          "name": "minTickets",
          "type": "uint256"
        },
        {
          "indexed": false,
          "internalType": "uint256",
          "name": "expiresAt",
          "type": "uint256"
        }
      ],
      "name": "RaffleCreated",
      "type": "event"
    },
    {
      "anonymous": false,
      "inputs": [
        {
          "indexed": true,
          "internalType": "uint256",
          "name": "raffleId",
          "type": "uint256"
        },
        {
          "indexed": true,
          "internalType": "uint256",
          "name": "vrfRequestId",
          "type": "uint256"
        }
      ],
      "name": "RandomnessRequested",
      "type": "event"
    },
    {
      "anonymous": false,
      "inputs": [
        {
          "indexed": true,
          "internalType": "uint256",
          "name": "raffleId",
          "type": "uint256"
        },
        {
          "indexed": true,
          "internalType": "uint256",
          "name": "newVrfRequestId",
          "type": "uint256"
        }
      ],
      "name": "RandomnessRetried",
      "type": "event"
    },
    {
      "anonymous": false,
      "inputs": [
        {
          "indexed": true,
          "internalType": "uint256",
          "name": "raffleId",
          "type": "uint256"
        },
        {
          "indexed": true,
          "internalType": "uint256",
          "name": "participantsRefunded",
          "type": "uint256"
        },
        {
          "indexed": true,
          "internalType": "uint256",
          "name": "totalRefunded",
          "type": "uint256"
        }
      ],
      "name": "RefundBatchCompleted",
      "type": "event"
    },
    {
      "anonymous": false,
      "inputs": [
        {
          "indexed": true,
          "internalType": "uint256",
          "name": "raffleId",
          "type": "uint256"
        },
        {
          "indexed": true,
          "internalType": "address",
          "name": "user",
          "type": "address"
        },
        {
          "indexed": true,
          "internalType": "uint256",
          "name": "amount",
          "type": "uint256"
        }
      ],
      "name": "RefundIssued",
      "type": "event"
    },
    {
      "anonymous": false,
      "inputs": [
        {
          "indexed": true,
          "internalType": "uint256",
          "name": "raffleId",
          "type": "uint256"
        },
        {
          "indexed": true,
          "internalType": "address",
          "name": "participant",
          "type": "address"
        },
        {
          "indexed": true,
          "internalType": "uint256",
          "name": "ticketNumber",
          "type": "uint256"
        }
      ],
      "name": "TicketBought",
      "type": "event"
    },
    {
      "anonymous": false,
      "inputs": [
        {
          "indexed": false,
          "internalType": "address",
          "name": "account",
          "type": "address"
        }
      ],
      "name": "Unpaused",
      "type": "event"
    },
    {
      "inputs": [],
      "name": "BASIS_POINTS",
      "outputs": [
        {
          "internalType": "uint256",
          "name": "",
          "type": "uint256"
        }
      ],
      "stateMutability": "view",
      "type": "function"
    },
    {
      "inputs": [],
      "name": "FIXED_FEE",
      "outputs": [
        {
          "internalType": "uint256",
          "name": "",
          "type": "uint256"
        }
      ],
      "stateMutability": "view",
      "type": "function"
    },
    {
      "inputs": [],
      "name": "PERCENTAGE_FEE",
      "outputs": [
        {
          "internalType": "uint256",
          "name": "",
          "type": "uint256"
        }
      ],
      "stateMutability": "view",
      "type": "function"
    },
    {
      "inputs": [
        {
          "internalType": "address",
          "name": "addr",
          "type": "address"
        },
        {
          "internalType": "string",
          "name": "reason",
          "type": "string"
        }
      ],
      "name": "addToBlocklist",
      "outputs": [],
      "stateMutability": "nonpayable",
      "type": "function"
    },
    {
      "inputs": [
        {
          "internalType": "address[]",
          "name": "addresses",
          "type": "address[]"
        },
        {
          "internalType": "string[]",
          "name": "reasons",
          "type": "string[]"
        }
      ],
      "name": "addToBlocklistBatch",
      "outputs": [],
      "stateMutability": "nonpayable",
      "type": "function"
    },
    {
      "inputs": [
        {
          "internalType": "uint256[]",
          "name": "raffleIds",
          "type": "uint256[]"
        }
      ],
      "name": "archiveRaffles",
      "outputs": [],
      "stateMutability": "nonpayable",
      "type": "function"
    },
    {
      "inputs": [
        {
          "internalType": "address",
          "name": "",
          "type": "address"
        }
      ],
      "name": "blockReasons",
      "outputs": [
        {
          "internalType": "string",
          "name": "",
          "type": "string"
        }
      ],
      "stateMutability": "view",
      "type": "function"
    },
    {
      "inputs": [
        {
          "internalType": "address",
          "name": "",
          "type": "address"
        }
      ],
      "name": "blocklist",
      "outputs": [
        {
          "internalType": "bool",
          "name": "",
          "type": "bool"
        }
      ],
      "stateMutability": "view",
      "type": "function"
    },
    {
      "inputs": [
        {
          "internalType": "uint256",
          "name": "raffleId",
          "type": "uint256"
        }
      ],
      "name": "buyTicket",
      "outputs": [],
      "stateMutability": "nonpayable",
      "type": "function"
    },
    {
      "inputs": [
        {
          "internalType": "uint256",
          "name": "raffleId",
          "type": "uint256"
        }
      ],
      "name": "cancelRaffle",
      "outputs": [],
      "stateMutability": "nonpayable",
      "type": "function"
    },
    {
      "inputs": [],
      "name": "checkAccountingInvariant",
      "outputs": [
        {
          "internalType": "bool",
          "name": "isValid",
          "type": "bool"
        },
        {
          "internalType": "uint256",
          "name": "contractBalance",
          "type": "uint256"
        },
        {
          "internalType": "uint256",
          "name": "reservedFunds",
          "type": "uint256"
        },
        {
          "internalType": "uint256",
          "name": "platformFees",
          "type": "uint256"
        }
      ],
      "stateMutability": "view",
      "type": "function"
    },
    {
      "inputs": [
        {
          "internalType": "uint256",
          "name": "raffleId",
          "type": "uint256"
        },
        {
          "internalType": "uint256",
          "name": "ticketNumber",
          "type": "uint256"
        }
      ],
      "name": "claimRefund",
      "outputs": [],
      "stateMutability": "nonpayable",
      "type": "function"
    },
    {
      "inputs": [
        {
          "internalType": "uint256",
          "name": "templateId",
          "type": "uint256"
        },
        {
          "internalType": "uint256",
          "name": "referenceId",
          "type": "uint256"
        },
        {
          "internalType": "uint256",
          "name": "ticketPrice",
          "type": "uint256"
        },
        {
          "internalType": "uint256",
          "name": "maxTickets",
          "type": "uint256"
        },
        {
          "internalType": "uint256",
          "name": "minTickets",
          "type": "uint256"
        },
        {
          "internalType": "uint256",
          "name": "durationSeconds",
          "type": "uint256"
        }
      ],
      "name": "createRaffle",
      "outputs": [
        {
          "internalType": "uint256",
          "name": "contractRaffleId",
          "type": "uint256"
        }
      ],
      "stateMutability": "nonpayable",
      "type": "function"
    },
    {
      "inputs": [],
      "name": "emergencyPause",
      "outputs": [],
      "stateMutability": "nonpayable",
      "type": "function"
    },
    {
      "inputs": [],
      "name": "emergencyUnpause",
      "outputs": [],
      "stateMutability": "nonpayable",
      "type": "function"
    },
    {
      "inputs": [
        {
          "internalType": "uint256",
          "name": "raffleId",
          "type": "uint256"
        }
      ],
      "name": "executeRaffle",
      "outputs": [],
      "stateMutability": "nonpayable",
      "type": "function"
    },
    {
      "inputs": [
        {
          "internalType": "uint256",
          "name": "raffleId",
          "type": "uint256"
        }
      ],
      "name": "executeRefundBatch",
      "outputs": [],
      "stateMutability": "nonpayable",
      "type": "function"
    },
    {
      "inputs": [
        {
          "internalType": "address",
          "name": "addr",
          "type": "address"
        }
      ],
      "name": "getBlockStatus",
      "outputs": [
        {
          "internalType": "bool",
          "name": "isBlocked",
          "type": "bool"
        },
        {
          "internalType": "string",
          "name": "reason",
          "type": "string"
        }
      ],
      "stateMutability": "view",
      "type": "function"
    },
    {
      "inputs": [
        {
          "internalType": "uint256",
          "name": "raffleId",
          "type": "uint256"
        }
      ],
      "name": "getRaffle",
      "outputs": [
        {
          "internalType": "uint256",
          "name": "id",
          "type": "uint256"
        },
        {
          "internalType": "uint256",
          "name": "ticketPrice",
          "type": "uint256"
        },
        {
          "internalType": "uint256",
          "name": "maxTickets",
          "type": "uint256"
        },
        {
          "internalType": "uint256",
          "name": "minTickets",
          "type": "uint256"
        },
        {
          "internalType": "uint256",
          "name": "currentTickets",
          "type": "uint256"
        },
        {
          "internalType": "uint256",
          "name": "expiresAt",
          "type": "uint256"
        },
        {
          "internalType": "enum RifasPlatform.RaffleStatus",
          "name": "status",
          "type": "uint8"
        }
      ],
      "stateMutability": "view",
      "type": "function"
    },
    {
      "inputs": [
        {
          "internalType": "uint256",
          "name": "raffleId",
          "type": "uint256"
        }
      ],
      "name": "getRaffleVRFRequestId",
      "outputs": [
        {
          "internalType": "uint256",
          "name": "vrfRequestId",
          "type": "uint256"
        }
      ],
      "stateMutability": "view",
      "type": "function"
    },
    {
      "inputs": [],
      "name": "getTokenDecimals",
      "outputs": [
        {
          "internalType": "uint8",
          "name": "decimals",
          "type": "uint8"
        }
      ],
      "stateMutability": "view",
      "type": "function"
    },
    {
      "inputs": [],
      "name": "globalReservedUserFunds",
      "outputs": [
        {
          "internalType": "uint256",
          "name": "",
          "type": "uint256"
        }
      ],
      "stateMutability": "view",
      "type": "function"
    },
    {
      "inputs": [
        {
          "internalType": "uint256",
          "name": "raffleId",
          "type": "uint256"
        },
        {
          "internalType": "address",
          "name": "user",
          "type": "address"
        }
      ],
      "name": "hasTicketInRaffle",
      "outputs": [
        {
          "internalType": "bool",
          "name": "hasTicket",
          "type": "bool"
        }
      ],
      "stateMutability": "view",
      "type": "function"
    },
    {
      "inputs": [],
      "name": "nextRaffleId",
      "outputs": [
        {
          "internalType": "uint256",
          "name": "",
          "type": "uint256"
        }
      ],
      "stateMutability": "view",
      "type": "function"
    },
    {
      "inputs": [],
      "name": "owner",
      "outputs": [
        {
          "internalType": "address",
          "name": "",
          "type": "address"
        }
      ],
      "stateMutability": "view",
      "type": "function"
    },
    {
      "inputs": [],
      "name": "pause",
      "outputs": [],
      "stateMutability": "nonpayable",
      "type": "function"
    },
    {
      "inputs": [],
      "name": "paused",
      "outputs": [
        {
          "internalType": "bool",
          "name": "",
          "type": "bool"
        }
      ],
      "stateMutability": "view",
      "type": "function"
    },
    {
      "inputs": [
        {
          "internalType": "uint256",
          "name": "",
          "type": "uint256"
        }
      ],
      "name": "raffles",
      "outputs": [
        {
          "internalType": "uint256",
          "name": "id",
          "type": "uint256"
        },
        {
          "internalType": "uint256",
          "name": "ticketPrice",
          "type": "uint256"
        },
        {
          "internalType": "uint256",
          "name": "maxTickets",
          "type": "uint256"
        },
        {
          "internalType": "uint256",
          "name": "minTickets",
          "type": "uint256"
        },
        {
          "internalType": "uint256",
          "name": "currentTickets",
          "type": "uint256"
        },
        {
          "internalType": "uint256",
          "name": "expiresAt",
          "type": "uint256"
        },
        {
          "internalType": "enum RifasPlatform.RaffleStatus",
          "name": "status",
          "type": "uint8"
        },
        {
          "internalType": "uint256",
          "name": "vrfRequestId",
          "type": "uint256"
        },
        {
          "internalType": "uint256",
          "name": "templateId",
          "type": "uint256"
        },
        {
          "internalType": "uint256",
          "name": "refundsCompleted",
          "type": "uint256"
        }
      ],
      "stateMutability": "view",
      "type": "function"
    },
    {
      "inputs": [
        {
          "internalType": "uint256",
          "name": "requestId",
          "type": "uint256"
        },
        {
          "internalType": "uint256[]",
          "name": "randomWords",
          "type": "uint256[]"
        }
      ],
      "name": "rawFulfillRandomWords",
      "outputs": [],
      "stateMutability": "nonpayable",
      "type": "function"
    },
    {
      "inputs": [
        {
          "internalType": "address",
          "name": "addr",
          "type": "address"
        }
      ],
      "name": "removeFromBlocklist",
      "outputs": [],
      "stateMutability": "nonpayable",
      "type": "function"
    },
    {
      "inputs": [],
      "name": "renounceOwnership",
      "outputs": [],
      "stateMutability": "nonpayable",
      "type": "function"
    },
    {
      "inputs": [
        {
          "internalType": "uint256",
          "name": "raffleId",
          "type": "uint256"
        }
      ],
      "name": "retryRandomness",
      "outputs": [],
      "stateMutability": "nonpayable",
      "type": "function"
    },
    {
      "inputs": [
        {
          "internalType": "uint256",
          "name": "startId",
          "type": "uint256"
        },
        {
          "internalType": "uint256",
          "name": "endId",
          "type": "uint256"
        }
      ],
      "name": "scanRaffles",
      "outputs": [
        {
          "internalType": "uint256[]",
          "name": "ids",
          "type": "uint256[]"
        },
        {
          "internalType": "enum RifasPlatform.RaffleStatus[]",
          "name": "statuses",
          "type": "uint8[]"
        }
      ],
      "stateMutability": "view",
      "type": "function"
    },
    {
      "inputs": [],
      "name": "totalPlatformFees",
      "outputs": [
        {
          "internalType": "uint256",
          "name": "",
          "type": "uint256"
        }
      ],
      "stateMutability": "view",
      "type": "function"
    },
    {
      "inputs": [
        {
          "internalType": "address",
          "name": "newOwner",
          "type": "address"
        }
      ],
      "name": "transferOwnership",
      "outputs": [],
      "stateMutability": "nonpayable",
      "type": "function"
    },
    {
      "inputs": [],
      "name": "unpause",
      "outputs": [],
      "stateMutability": "nonpayable",
      "type": "function"
    },
    {
      "inputs": [],
      "name": "usdtToken",
      "outputs": [
        {
          "internalType": "contract IERC20",
          "name": "",
          "type": "address"
        }
      ],
      "stateMutability": "view",
      "type": "function"
    },
    {
      "inputs": [
        {
          "internalType": "uint256",
          "name": "",
          "type": "uint256"
        }
      ],
      "name": "vrfRequestToRaffleId",
      "outputs": [
        {
          "internalType": "uint256",
          "name": "",
          "type": "uint256"
        }
      ],
      "stateMutability": "view",
      "type": "function"
    },
    {
      "inputs": [],
      "name": "withdrawPlatformFees",
      "outputs": [],
      "stateMutability": "nonpayable",
      "type": "function"
    }
  ],
  "bytecode": "0x6101006040526001600355348015610015575f5ffd5b506040516139d73803806139d7833981016040819052610034916102c7565b82338061005b57604051631e4fbdf760e01b81525f60048201526024015b60405180910390fd5b6100648161025d565b50600180556001600160a01b0390811660805284166100c55760405162461bcd60e51b815260206004820152601460248201527f496e76616c6964205553445420616464726573730000000000000000000000006044820152606401610052565b6001600160a01b03831661011b5760405162461bcd60e51b815260206004820152601760248201527f496e76616c69642056524620636f6f7264696e61746f720000000000000000006044820152606401610052565b6001600160a01b03841660a08190526040805163313ce56760e01b8152905163313ce567916004808201926020929091908290030181865afa925050508015610181575060408051601f3d908101601f1916820190925261017e9181019061031d565b60015b6101cd5760405162461bcd60e51b815260206004820152601e60248201527f55534454206d75737420696d706c656d656e7420646563696d616c73282900006044820152606401610052565b8060ff166012146102205760405162461bcd60e51b815260206004820152601960248201527f55534454206d7573742075736520313820646563696d616c73000000000000006044820152606401610052565b50600280546001600160a01b0390941661010002610100600160a81b0319909416939093179092556001600160401b031660c05260e05250610344565b5f80546001600160a01b038381166001600160a01b0319831681178455604051919092169283917f8be0079c531659141344cd1fd0a4f28419497f9722a3daafe3b4186f6b6457e09190a35050565b80516001600160a01b03811681146102c2575f5ffd5b919050565b5f5f5f5f608085870312156102da575f5ffd5b6102e3856102ac565b93506102f1602086016102ac565b60408601519093506001600160401b038116811461030d575f5ffd5b6060959095015193969295505050565b5f6020828403121561032d575f5ffd5b815160ff8116811461033d575f5ffd5b9392505050565b60805160a05160c05160e0516136286103af5f395f61294f01525f61297d01525f8181610477015281816105e7015281816107fc015281816112fc0152818161160301528181611e14015281816120de0152612bd501525f818161067d01526106bf01526136285ff3fe608060405234801561000f575f5ffd5b5060043610610234575f3560e01c80638456cb5911610135578063d0b7830b116100b4578063e4dafec911610079578063e4dafec914610526578063e5c7160b1461054c578063e808f34b1461056e578063ee59777e1461058e578063f2fde38b146105af575f5ffd5b8063d0b7830b146104f1578063d3631fa5146104f9578063d665b67d14610502578063e1f1c4a71461050a578063e4be261d14610513575f5ffd5b8063a98ad46c116100fa578063a98ad46c14610472578063af0e59bc14610499578063b678b370146104ac578063bc41082e146104cb578063c47ca91b146104de575f5ffd5b80638456cb59146104175780638458e3e41461041f5780638527d58f146104285780638da5cb5b1461043b578063a314637e1461045f575f5ffd5b80634a4e3bd5116101c15780635fba3171116101865780635fba3171146103cd57806360314b1f146103e057806366ea762c146103e957806367dd74ca146103fc578063715018a61461040f575f5ffd5b80634a4e3bd51461032557806351858e271461032d578063592ca850146103355780635c975abb146103485780635d4bc0ce14610353575f5ffd5b80632463bef6116102075780632463bef6146102bc57806324f65ee7146102cf578063348e4774146102e9578063350c6c441461030a5780633f4ba83a1461031d575f5ffd5b80630333ac9e146102385780631fe543e3146102675780631ff6da211461027c57806323d1b06c1461029f575b5f5ffd5b6102406105c2565b60408051941515855260208501939093529183015260608201526080015b60405180910390f35b61027a610275366004612e02565b610672565b005b61028f61028a366004612eee565b6106ff565b604051901515815260200161025e565b6102ae670de0b6b3a764000081565b60405190815260200161025e565b6102ae6102ca366004612f18565b610789565b6102d76107f9565b60405160ff909116815260200161025e565b6102fc6102f7366004612f2f565b61087f565b60405161025e929190612f76565b6102ae610318366004612f98565b61093a565b61027a610bda565b61027a610bec565b61027a610c2a565b61027a610343366004612f2f565b610c68565b60025460ff1661028f565b6103b7610361366004612f18565b600660208190525f9182526040909120805460018201546002830154600384015460048501546005860154968601546009870154600a880154600b9098015496989597949693959294929360ff9092169290918a565b60405161025e9a9998979695949392919061300b565b61027a6103db366004612f18565b610d6e565b6102ae60055481565b61027a6103f7366004612f18565b610edd565b61027a61040a366004612f18565b6110cb565b61027a6113d9565b61027a6113ea565b6102ae60035481565b61027a610436366004613064565b6113fa565b5f546001600160a01b03165b6040516001600160a01b03909116815260200161025e565b61027a61046d366004613084565b6116a7565b6104477f000000000000000000000000000000000000000000000000000000000000000081565b61027a6104a7366004612f18565b6117a1565b6102ae6104ba366004612f18565b60076020525f908152604090205481565b61027a6104d9366004613147565b6118e7565b61027a6104ec366004613185565b611ae2565b61027a611da0565b6102ae60045481565b6102ae60c881565b6102ae61271081565b61027a610521366004612f18565b611e90565b610539610534366004612f18565b612267565b60405161025e97969594939291906131ef565b61028f61055a366004612f2f565b60086020525f908152604090205460ff1681565b61058161057c366004612f2f565b61230f565b60405161025e9190613230565b6105a161059c366004613064565b6123a6565b60405161025e929190613242565b61027a6105bd366004612f2f565b61260f565b6040516370a0823160e01b81523060048201525f908190819081906001600160a01b037f000000000000000000000000000000000000000000000000000000000000000016906370a0823190602401602060405180830381865afa15801561062c573d5f5f3e3d5ffd5b505050506040513d601f19601f8201168201806040525081019061065091906132ca565b6005546004549194509250905061066781836132f5565b831015935090919293565b336001600160a01b037f000000000000000000000000000000000000000000000000000000000000000016146106f15760405163073e64fd60e21b81523360048201526001600160a01b037f00000000000000000000000000000000000000000000000000000000000000001660248201526044015b60405180910390fd5b6106fb8282612649565b5050565b5f825f81118015610711575060035481105b61072d5760405162461bcd60e51b81526004016106e89061330e565b5f8181526006602052604081205490036107595760405162461bcd60e51b81526004016106e89061333d565b50505f9182526006602090815260408084206001600160a01b039390931684526008909201905290205460ff1690565b5f815f8111801561079b575060035481105b6107b75760405162461bcd60e51b81526004016106e89061330e565b5f8181526006602052604081205490036107e35760405162461bcd60e51b81526004016106e89061333d565b50505f9081526006602052604090206009015490565b5f7f00000000000000000000000000000000000000000000000000000000000000006001600160a01b031663313ce5676040518163ffffffff1660e01b8152600401602060405180830381865afa158015610856573d5f5f3e3d5ffd5b505050506040513d601f19601f8201168201806040525081019061087a9190613374565b905090565b6001600160a01b0381165f908152600860209081526040808320546009909252909120805460ff90921691606091906108b790613394565b80601f01602080910402602001604051908101604052809291908181526020018280546108e390613394565b801561092e5780601f106109055761010080835404028352916020019161092e565b820191905f5260205f20905b81548152906001019060200180831161091157829003601f168201915b50505050509050915091565b5f61094361273f565b61094b61276b565b61095361278f565b5f85116109a25760405162461bcd60e51b815260206004820152601d60248201527f5469636b6574207072696365206d75737420626520706f73697469766500000060448201526064016106e8565b5f84116109f15760405162461bcd60e51b815260206004820152601c60248201527f4d6178207469636b657473206d75737420626520706f7369746976650000000060448201526064016106e8565b5f83118015610a005750838311155b610a425760405162461bcd60e51b8152602060048201526013602482015272496e76616c6964206d696e207469636b65747360681b60448201526064016106e8565b5f8211610a915760405162461bcd60e51b815260206004820152601960248201527f4475726174696f6e206d75737420626520706f7369746976650000000000000060448201526064016106e8565b5f610a9c86856133cc565b90505f610aa8826127b9565b9050808211610b0e5760405162461bcd60e51b815260206004820152602c60248201527f4d696e20706f6f6c20696e73756666696369656e7420746f20636f766572207060448201526b6c6174666f726d206665657360a01b60648201526084016106e8565b60038054905f610b1d836133e3565b909155505f818152600660205260408120828155600181018a905560028101899055600381018890556004810191909155909350610b5b85426132f5565b6005820181905560068201805460ff19169055600a82018b9055604080518a8152602081018a9052908101889052606081019190915289908b9086907f8fc4432049bb3dc4624db5e2842ce62f3644222ed3d957d67f940b56b85c9c8a9060800160405180910390a4505050610bd060018055565b9695505050505050565b610be261273f565b610bea6127ee565b565b610bf461273f565b610bfc6127ee565b604051429033907fdacac23d353cc4fe05be85350ed1e8227ed9edf2323b7cb5aad3174e6a9ce1d6905f90a3565b610c3261273f565b610c3a612840565b604051429033907f2e31b3b12b9bb0e82c32f27df5f234fabc95a374f54fd287a7132878d5dc9fc3905f90a3565b610c7061273f565b610c7861278f565b6001600160a01b038116610c9e5760405162461bcd60e51b81526004016106e8906133fb565b6001600160a01b0381165f9081526008602052604090205460ff16610cfb5760405162461bcd60e51b81526020600482015260136024820152721059191c995cdcc81b9bdd08189b1bd8dad959606a1b60448201526064016106e8565b6001600160a01b0381165f908152600860209081526040808320805460ff1916905560099091528120610d2d91612d88565b60405142906001600160a01b038316907f0ccaefd9d2631e53c2ba7f5e4a105d4b2921b85e7e4b0170f946dce574c11c18905f90a3610d6b60018055565b50565b610d7661273f565b805f81118015610d87575060035481105b610da35760405162461bcd60e51b81526004016106e89061330e565b5f818152600660205260408120549003610dcf5760405162461bcd60e51b81526004016106e89061333d565b610dd761278f565b5f82815260066020526040812090600682015460ff166003811115610dfe57610dfe612fd7565b1480610e2257506001600682015460ff166003811115610e2057610e20612fd7565b145b610e815760405162461bcd60e51b815260206004820152602a60248201527f43616e206f6e6c792063616e63656c2046494c4c494e47206f722044524157496044820152694e4720726166666c657360b01b60648201526084016106e8565b6001600682015460ff166003811115610e9c57610e9c612fd7565b148015610eac5750600981015415155b15610eca576009810180545f90815260076020526040812081905590555b610ed38361287d565b506106fb60018055565b610ee561273f565b805f81118015610ef6575060035481105b610f125760405162461bcd60e51b81526004016106e89061330e565b5f818152600660205260408120549003610f3e5760405162461bcd60e51b81526004016106e89061333d565b610f4661278f565b610f4e61276b565b5f82815260066020526040812090600682015460ff166003811115610f7557610f75612fd7565b14610fc25760405162461bcd60e51b815260206004820152601c60248201527f526166666c65206e6f7420696e2066696c6c696e67207374617475730000000060448201526064016106e8565b806002015481600401541480610fef575080600501544210158015610fef57508060030154816004015410155b61103b5760405162461bcd60e51b815260206004820152601e60248201527f526166666c65206e6f7420726561647920666f7220657865637574696f6e000060448201526064016106e8565b5f8160010154826004015461105091906133cc565b90505f61105c826127b9565b90508181106110a65760068301805460ff1916600317905560405185907f7fa78bab5d5570f162c69234a3f4d1b9294fd5bca72219cb16c1fe38839ccb8a905f90a25050506110c2565b60068301805460ff191660011790556110be856128c8565b5050505b6106fb60018055565b805f811180156110dc575060035481105b6110f85760405162461bcd60e51b81526004016106e89061330e565b5f8181526006602052604081205490036111245760405162461bcd60e51b81526004016106e89061333d565b815f5f828152600660208190526040909120015460ff16600381111561114c5761114c612fd7565b146111995760405162461bcd60e51b815260206004820152601c60248201527f526166666c65206e6f7420616363657074696e67207469636b6574730000000060448201526064016106e8565b6111a161278f565b6111a961276b565b5f83815260066020908152604080832033845260089092529091205460ff16156112075760405162461bcd60e51b815260206004820152600f60248201526e1059191c995cdcc8189b1bd8dad959608a1b60448201526064016106e8565b8060050154421061124b5760405162461bcd60e51b815260206004820152600e60248201526d149859999b1948195e1c1a5c995960921b60448201526064016106e8565b335f90815260088201602052604090205460ff16156112a15760405162461bcd60e51b8152602060048201526012602482015271105b1c9958591e481a185cc81d1a58dad95d60721b60448201526064016106e8565b80600201548160040154106112e95760405162461bcd60e51b815260206004820152600e60248201526d149859999b19481a5cc8199d5b1b60921b60448201526064016106e8565b6001810154611326906001600160a01b037f0000000000000000000000000000000000000000000000000000000000000000169033903090612a5b565b600781018054600181810183555f928352602080842090920180546001600160a01b0319163390811790915583526008840190915260408220805460ff191690911790556004820180549161137a836133e3565b9190505550806001015460055f82825461139491906132f5565b90915550506004810154604051339086907f913d09b391f64143215d9312fd7e8ecaa06001c646789c9d2109dc515bc34fad905f90a4506113d460018055565b505050565b6113e161273f565b610bea5f612ac2565b6113f261273f565b610bea612840565b815f8111801561140b575060035481105b6114275760405162461bcd60e51b81526004016106e89061330e565b5f8181526006602052604081205490036114535760405162461bcd60e51b81526004016106e89061333d565b61145b61278f565b5f8381526006602052604090206003600682015460ff16600381111561148357611483612fd7565b146114c75760405162461bcd60e51b8152602060048201526014602482015273149859999b19481b9bdd0818d85b98d95b1b195960621b60448201526064016106e8565b5f831180156114da575080600401548311155b61151e5760405162461bcd60e51b815260206004820152601560248201527424b73b30b634b2103a34b1b5b2ba10373ab6b132b960591b60448201526064016106e8565b5f61152a600185613424565b9050336001600160a01b031682600701828154811061154b5761154b613437565b5f918252602090912001546001600160a01b03161461159e5760405162461bcd60e51b815260206004820152600f60248201526e139bdd081e5bdd5c881d1a58dad95d608a1b60448201526064016106e8565b335f90815260088301602052604090205460ff166115f15760405162461bcd60e51b815260206004820152601060248201526f105b1c9958591e481c99599d5b99195960821b60448201526064016106e8565b600182015461162a6001600160a01b037f0000000000000000000000000000000000000000000000000000000000000000163383612b11565b335f9081526008840160205260408120805460ff19169055600b8401805491611652836133e3565b91905055508060055f8282546116689190613424565b90915550506040518190339088907f7a482fdeb6bc9a1376f597068a214a7a39472bb2eff1b8cad21ba04f49ddca1b905f90a45050506113d460018055565b6116af61273f565b6116b761278f565b6001600160a01b0383166116dd5760405162461bcd60e51b81526004016106e8906133fb565b8061171c5760405162461bcd60e51b815260206004820152600f60248201526e1499585cdbdb881c995c5d5a5c9959608a1b60448201526064016106e8565b6001600160a01b0383165f908152600860209081526040808320805460ff191660011790556009909152902061175382848361348f565b5042836001600160a01b03167f5773bf4e7c421b9769b61bdf7ee064c30bfa3244c26f78e3dcbf9a3764f0278c8484604051611790929190613548565b60405180910390a36113d460018055565b6117a961273f565b805f811180156117ba575060035481105b6117d65760405162461bcd60e51b81526004016106e89061330e565b5f8181526006602052604081205490036118025760405162461bcd60e51b81526004016106e89061333d565b61180a61278f565b61181261276b565b5f8281526006602052604090206001600682015460ff16600381111561183a5761183a612fd7565b146118875760405162461bcd60e51b815260206004820152601c60248201527f526166666c65206e6f7420696e2064726177696e67207374617475730000000060448201526064016106e8565b6009810154156118a55760098101545f908152600760205260408120555b6118ae836128c8565b600981015460405184907fab13c26ee0c8434df83350b0f67d7ee67ecd0bc6b13440853b3150614579f795905f90a3506106fb60018055565b6118ef61273f565b6118f761278f565b5f5b81811015610ed3575f83838381811061191457611914613437565b602090810292909201355f8181526006909352604090922091925060029050600682015460ff16600381111561194c5761194c612fd7565b148061197057506003600682015460ff16600381111561196e5761196e612fd7565b145b6119d15760405162461bcd60e51b815260206004820152602c60248201527f43616e206f6e6c79206172636869766520636f6d706c657465642f63616e636560448201526b6c6c656420726166666c657360a01b60648201526084016106e8565b6003600682015460ff1660038111156119ec576119ec612fd7565b03611a5657806004015481600b015414611a565760405162461bcd60e51b815260206004820152602560248201527f43616e6e6f7420617263686976653a2070656e64696e6720726566756e647320604482015264195e1a5cdd60da1b60648201526084016106e8565b600981015415611a745760098101545f908152600760205260408120555b5f82815260066020819052604082208281556001810183905560028101839055600381018390556004810183905560058101839055908101805460ff1916905590611ac26007830182612dbf565b505f60098201819055600a8201819055600b9091015550506001016118f9565b611aea61273f565b611af261278f565b6064831115611b375760405162461bcd60e51b815260206004820152601160248201527009ac2f04062606040e0cae440c4c2e8c6d607b1b60448201526064016106e8565b828114611b785760405162461bcd60e51b815260206004820152600f60248201526e098cadccee8d040dad2e6dac2e8c6d608b1b60448201526064016106e8565b5f5b83811015611d90575f858583818110611b9557611b95613437565b9050602002016020810190611baa9190612f2f565b6001600160a01b031603611bd05760405162461bcd60e51b81526004016106e8906133fb565b5f838383818110611be357611be3613437565b9050602002810190611bf59190613576565b905011611c365760405162461bcd60e51b815260206004820152600f60248201526e1499585cdbdb881c995c5d5a5c9959608a1b60448201526064016106e8565b600160085f878785818110611c4d57611c4d613437565b9050602002016020810190611c629190612f2f565b6001600160a01b0316815260208101919091526040015f20805460ff1916911515919091179055828282818110611c9b57611c9b613437565b9050602002810190611cad9190613576565b60095f888886818110611cc257611cc2613437565b9050602002016020810190611cd79190612f2f565b6001600160a01b0316815260208101919091526040015f2091611cfb91908361348f565b5042858583818110611d0f57611d0f613437565b9050602002016020810190611d249190612f2f565b6001600160a01b03167f5773bf4e7c421b9769b61bdf7ee064c30bfa3244c26f78e3dcbf9a3764f0278c858585818110611d6057611d60613437565b9050602002810190611d729190613576565b604051611d80929190613548565b60405180910390a3600101611b7a565b50611d9a60018055565b50505050565b611da861273f565b611db061278f565b60045480611df65760405162461bcd60e51b81526020600482015260136024820152724e6f206665657320746f20776974686472617760681b60448201526064016106e8565b611e3b611e0a5f546001600160a01b031690565b6001600160a01b037f0000000000000000000000000000000000000000000000000000000000000000169083612b11565b5f60045580611e515f546001600160a01b031690565b6001600160a01b03167ffc7ad544ff6a06d6499925723d25b6fe70457a42939995b1d3d6f560fe33633360405160405180910390a350610bea60018055565b611e9861273f565b805f81118015611ea9575060035481105b611ec55760405162461bcd60e51b81526004016106e89061330e565b5f818152600660205260408120549003611ef15760405162461bcd60e51b81526004016106e89061333d565b611ef961278f565b5f82815260066020526040812090600682015460ff166003811115611f2057611f20612fd7565b14611f6d5760405162461bcd60e51b815260206004820152601c60248201527f526166666c65206e6f7420696e2066696c6c696e67207374617475730000000060448201526064016106e8565b8060050154421015611fb65760405162461bcd60e51b8152602060048201526012602482015271149859999b19481b9bdd08195e1c1a5c995960721b60448201526064016106e8565b806003015481600401541061200d5760405162461bcd60e51b815260206004820152601a60248201527f4d65657473206d696e696d756d207061727469636970616e747300000000000060448201526064016106e8565b6064816004015411156120745760405162461bcd60e51b815260206004820152602960248201527f546f6f206d616e79207469636b6574732c2075736520636c61696d526566756e60448201526819081a5b9cdd19585960ba1b60648201526084016106e8565b5f80805b8360040154811015612189575f84600701828154811061209a5761209a613437565b5f9182526020808320909101546001600160a01b03168083526008880190915260409091205490915060ff1615612180576001850154612106906001600160a01b037f000000000000000000000000000000000000000000000000000000000000000016908390612b11565b6001600160a01b0381165f9081526008860160205260409020805460ff19169055600185015461213690856132f5565b9350612141836133e3565b92508460010154816001600160a01b0316887f7a482fdeb6bc9a1376f597068a214a7a39472bb2eff1b8cad21ba04f49ddca1b60405160405180910390a45b50600101612078565b508160055f82825461219b9190613424565b90915550506040518290829087907f4ec7e56c3033a6bd83b9349e021aec6978d1fb9d8aa84ee11e0cf7a996fc0407905f90a460405185907f7fa78bab5d5570f162c69234a3f4d1b9294fd5bca72219cb16c1fe38839ccb8a905f90a25f85815260066020819052604082208281556001810183905560028101839055600381018390556004810183905560058101839055908101805460ff19169055906122466007830182612dbf565b505f60098201819055600a8201819055600b90910155505060018055505050565b5f5f5f5f5f5f5f875f8111801561227f575060035481105b61229b5760405162461bcd60e51b81526004016106e89061330e565b5f8181526006602052604081205490036122c75760405162461bcd60e51b81526004016106e89061333d565b5050505f95865250506006602081905260409094208054600182015460028301546003840154600485015460058601549590990154939992989197509550935060ff90911690565b60096020525f90815260409020805461232790613394565b80601f016020809104026020016040519081016040528092919081815260200182805461235390613394565b801561239e5780601f106123755761010080835404028352916020019161239e565b820191905f5260205f20905b81548152906001019060200180831161238157829003601f168201915b505050505081565b6060806123b161273f565b8284106123f05760405162461bcd60e51b815260206004820152600d60248201526c496e76616c69642072616e676560981b60448201526064016106e8565b6003548311156124425760405162461bcd60e51b815260206004820152601860248201527f456e642065786365656473206e657874526166666c654964000000000000000060448201526064016106e8565b6103e861244f8585613424565b111561249d5760405162461bcd60e51b815260206004820152601a60248201527f52616e676520746f6f206c6172676520286d617820313030302900000000000060448201526064016106e8565b5f845b848110156124cf575f81815260066020526040902054156124c7576124c4826133e3565b91505b6001016124a0565b50806001600160401b038111156124e8576124e8612dee565b604051908082528060200260200182016040528015612511578160200160208202803683370190505b509250806001600160401b0381111561252c5761252c612dee565b604051908082528060200260200182016040528015612555578160200160208202803683370190505b5091505f855b85811015612605575f81815260066020526040902054156125fd578085838151811061258957612589613437565b6020908102919091018101919091525f828152600691829052604090200154845160ff909116908590849081106125c2576125c2613437565b602002602001019060038111156125db576125db612fd7565b908160038111156125ee576125ee612fd7565b9052506125fa826133e3565b91505b60010161255b565b5050509250929050565b61261761273f565b6001600160a01b03811661264057604051631e4fbdf760e01b81525f60048201526024016106e8565b610d6b81612ac2565b5f828152600760205260408120549081900361269c5760405162461bcd60e51b8152602060048201526012602482015271125b9d985b1a59081c995c5d595cdd08125160721b60448201526064016106e8565b5f8181526006602052604090206001600682015460ff1660038111156126c4576126c4612fd7565b146127115760405162461bcd60e51b815260206004820152601c60248201527f526166666c65206e6f7420696e2064726177696e67207374617475730000000060448201526064016106e8565b5f835f8151811061272457612724613437565b602002602001015190506127388382612b42565b5050505050565b5f546001600160a01b03163314610bea5760405163118cdaa760e01b81523360048201526024016106e8565b60025460ff1615610bea5760405163d93c066560e01b815260040160405180910390fd5b6002600154036127b257604051633ee5aeb560e01b815260040160405180910390fd5b6002600155565b5f806127106127c960c8856133cc565b6127d391906135cc565b90506127e781670de0b6b3a76400006132f5565b9392505050565b6127f6612cf9565b6002805460ff191690557f5db9ee0a495bf2e6ff9c91a7834c1ba4fdd244a5e8aa4e537bd38aeae4b073aa335b6040516001600160a01b03909116815260200160405180910390a1565b61284861276b565b6002805460ff191660011790557f62e78cea01bee320cd4e420270b5ea74000d11b0c9f74754ebdbfc544b05a2586128233390565b5f818152600660208190526040808320918201805460ff1916600317905551909183917f7fa78bab5d5570f162c69234a3f4d1b9294fd5bca72219cb16c1fe38839ccb8a9190a25050565b5f8181526006602052604090206001600682015460ff1660038111156128f0576128f0612fd7565b1461293d5760405162461bcd60e51b815260206004820181905260248201527f526166666c65206d75737420626520696e2044524157494e472073746174757360448201526064016106e8565b6002546040516305d3b1d360e41b81527f000000000000000000000000000000000000000000000000000000000000000060048201526001600160401b037f0000000000000000000000000000000000000000000000000000000000000000166024820152600360448201526203d0906064820152600160848201525f9161010090046001600160a01b031690635d3b1d309060a4016020604051808303815f875af11580156129ef573d5f5f3e3d5ffd5b505050506040513d601f19601f82011682018060405250810190612a1391906132ca565b600983018190555f8181526007602052604080822086905551919250829185917f3d94fecedaa4f90b8bd459797adb95f5bb11426025c5541390d9ccc1ad1b60a191a3505050565b6040516001600160a01b038481166024830152838116604483015260648201839052611d9a9186918216906323b872dd906084015b604051602081830303815290604052915060e01b6020820180516001600160e01b038381831617835250505050612d1c565b5f80546001600160a01b038381166001600160a01b0319831681178455604051919092169283917f8be0079c531659141344cd1fd0a4f28419497f9722a3daafe3b4186f6b6457e09190a35050565b6040516001600160a01b038381166024830152604482018390526113d491859182169063a9059cbb90606401612a90565b5f82815260066020526040812060048101546001820154919291612b6691906133cc565b90505f612b72826127b9565b90505f612b7f8284613424565b600a8501546009860154600487015492935090915f90612b9f90896135df565b90505f876007018281548110612bb757612bb7613437565b5f918252602090912001546001600160a01b039081169150612bfc907f0000000000000000000000000000000000000000000000000000000000000000168287612b11565b8560045f828254612c0d91906132f5565b925050819055508660055f828254612c259190613424565b909155505060408051868152602081018890529081018a90526001600160a01b0382169085908c907fd3a62d4818ae90e3fa377a41a384af90b8a070e4b4ca5bf8ce3382ad664085eb9060600160405180910390a45f8381526007602081815260408084208490558d845260069182905283208381556001810184905560028101849055600381018490556004810184905560058101849055908101805460ff191690559190612cd790830182612dbf565b505f60098201819055600a8201819055600b9091015550505050505050505050565b60025460ff16610bea57604051638dfc202b60e01b815260040160405180910390fd5b5f5f60205f8451602086015f885af180612d3b576040513d5f823e3d81fd5b50505f513d91508115612d52578060011415612d5f565b6001600160a01b0384163b155b15611d9a57604051635274afe760e01b81526001600160a01b03851660048201526024016106e8565b508054612d9490613394565b5f825580601f10612da3575050565b601f0160209004905f5260205f2090810190610d6b9190612dd6565b5080545f8255905f5260205f2090810190610d6b91905b5b80821115612dea575f8155600101612dd7565b5090565b634e487b7160e01b5f52604160045260245ffd5b5f5f60408385031215612e13575f5ffd5b8235915060208301356001600160401b03811115612e2f575f5ffd5b8301601f81018513612e3f575f5ffd5b80356001600160401b03811115612e5857612e58612dee565b8060051b604051601f19603f83011681018181106001600160401b0382111715612e8457612e84612dee565b604052918252602081840181019290810188841115612ea1575f5ffd5b6020850194505b83851015612ec457843580825260209586019590935001612ea8565b50809450505050509250929050565b80356001600160a01b0381168114612ee9575f5ffd5b919050565b5f5f60408385031215612eff575f5ffd5b82359150612f0f60208401612ed3565b90509250929050565b5f60208284031215612f28575f5ffd5b5035919050565b5f60208284031215612f3f575f5ffd5b6127e782612ed3565b5f81518084528060208401602086015e5f602082860101526020601f19601f83011685010191505092915050565b8215158152604060208201525f612f906040830184612f48565b949350505050565b5f5f5f5f5f5f60c08789031215612fad575f5ffd5b505084359660208601359650604086013595606081013595506080810135945060a0013592509050565b634e487b7160e01b5f52602160045260245ffd5b6004811061300757634e487b7160e01b5f52602160045260245ffd5b9052565b5f610140820190508b82528a60208301528960408301528860608301528760808301528660a083015261304160c0830187612feb565b8460e083015283610100830152826101208301529b9a5050505050505050505050565b5f5f60408385031215613075575f5ffd5b50508035926020909101359150565b5f5f5f60408486031215613096575f5ffd5b61309f84612ed3565b925060208401356001600160401b038111156130b9575f5ffd5b8401601f810186136130c9575f5ffd5b80356001600160401b038111156130de575f5ffd5b8660208284010111156130ef575f5ffd5b939660209190910195509293505050565b5f5f83601f840112613110575f5ffd5b5081356001600160401b03811115613126575f5ffd5b6020830191508360208260051b8501011115613140575f5ffd5b9250929050565b5f5f60208385031215613158575f5ffd5b82356001600160401b0381111561316d575f5ffd5b61317985828601613100565b90969095509350505050565b5f5f5f5f60408587031215613198575f5ffd5b84356001600160401b038111156131ad575f5ffd5b6131b987828801613100565b90955093505060208501356001600160401b038111156131d7575f5ffd5b6131e387828801613100565b95989497509550505050565b5f60e0820190508882528760208301528660408301528560608301528460808301528360a083015261322460c0830184612feb565b98975050505050505050565b602081525f6127e76020830184612f48565b604080825283519082018190525f9060208501906060840190835b8181101561327b57835183526020938401939092019160010161325d565b5050838103602080860191909152855180835291810192508501905f5b818110156132be576132ab848451612feb565b6020938401939290920191600101613298565b50919695505050505050565b5f602082840312156132da575f5ffd5b5051919050565b634e487b7160e01b5f52601160045260245ffd5b80820180821115613308576133086132e1565b92915050565b602080825260159082015274149859999b1948191bd95cc81b9bdd08195e1a5cdd605a1b604082015260600190565b60208082526018908201527f526166666c6520686173206265656e2061726368697665640000000000000000604082015260600190565b5f60208284031215613384575f5ffd5b815160ff811681146127e7575f5ffd5b600181811c908216806133a857607f821691505b6020821081036133c657634e487b7160e01b5f52602260045260245ffd5b50919050565b8082028115828204841417613308576133086132e1565b5f600182016133f4576133f46132e1565b5060010190565b6020808252600f908201526e496e76616c6964206164647265737360881b604082015260600190565b81810381811115613308576133086132e1565b634e487b7160e01b5f52603260045260245ffd5b601f8211156113d457805f5260205f20601f840160051c810160208510156134705750805b601f840160051c820191505b81811015612738575f815560010161347c565b6001600160401b038311156134a6576134a6612dee565b6134ba836134b48354613394565b8361344b565b5f601f8411600181146134eb575f85156134d45750838201355b5f19600387901b1c1916600186901b178355612738565b5f83815260208120601f198716915b8281101561351a57868501358255602094850194600190920191016134fa565b5086821015613536575f1960f88860031b161c19848701351681555b505060018560011b0183555050505050565b60208152816020820152818360408301375f818301604090810191909152601f909201601f19160101919050565b5f5f8335601e1984360301811261358b575f5ffd5b8301803591506001600160401b038211156135a4575f5ffd5b602001915036819003821315613140575f5ffd5b634e487b7160e01b5f52601260045260245ffd5b5f826135da576135da6135b8565b500490565b5f826135ed576135ed6135b8565b50069056fea2646970667358221220cad17c48819a80e4cbae6bca2e98b7497d8e96e4171bebfe4c7931577799a1c864736f6c634300081c0033",
  "linkReferences": {},
  "deployedLinkReferences": {},
  "immutableReferences": {
    "10": [
      {
        "length": 32,
        "start": 1661
      },
      {
        "length": 32,
        "start": 1727
      }
    ],
    "1204": [
      {
        "length": 32,
        "start": 1143
      },
      {
        "length": 32,
        "start": 1511
      },
      {
        "length": 32,
        "start": 2044
      },
      {
        "length": 32,
        "start": 4860
      },
      {
        "length": 32,
        "start": 5635
      },
      {
        "length": 32,
        "start": 7700
      },
      {
        "length": 32,
        "start": 8414
      },
      {
        "length": 32,
        "start": 11221
      }
    ],
    "1218": [
      {
        "length": 32,
        "start": 10621
      }
    ],
    "1220": [
      {
        "length": 32,
        "start": 10575
      }
    ]
  },
  "inputSourceName": "project/contracts/RifasPlatform.sol",
  "buildInfoId": "solc-0_8_28-9f7f0875b3d32b1febb8102eb1682281a3ebb800"
}