{
  "_format": "hh3-artifact-1",
  "contractName": "RifasPlatform",
  "sourceName": "contracts/RifasPlatform.sol",
  "abi": [
    {
      "inputs": [
        {
          "internalType": "address",
          "name": "_usdtToken",
          "type": "address"
        },
        {
          "internalType": "address",
          "name": "_vrfCoordinator",
          "type": "address"
        },
        {
          "internalType": "uint64",
          "name": "_subscriptionId",
          "type": "uint64"
        },
        {
          "internalType": "bytes32",
          "name": "_keyHash",
          "type": "bytes32"
        }
      ],
      "stateMutability": "nonpayable",
      "type": "constructor"
    },
    {
      "inputs": [],
      "name": "EnforcedPause",
      "type": "error"
    },
    {
      "inputs": [],
      "name": "ExpectedPause",
      "type": "error"
    },
    {
      "inputs": [
        {
          "internalType": "address",
          "name": "have",
          "type": "address"
        },
        {
          "internalType": "address",
          "name": "want",
          "type": "address"
        }
      ],
      "name": "OnlyCoordinatorCanFulfill",
      "type": "error"
    },
    {
      "inputs": [
        {
          "internalType": "address",
          "name": "owner",
          "type": "address"
        }
      ],
      "name": "OwnableInvalidOwner",
      "type": "error"
    },
    {
      "inputs": [
        {
          "internalType": "address",
          "name": "account",
          "type": "address"
        }
      ],
      "name": "OwnableUnauthorizedAccount",
      "type": "error"
    },
    {
      "inputs": [],
      "name": "ReentrancyGuardReentrantCall",
      "type": "error"
    },
    {
      "inputs": [
        {
          "internalType": "address",
          "name": "token",
          "type": "address"
        }
      ],
      "name": "SafeERC20FailedOperation",
      "type": "error"
    },
    {
      "anonymous": false,
      "inputs": [
        {
          "indexed": true,
          "internalType": "address",
          "name": "admin",
          "type": "address"
        },
        {
          "indexed": true,
          "internalType": "uint256",
          "name": "timestamp",
          "type": "uint256"
        }
      ],
      "name": "EmergencyPaused",
      "type": "event"
    },
    {
      "anonymous": false,
      "inputs": [
        {
          "indexed": true,
          "internalType": "address",
          "name": "admin",
          "type": "address"
        },
        {
          "indexed": true,
          "internalType": "uint256",
          "name": "timestamp",
          "type": "uint256"
        }
      ],
      "name": "EmergencyUnpaused",
      "type": "event"
    },
    {
      "anonymous": false,
      "inputs": [
        {
          "indexed": true,
          "internalType": "address",
          "name": "previousOwner",
          "type": "address"
        },
        {
          "indexed": true,
          "internalType": "address",
          "name": "newOwner",
          "type": "address"
        }
      ],
      "name": "OwnershipTransferred",
      "type": "event"
    },
    {
      "anonymous": false,
      "inputs": [
        {
          "indexed": false,
          "internalType": "address",
          "name": "account",
          "type": "address"
        }
      ],
      "name": "Paused",
      "type": "event"
    },
    {
      "anonymous": false,
      "inputs": [
        {
          "indexed": true,
          "internalType": "address",
          "name": "owner",
          "type": "address"
        },
        {
          "indexed": true,
          "internalType": "uint256",
          "name": "amount",
          "type": "uint256"
        }
      ],
      "name": "PlatformFeesWithdrawn",
      "type": "event"
    },
    {
      "anonymous": false,
      "inputs": [
        {
          "indexed": true,
          "internalType": "uint256",
          "name": "raffleId",
          "type": "uint256"
        }
      ],
      "name": "RaffleCancelled",
      "type": "event"
    },
    {
      "anonymous": false,
      "inputs": [
        {
          "indexed": true,
          "internalType": "uint256",
          "name": "raffleId",
          "type": "uint256"
        },
        {
          "indexed": true,
          "internalType": "uint256",
          "name": "templateId",
          "type": "uint256"
        },
        {
          "indexed": true,
          "internalType": "address",
          "name": "winner",
          "type": "address"
        },
        {
          "indexed": false,
          "internalType": "uint256",
          "name": "prizeAmount",
          "type": "uint256"
        },
        {
          "indexed": false,
          "internalType": "uint256",
          "name": "platformFee",
          "type": "uint256"
        },
        {
          "indexed": false,
          "internalType": "uint256",
          "name": "randomNumber",
          "type": "uint256"
        }
      ],
      "name": "RaffleCompleted",
      "type": "event"
    },
    {
      "anonymous": false,
      "inputs": [
        {
          "indexed": true,
          "internalType": "uint256",
          "name": "contractRaffleId",
          "type": "uint256"
        },
        {
          "indexed": true,
          "internalType": "uint256",
          "name": "templateId",
          "type": "uint256"
        },
        {
          "indexed": true,
          "internalType": "uint256",
          "name": "referenceId",
          "type": "uint256"
        },
        {
          "indexed": false,
          "internalType": "uint256",
          "name": "ticketPrice",
          "type": "uint256"
        },
        {
          "indexed": false,
          "internalType": "uint256",
          "name": "maxTickets",
          "type": "uint256"
        },
        {
          "indexed": false,
          "internalType": "uint256",
          "name": "minTickets",
          "type": "uint256"
        },
        {
          "indexed": false,
          "internalType": "uint256",
          "name": "expiresAt",
          "type": "uint256"
        }
      ],
      "name": "RaffleCreated",
      "type": "event"
    },
    {
      "anonymous": false,
      "inputs": [
        {
          "indexed": true,
          "internalType": "uint256",
          "name": "raffleId",
          "type": "uint256"
        },
        {
          "indexed": true,
          "internalType": "uint256",
          "name": "vrfRequestId",
          "type": "uint256"
        }
      ],
      "name": "RandomnessRequested",
      "type": "event"
    },
    {
      "anonymous": false,
      "inputs": [
        {
          "indexed": true,
          "internalType": "uint256",
          "name": "raffleId",
          "type": "uint256"
        },
        {
          "indexed": true,
          "internalType": "uint256",
          "name": "newVrfRequestId",
          "type": "uint256"
        }
      ],
      "name": "RandomnessRetried",
      "type": "event"
    },
    {
      "anonymous": false,
      "inputs": [
        {
          "indexed": true,
          "internalType": "uint256",
          "name": "raffleId",
          "type": "uint256"
        },
        {
          "indexed": true,
          "internalType": "uint256",
          "name": "participantsRefunded",
          "type": "uint256"
        },
        {
          "indexed": true,
          "internalType": "uint256",
          "name": "totalRefunded",
          "type": "uint256"
        }
      ],
      "name": "RefundBatchCompleted",
      "type": "event"
    },
    {
      "anonymous": false,
      "inputs": [
        {
          "indexed": true,
          "internalType": "uint256",
          "name": "raffleId",
          "type": "uint256"
        },
        {
          "indexed": true,
          "internalType": "address",
          "name": "user",
          "type": "address"
        },
        {
          "indexed": true,
          "internalType": "uint256",
          "name": "amount",
          "type": "uint256"
        }
      ],
      "name": "RefundIssued",
      "type": "event"
    },
    {
      "anonymous": false,
      "inputs": [
        {
          "indexed": true,
          "internalType": "uint256",
          "name": "raffleId",
          "type": "uint256"
        },
        {
          "indexed": true,
          "internalType": "address",
          "name": "participant",
          "type": "address"
        },
        {
          "indexed": true,
          "internalType": "uint256",
          "name": "ticketNumber",
          "type": "uint256"
        }
      ],
      "name": "TicketBought",
      "type": "event"
    },
    {
      "anonymous": false,
      "inputs": [
        {
          "indexed": false,
          "internalType": "address",
          "name": "account",
          "type": "address"
        }
      ],
      "name": "Unpaused",
      "type": "event"
    },
    {
      "inputs": [],
      "name": "BASIS_POINTS",
      "outputs": [
        {
          "internalType": "uint256",
          "name": "",
          "type": "uint256"
        }
      ],
      "stateMutability": "view",
      "type": "function"
    },
    {
      "inputs": [],
      "name": "FIXED_FEE",
      "outputs": [
        {
          "internalType": "uint256",
          "name": "",
          "type": "uint256"
        }
      ],
      "stateMutability": "view",
      "type": "function"
    },
    {
      "inputs": [],
      "name": "PERCENTAGE_FEE",
      "outputs": [
        {
          "internalType": "uint256",
          "name": "",
          "type": "uint256"
        }
      ],
      "stateMutability": "view",
      "type": "function"
    },
    {
      "inputs": [
        {
          "internalType": "uint256[]",
          "name": "raffleIds",
          "type": "uint256[]"
        }
      ],
      "name": "archiveRaffles",
      "outputs": [],
      "stateMutability": "nonpayable",
      "type": "function"
    },
    {
      "inputs": [
        {
          "internalType": "uint256",
          "name": "raffleId",
          "type": "uint256"
        }
      ],
      "name": "buyTicket",
      "outputs": [],
      "stateMutability": "nonpayable",
      "type": "function"
    },
    {
      "inputs": [
        {
          "internalType": "uint256",
          "name": "raffleId",
          "type": "uint256"
        }
      ],
      "name": "cancelRaffle",
      "outputs": [],
      "stateMutability": "nonpayable",
      "type": "function"
    },
    {
      "inputs": [
        {
          "internalType": "uint256",
          "name": "raffleId",
          "type": "uint256"
        },
        {
          "internalType": "uint256",
          "name": "ticketNumber",
          "type": "uint256"
        }
      ],
      "name": "claimRefund",
      "outputs": [],
      "stateMutability": "nonpayable",
      "type": "function"
    },
    {
      "inputs": [
        {
          "internalType": "uint256",
          "name": "templateId",
          "type": "uint256"
        },
        {
          "internalType": "uint256",
          "name": "referenceId",
          "type": "uint256"
        },
        {
          "internalType": "uint256",
          "name": "ticketPrice",
          "type": "uint256"
        },
        {
          "internalType": "uint256",
          "name": "maxTickets",
          "type": "uint256"
        },
        {
          "internalType": "uint256",
          "name": "minTickets",
          "type": "uint256"
        },
        {
          "internalType": "uint256",
          "name": "durationSeconds",
          "type": "uint256"
        }
      ],
      "name": "createRaffle",
      "outputs": [
        {
          "internalType": "uint256",
          "name": "contractRaffleId",
          "type": "uint256"
        }
      ],
      "stateMutability": "nonpayable",
      "type": "function"
    },
    {
      "inputs": [],
      "name": "emergencyPause",
      "outputs": [],
      "stateMutability": "nonpayable",
      "type": "function"
    },
    {
      "inputs": [],
      "name": "emergencyUnpause",
      "outputs": [],
      "stateMutability": "nonpayable",
      "type": "function"
    },
    {
      "inputs": [
        {
          "internalType": "uint256",
          "name": "raffleId",
          "type": "uint256"
        }
      ],
      "name": "executeRaffle",
      "outputs": [],
      "stateMutability": "nonpayable",
      "type": "function"
    },
    {
      "inputs": [
        {
          "internalType": "uint256",
          "name": "raffleId",
          "type": "uint256"
        }
      ],
      "name": "executeRefundBatch",
      "outputs": [],
      "stateMutability": "nonpayable",
      "type": "function"
    },
    {
      "inputs": [
        {
          "internalType": "uint256",
          "name": "raffleId",
          "type": "uint256"
        }
      ],
      "name": "getRaffle",
      "outputs": [
        {
          "internalType": "uint256",
          "name": "id",
          "type": "uint256"
        },
        {
          "internalType": "uint256",
          "name": "ticketPrice",
          "type": "uint256"
        },
        {
          "internalType": "uint256",
          "name": "maxTickets",
          "type": "uint256"
        },
        {
          "internalType": "uint256",
          "name": "minTickets",
          "type": "uint256"
        },
        {
          "internalType": "uint256",
          "name": "currentTickets",
          "type": "uint256"
        },
        {
          "internalType": "uint256",
          "name": "expiresAt",
          "type": "uint256"
        },
        {
          "internalType": "enum RifasPlatform.RaffleStatus",
          "name": "status",
          "type": "uint8"
        }
      ],
      "stateMutability": "view",
      "type": "function"
    },
    {
      "inputs": [
        {
          "internalType": "uint256",
          "name": "raffleId",
          "type": "uint256"
        }
      ],
      "name": "getRaffleVRFRequestId",
      "outputs": [
        {
          "internalType": "uint256",
          "name": "vrfRequestId",
          "type": "uint256"
        }
      ],
      "stateMutability": "view",
      "type": "function"
    },
    {
      "inputs": [],
      "name": "globalReservedUserFunds",
      "outputs": [
        {
          "internalType": "uint256",
          "name": "",
          "type": "uint256"
        }
      ],
      "stateMutability": "view",
      "type": "function"
    },
    {
      "inputs": [
        {
          "internalType": "uint256",
          "name": "raffleId",
          "type": "uint256"
        },
        {
          "internalType": "address",
          "name": "user",
          "type": "address"
        }
      ],
      "name": "hasTicketInRaffle",
      "outputs": [
        {
          "internalType": "bool",
          "name": "hasTicket",
          "type": "bool"
        }
      ],
      "stateMutability": "view",
      "type": "function"
    },
    {
      "inputs": [],
      "name": "nextRaffleId",
      "outputs": [
        {
          "internalType": "uint256",
          "name": "",
          "type": "uint256"
        }
      ],
      "stateMutability": "view",
      "type": "function"
    },
    {
      "inputs": [],
      "name": "owner",
      "outputs": [
        {
          "internalType": "address",
          "name": "",
          "type": "address"
        }
      ],
      "stateMutability": "view",
      "type": "function"
    },
    {
      "inputs": [],
      "name": "pause",
      "outputs": [],
      "stateMutability": "nonpayable",
      "type": "function"
    },
    {
      "inputs": [],
      "name": "paused",
      "outputs": [
        {
          "internalType": "bool",
          "name": "",
          "type": "bool"
        }
      ],
      "stateMutability": "view",
      "type": "function"
    },
    {
      "inputs": [
        {
          "internalType": "uint256",
          "name": "",
          "type": "uint256"
        }
      ],
      "name": "raffles",
      "outputs": [
        {
          "internalType": "uint256",
          "name": "id",
          "type": "uint256"
        },
        {
          "internalType": "uint256",
          "name": "ticketPrice",
          "type": "uint256"
        },
        {
          "internalType": "uint256",
          "name": "maxTickets",
          "type": "uint256"
        },
        {
          "internalType": "uint256",
          "name": "minTickets",
          "type": "uint256"
        },
        {
          "internalType": "uint256",
          "name": "currentTickets",
          "type": "uint256"
        },
        {
          "internalType": "uint256",
          "name": "expiresAt",
          "type": "uint256"
        },
        {
          "internalType": "enum RifasPlatform.RaffleStatus",
          "name": "status",
          "type": "uint8"
        },
        {
          "internalType": "uint256",
          "name": "vrfRequestId",
          "type": "uint256"
        },
        {
          "internalType": "uint256",
          "name": "templateId",
          "type": "uint256"
        },
        {
          "internalType": "uint256",
          "name": "refundsCompleted",
          "type": "uint256"
        }
      ],
      "stateMutability": "view",
      "type": "function"
    },
    {
      "inputs": [
        {
          "internalType": "uint256",
          "name": "requestId",
          "type": "uint256"
        },
        {
          "internalType": "uint256[]",
          "name": "randomWords",
          "type": "uint256[]"
        }
      ],
      "name": "rawFulfillRandomWords",
      "outputs": [],
      "stateMutability": "nonpayable",
      "type": "function"
    },
    {
      "inputs": [],
      "name": "renounceOwnership",
      "outputs": [],
      "stateMutability": "nonpayable",
      "type": "function"
    },
    {
      "inputs": [
        {
          "internalType": "uint256",
          "name": "raffleId",
          "type": "uint256"
        }
      ],
      "name": "retryRandomness",
      "outputs": [],
      "stateMutability": "nonpayable",
      "type": "function"
    },
    {
      "inputs": [
        {
          "internalType": "uint256",
          "name": "startId",
          "type": "uint256"
        },
        {
          "internalType": "uint256",
          "name": "endId",
          "type": "uint256"
        }
      ],
      "name": "scanRaffles",
      "outputs": [
        {
          "internalType": "uint256[]",
          "name": "ids",
          "type": "uint256[]"
        },
        {
          "internalType": "enum RifasPlatform.RaffleStatus[]",
          "name": "statuses",
          "type": "uint8[]"
        }
      ],
      "stateMutability": "view",
      "type": "function"
    },
    {
      "inputs": [],
      "name": "totalPlatformFees",
      "outputs": [
        {
          "internalType": "uint256",
          "name": "",
          "type": "uint256"
        }
      ],
      "stateMutability": "view",
      "type": "function"
    },
    {
      "inputs": [
        {
          "internalType": "address",
          "name": "newOwner",
          "type": "address"
        }
      ],
      "name": "transferOwnership",
      "outputs": [],
      "stateMutability": "nonpayable",
      "type": "function"
    },
    {
      "inputs": [],
      "name": "unpause",
      "outputs": [],
      "stateMutability": "nonpayable",
      "type": "function"
    },
    {
      "inputs": [],
      "name": "usdtToken",
      "outputs": [
        {
          "internalType": "contract IERC20",
          "name": "",
          "type": "address"
        }
      ],
      "stateMutability": "view",
      "type": "function"
    },
    {
      "inputs": [
        {
          "internalType": "uint256",
          "name": "",
          "type": "uint256"
        }
      ],
      "name": "vrfRequestToRaffleId",
      "outputs": [
        {
          "internalType": "uint256",
          "name": "",
          "type": "uint256"
        }
      ],
      "stateMutability": "view",
      "type": "function"
    },
    {
      "inputs": [],
      "name": "withdrawPlatformFees",
      "outputs": [],
      "stateMutability": "nonpayable",
      "type": "function"
    }
  ],
  "bytecode": "0x6101006040526001600355348015610015575f5ffd5b50604051612bec380380612bec833981016040819052610034916101c8565b82338061005b57604051631e4fbdf760e01b81525f60048201526024015b60405180910390fd5b6100648161015e565b50600180556001600160a01b0390811660805284166100c55760405162461bcd60e51b815260206004820152601460248201527f496e76616c6964205553445420616464726573730000000000000000000000006044820152606401610052565b6001600160a01b03831661011b5760405162461bcd60e51b815260206004820152601760248201527f496e76616c69642056524620636f6f7264696e61746f720000000000000000006044820152606401610052565b6001600160a01b0393841660a05260028054610100600160a81b0319166101009490951693909302939093179091556001600160401b031660c05260e05261021e565b5f80546001600160a01b038381166001600160a01b0319831681178455604051919092169283917f8be0079c531659141344cd1fd0a4f28419497f9722a3daafe3b4186f6b6457e09190a35050565b80516001600160a01b03811681146101c3575f5ffd5b919050565b5f5f5f5f608085870312156101db575f5ffd5b6101e4856101ad565b93506101f2602086016101ad565b60408601519093506001600160401b038116811461020e575f5ffd5b6060959095015193969295505050565b60805160a05160c05160e05161297161027b5f395f61200701525f61203601525f818161039401528181610dfd0152818161114c015281816115690152818161184901526122cb01525f818161049501526104d701526129715ff3fe608060405234801561000f575f5ffd5b50600436106101dc575f3560e01c80638456cb5911610109578063d0b7830b1161009e578063e4be261d1161006e578063e4be261d1461041d578063e4dafec914610430578063ee59777e14610456578063f2fde38b14610477575f5ffd5b8063d0b7830b146103fb578063d3631fa514610403578063d665b67d1461040c578063e1f1c4a714610414575f5ffd5b8063a98ad46c116100d9578063a98ad46c1461038f578063af0e59bc146103b6578063b678b370146103c9578063bc41082e146103e8575f5ffd5b80638456cb59146103475780638458e3e41461034f5780638527d58f146103585780638da5cb5b1461036b575f5ffd5b806351858e271161017f57806360314b1f1161014f57806360314b1f1461031057806366ea762c1461031957806367dd74ca1461032c578063715018a61461033f575f5ffd5b806351858e27146102705780635c975abb146102785780635d4bc0ce146102835780635fba3171146102fd575f5ffd5b80632463bef6116101ba5780632463bef61461023a578063350c6c441461024d5780633f4ba83a146102605780634a4e3bd514610268575f5ffd5b80631fe543e3146101e05780631ff6da21146101f557806323d1b06c1461021d575b5f5ffd5b6101f36101ee366004612492565b61048a565b005b610208610203366004612581565b610517565b60405190151581526020015b60405180910390f35b61022c670de0b6b3a764000081565b604051908152602001610214565b61022c6102483660046125ab565b6105a1565b61022c61025b3660046125c2565b610611565b6101f36108b1565b6101f36108c3565b6101f3610901565b60025460ff16610208565b6102e76102913660046125ab565b600660208190525f9182526040909120805460018201546002830154600384015460048501546005860154968601546009870154600a880154600b9098015496989597949693959294929360ff9092169290918a565b6040516102149a99989796959493929190612635565b6101f361030b3660046125ab565b61093f565b61022c60055481565b6101f36103273660046125ab565b610a2f565b6101f361033a3660046125ab565b610c1d565b6101f3610eda565b6101f3610eeb565b61022c60035481565b6101f361036636600461268e565b610efb565b5f546001600160a01b03165b6040516001600160a01b039091168152602001610214565b6103777f000000000000000000000000000000000000000000000000000000000000000081565b6101f36103c43660046125ab565b6111b0565b61022c6103d73660046125ab565b60076020525f908152604090205481565b6101f36103f63660046126ae565b6112f6565b6101f36114f1565b61022c60045481565b61022c60c881565b61022c61271081565b6101f361042b3660046125ab565b6115e1565b61044361043e3660046125ab565b6119b1565b604051610214979695949392919061271f565b61046961046436600461268e565b611a59565b604051610214929190612760565b6101f36104853660046127e8565b611cc4565b336001600160a01b037f000000000000000000000000000000000000000000000000000000000000000016146105095760405163073e64fd60e21b81523360048201526001600160a01b037f00000000000000000000000000000000000000000000000000000000000000001660248201526044015b60405180910390fd5b6105138282611d01565b5050565b5f825f81118015610529575060035481105b6105455760405162461bcd60e51b815260040161050090612801565b5f8181526006602052604081205490036105715760405162461bcd60e51b815260040161050090612830565b50505f9182526006602090815260408084206001600160a01b039390931684526008909201905290205460ff1690565b5f815f811180156105b3575060035481105b6105cf5760405162461bcd60e51b815260040161050090612801565b5f8181526006602052604081205490036105fb5760405162461bcd60e51b815260040161050090612830565b50505f9081526006602052604090206009015490565b5f61061a611df7565b610622611e23565b61062a611e47565b5f85116106795760405162461bcd60e51b815260206004820152601d60248201527f5469636b6574207072696365206d75737420626520706f7369746976650000006044820152606401610500565b5f84116106c85760405162461bcd60e51b815260206004820152601c60248201527f4d6178207469636b657473206d75737420626520706f736974697665000000006044820152606401610500565b5f831180156106d75750838311155b6107195760405162461bcd60e51b8152602060048201526013602482015272496e76616c6964206d696e207469636b65747360681b6044820152606401610500565b5f82116107685760405162461bcd60e51b815260206004820152601960248201527f4475726174696f6e206d75737420626520706f736974697665000000000000006044820152606401610500565b5f610773868561287b565b90505f61077f82611e71565b90508082116107e55760405162461bcd60e51b815260206004820152602c60248201527f4d696e20706f6f6c20696e73756666696369656e7420746f20636f766572207060448201526b6c6174666f726d206665657360a01b6064820152608401610500565b60038054905f6107f483612898565b909155505f818152600660205260408120828155600181018a90556002810189905560038101889055600481019190915590935061083285426128b0565b6005820181905560068201805460ff19169055600a82018b9055604080518a8152602081018a9052908101889052606081019190915289908b9086907f8fc4432049bb3dc4624db5e2842ce62f3644222ed3d957d67f940b56b85c9c8a9060800160405180910390a45050506108a760018055565b9695505050505050565b6108b9611df7565b6108c1611ea6565b565b6108cb611df7565b6108d3611ea6565b604051429033907fdacac23d353cc4fe05be85350ed1e8227ed9edf2323b7cb5aad3174e6a9ce1d6905f90a3565b610909611df7565b610911611ef8565b604051429033907f2e31b3b12b9bb0e82c32f27df5f234fabc95a374f54fd287a7132878d5dc9fc3905f90a3565b610947611df7565b805f81118015610958575060035481105b6109745760405162461bcd60e51b815260040161050090612801565b5f8181526006602052604081205490036109a05760405162461bcd60e51b815260040161050090612830565b6109a8611e47565b5f82815260066020526040812090600682015460ff1660038111156109cf576109cf612601565b14610a1c5760405162461bcd60e51b815260206004820152601f60248201527f43616e206f6e6c792063616e63656c2066696c6c696e6720726166666c6573006044820152606401610500565b610a2583611f35565b5061051360018055565b610a37611df7565b805f81118015610a48575060035481105b610a645760405162461bcd60e51b815260040161050090612801565b5f818152600660205260408120549003610a905760405162461bcd60e51b815260040161050090612830565b610a98611e47565b610aa0611e23565b5f82815260066020526040812090600682015460ff166003811115610ac757610ac7612601565b14610b145760405162461bcd60e51b815260206004820152601c60248201527f526166666c65206e6f7420696e2066696c6c696e6720737461747573000000006044820152606401610500565b806002015481600401541480610b41575080600501544210158015610b4157508060030154816004015410155b610b8d5760405162461bcd60e51b815260206004820152601e60248201527f526166666c65206e6f7420726561647920666f7220657865637574696f6e00006044820152606401610500565b5f81600101548260040154610ba2919061287b565b90505f610bae82611e71565b9050818110610bf85760068301805460ff1916600317905560405185907f7fa78bab5d5570f162c69234a3f4d1b9294fd5bca72219cb16c1fe38839ccb8a905f90a2505050610c14565b60068301805460ff19166001179055610c1085611f80565b5050505b61051360018055565b805f81118015610c2e575060035481105b610c4a5760405162461bcd60e51b815260040161050090612801565b5f818152600660205260408120549003610c765760405162461bcd60e51b815260040161050090612830565b815f5f828152600660208190526040909120015460ff166003811115610c9e57610c9e612601565b14610ceb5760405162461bcd60e51b815260206004820152601c60248201527f526166666c65206e6f7420616363657074696e67207469636b657473000000006044820152606401610500565b610cf3611e47565b610cfb611e23565b5f83815260066020526040902060058101544210610d4c5760405162461bcd60e51b815260206004820152600e60248201526d149859999b1948195e1c1a5c995960921b6044820152606401610500565b335f90815260088201602052604090205460ff1615610da25760405162461bcd60e51b8152602060048201526012602482015271105b1c9958591e481a185cc81d1a58dad95d60721b6044820152606401610500565b8060020154816004015410610dea5760405162461bcd60e51b815260206004820152600e60248201526d149859999b19481a5cc8199d5b1b60921b6044820152606401610500565b6001810154610e27906001600160a01b037f0000000000000000000000000000000000000000000000000000000000000000169033903090612114565b600781018054600181810183555f928352602080842090920180546001600160a01b0319163390811790915583526008840190915260408220805460ff1916909117905560048201805491610e7b83612898565b9190505550806001015460055f828254610e9591906128b0565b90915550506004810154604051339086907f913d09b391f64143215d9312fd7e8ecaa06001c646789c9d2109dc515bc34fad905f90a450610ed560018055565b505050565b610ee2611df7565b6108c15f612181565b610ef3611df7565b6108c1611ef8565b815f81118015610f0c575060035481105b610f285760405162461bcd60e51b815260040161050090612801565b5f818152600660205260408120549003610f545760405162461bcd60e51b815260040161050090612830565b610f5c611e47565b5f8381526006602052604090206003600682015460ff166003811115610f8457610f84612601565b14610fc85760405162461bcd60e51b8152602060048201526014602482015273149859999b19481b9bdd0818d85b98d95b1b195960621b6044820152606401610500565b5f83118015610fdb575080600401548311155b61101f5760405162461bcd60e51b815260206004820152601560248201527424b73b30b634b2103a34b1b5b2ba10373ab6b132b960591b6044820152606401610500565b5f61102b6001856128c3565b9050336001600160a01b031682600701828154811061104c5761104c6128d6565b5f918252602090912001546001600160a01b03161461109f5760405162461bcd60e51b815260206004820152600f60248201526e139bdd081e5bdd5c881d1a58dad95d608a1b6044820152606401610500565b335f90815260088301602052604090205460ff166110f25760405162461bcd60e51b815260206004820152601060248201526f105b1c9958591e481c99599d5b99195960821b6044820152606401610500565b335f9081526008830160205260408120805460ff19169055600b830180549161111a83612898565b9190505550816001015460055f82825461113491906128c3565b90915550506001820154611174906001600160a01b037f0000000000000000000000000000000000000000000000000000000000000000169033906121d0565b6001820154604051339087907f7a482fdeb6bc9a1376f597068a214a7a39472bb2eff1b8cad21ba04f49ddca1b905f90a45050610ed560018055565b6111b8611df7565b805f811180156111c9575060035481105b6111e55760405162461bcd60e51b815260040161050090612801565b5f8181526006602052604081205490036112115760405162461bcd60e51b815260040161050090612830565b611219611e47565b611221611e23565b5f8281526006602052604090206001600682015460ff16600381111561124957611249612601565b146112965760405162461bcd60e51b815260206004820152601c60248201527f526166666c65206e6f7420696e2064726177696e6720737461747573000000006044820152606401610500565b6009810154156112b45760098101545f908152600760205260408120555b6112bd83611f80565b600981015460405184907fab13c26ee0c8434df83350b0f67d7ee67ecd0bc6b13440853b3150614579f795905f90a35061051360018055565b6112fe611df7565b611306611e47565b5f5b81811015610a25575f838383818110611323576113236128d6565b602090810292909201355f8181526006909352604090922091925060029050600682015460ff16600381111561135b5761135b612601565b148061137f57506003600682015460ff16600381111561137d5761137d612601565b145b6113e05760405162461bcd60e51b815260206004820152602c60248201527f43616e206f6e6c79206172636869766520636f6d706c657465642f63616e636560448201526b6c6c656420726166666c657360a01b6064820152608401610500565b6003600682015460ff1660038111156113fb576113fb612601565b0361146557806004015481600b0154146114655760405162461bcd60e51b815260206004820152602560248201527f43616e6e6f7420617263686976653a2070656e64696e6720726566756e647320604482015264195e1a5cdd60da1b6064820152608401610500565b6009810154156114835760098101545f908152600760205260408120555b5f82815260066020819052604082208281556001810183905560028101839055600381018390556004810183905560058101839055908101805460ff19169055906114d16007830182612450565b505f60098201819055600a8201819055600b909101555050600101611308565b6114f9611df7565b611501611e47565b600454806115475760405162461bcd60e51b81526020600482015260136024820152724e6f206665657320746f20776974686472617760681b6044820152606401610500565b5f60045561159061155f5f546001600160a01b031690565b6001600160a01b037f00000000000000000000000000000000000000000000000000000000000000001690836121d0565b806115a25f546001600160a01b031690565b6001600160a01b03167ffc7ad544ff6a06d6499925723d25b6fe70457a42939995b1d3d6f560fe33633360405160405180910390a3506108c160018055565b6115e9611df7565b805f811180156115fa575060035481105b6116165760405162461bcd60e51b815260040161050090612801565b5f8181526006602052604081205490036116425760405162461bcd60e51b815260040161050090612830565b61164a611e47565b5f82815260066020526040812090600682015460ff16600381111561167157611671612601565b146116be5760405162461bcd60e51b815260206004820152601c60248201527f526166666c65206e6f7420696e2066696c6c696e6720737461747573000000006044820152606401610500565b80600501544210156117075760405162461bcd60e51b8152602060048201526012602482015271149859999b19481b9bdd08195e1c1a5c995960721b6044820152606401610500565b806003015481600401541061175e5760405162461bcd60e51b815260206004820152601a60248201527f4d65657473206d696e696d756d207061727469636970616e74730000000000006044820152606401610500565b6064816004015411156117c55760405162461bcd60e51b815260206004820152602960248201527f546f6f206d616e79207469636b6574732c2075736520636c61696d526566756e60448201526819081a5b9cdd19585960ba1b6064820152608401610500565b5f80805b83600401548110156118d3575f8460070182815481106117eb576117eb6128d6565b5f9182526020808320909101546001600160a01b03168083526008880190915260409091205490915060ff16156118ca576001600160a01b038082165f9081526008870160205260409020805460ff191690556001860154611871917f0000000000000000000000000000000000000000000000000000000000000000169083906121d0565b600185015461188090856128b0565b935061188b83612898565b92508460010154816001600160a01b0316887f7a482fdeb6bc9a1376f597068a214a7a39472bb2eff1b8cad21ba04f49ddca1b60405160405180910390a45b506001016117c9565b508160055f8282546118e591906128c3565b90915550506040518290829087907f4ec7e56c3033a6bd83b9349e021aec6978d1fb9d8aa84ee11e0cf7a996fc0407905f90a460405185907f7fa78bab5d5570f162c69234a3f4d1b9294fd5bca72219cb16c1fe38839ccb8a905f90a25f85815260066020819052604082208281556001810183905560028101839055600381018390556004810183905560058101839055908101805460ff19169055906119906007830182612450565b505f60098201819055600a8201819055600b90910155505060018055505050565b5f5f5f5f5f5f5f875f811180156119c9575060035481105b6119e55760405162461bcd60e51b815260040161050090612801565b5f818152600660205260408120549003611a115760405162461bcd60e51b815260040161050090612830565b5050505f95865250506006602081905260409094208054600182015460028301546003840154600485015460058601549590990154939992989197509550935060ff90911690565b606080611a64611df7565b828410611aa35760405162461bcd60e51b815260206004820152600d60248201526c496e76616c69642072616e676560981b6044820152606401610500565b600354831115611af55760405162461bcd60e51b815260206004820152601860248201527f456e642065786365656473206e657874526166666c65496400000000000000006044820152606401610500565b6103e8611b0285856128c3565b1115611b505760405162461bcd60e51b815260206004820152601a60248201527f52616e676520746f6f206c6172676520286d61782031303030290000000000006044820152606401610500565b5f845b84811015611b82575f8181526006602052604090205415611b7a57611b7782612898565b91505b600101611b53565b508067ffffffffffffffff811115611b9c57611b9c61247e565b604051908082528060200260200182016040528015611bc5578160200160208202803683370190505b5092508067ffffffffffffffff811115611be157611be161247e565b604051908082528060200260200182016040528015611c0a578160200160208202803683370190505b5091505f855b85811015611cba575f8181526006602052604090205415611cb25780858381518110611c3e57611c3e6128d6565b6020908102919091018101919091525f828152600691829052604090200154845160ff90911690859084908110611c7757611c776128d6565b60200260200101906003811115611c9057611c90612601565b90816003811115611ca357611ca3612601565b905250611caf82612898565b91505b600101611c10565b5050509250929050565b611ccc611df7565b6001600160a01b038116611cf557604051631e4fbdf760e01b81525f6004820152602401610500565b611cfe81612181565b50565b5f8281526007602052604081205490819003611d545760405162461bcd60e51b8152602060048201526012602482015271125b9d985b1a59081c995c5d595cdd08125160721b6044820152606401610500565b5f8181526006602052604090206001600682015460ff166003811115611d7c57611d7c612601565b14611dc95760405162461bcd60e51b815260206004820152601c60248201527f526166666c65206e6f7420696e2064726177696e6720737461747573000000006044820152606401610500565b5f835f81518110611ddc57611ddc6128d6565b60200260200101519050611df08382612201565b5050505050565b5f546001600160a01b031633146108c15760405163118cdaa760e01b8152336004820152602401610500565b60025460ff16156108c15760405163d93c066560e01b815260040160405180910390fd5b600260015403611e6a57604051633ee5aeb560e01b815260040160405180910390fd5b6002600155565b5f80612710611e8160c88561287b565b611e8b91906128fe565b9050611e9f81670de0b6b3a76400006128b0565b9392505050565b611eae6123c1565b6002805460ff191690557f5db9ee0a495bf2e6ff9c91a7834c1ba4fdd244a5e8aa4e537bd38aeae4b073aa335b6040516001600160a01b03909116815260200160405180910390a1565b611f00611e23565b6002805460ff191660011790557f62e78cea01bee320cd4e420270b5ea74000d11b0c9f74754ebdbfc544b05a258611edb3390565b5f818152600660208190526040808320918201805460ff1916600317905551909183917f7fa78bab5d5570f162c69234a3f4d1b9294fd5bca72219cb16c1fe38839ccb8a9190a25050565b5f8181526006602052604090206001600682015460ff166003811115611fa857611fa8612601565b14611ff55760405162461bcd60e51b815260206004820181905260248201527f526166666c65206d75737420626520696e2044524157494e47207374617475736044820152606401610500565b6002546040516305d3b1d360e41b81527f0000000000000000000000000000000000000000000000000000000000000000600482015267ffffffffffffffff7f0000000000000000000000000000000000000000000000000000000000000000166024820152600360448201526203d0906064820152600160848201525f9161010090046001600160a01b031690635d3b1d309060a4016020604051808303815f875af11580156120a8573d5f5f3e3d5ffd5b505050506040513d601f19601f820116820180604052508101906120cc9190612911565b600983018190555f8181526007602052604080822086905551919250829185917f3d94fecedaa4f90b8bd459797adb95f5bb11426025c5541390d9ccc1ad1b60a191a3505050565b6040516001600160a01b03848116602483015283811660448301526064820183905261217b9186918216906323b872dd906084015b604051602081830303815290604052915060e01b6020820180516001600160e01b0383818316178352505050506123e4565b50505050565b5f80546001600160a01b038381166001600160a01b0319831681178455604051919092169283917f8be0079c531659141344cd1fd0a4f28419497f9722a3daafe3b4186f6b6457e09190a35050565b6040516001600160a01b03838116602483015260448201839052610ed591859182169063a9059cbb90606401612149565b5f82815260066020526040812060048101546001820154919291612225919061287b565b90505f61223182611e71565b90505f61223e82846128c3565b600a8501546009860154600487015492935090915f9061225e9089612928565b90505f876007018281548110612276576122766128d6565b5f918252602082200154600480546001600160a01b039092169350889290916122a09084906128b0565b925050819055508660055f8282546122b891906128c3565b909155506122f290506001600160a01b037f00000000000000000000000000000000000000000000000000000000000000001682876121d0565b60408051868152602081018890529081018a90526001600160a01b0382169085908c907fd3a62d4818ae90e3fa377a41a384af90b8a070e4b4ca5bf8ce3382ad664085eb9060600160405180910390a45f8381526007602081815260408084208490558d845260069182905283208381556001810184905560028101849055600381018490556004810184905560058101849055908101805460ff19169055919061239f90830182612450565b505f60098201819055600a8201819055600b9091015550505050505050505050565b60025460ff166108c157604051638dfc202b60e01b815260040160405180910390fd5b5f5f60205f8451602086015f885af180612403576040513d5f823e3d81fd5b50505f513d9150811561241a578060011415612427565b6001600160a01b0384163b155b1561217b57604051635274afe760e01b81526001600160a01b0385166004820152602401610500565b5080545f8255905f5260205f2090810190611cfe91905b8082111561247a575f8155600101612467565b5090565b634e487b7160e01b5f52604160045260245ffd5b5f5f604083850312156124a3575f5ffd5b82359150602083013567ffffffffffffffff8111156124c0575f5ffd5b8301601f810185136124d0575f5ffd5b803567ffffffffffffffff8111156124ea576124ea61247e565b8060051b604051601f19603f830116810181811067ffffffffffffffff821117156125175761251761247e565b604052918252602081840181019290810188841115612534575f5ffd5b6020850194505b838510156125575784358082526020958601959093500161253b565b50809450505050509250929050565b80356001600160a01b038116811461257c575f5ffd5b919050565b5f5f60408385031215612592575f5ffd5b823591506125a260208401612566565b90509250929050565b5f602082840312156125bb575f5ffd5b5035919050565b5f5f5f5f5f5f60c087890312156125d7575f5ffd5b505084359660208601359650604086013595606081013595506080810135945060a0013592509050565b634e487b7160e01b5f52602160045260245ffd5b6004811061263157634e487b7160e01b5f52602160045260245ffd5b9052565b5f610140820190508b82528a60208301528960408301528860608301528760808301528660a083015261266b60c0830187612615565b8460e083015283610100830152826101208301529b9a5050505050505050505050565b5f5f6040838503121561269f575f5ffd5b50508035926020909101359150565b5f5f602083850312156126bf575f5ffd5b823567ffffffffffffffff8111156126d5575f5ffd5b8301601f810185136126e5575f5ffd5b803567ffffffffffffffff8111156126fb575f5ffd5b8560208260051b840101111561270f575f5ffd5b6020919091019590945092505050565b5f60e0820190508882528760208301528660408301528560608301528460808301528360a083015261275460c0830184612615565b98975050505050505050565b604080825283519082018190525f9060208501906060840190835b8181101561279957835183526020938401939092019160010161277b565b5050838103602080860191909152855180835291810192508501905f5b818110156127dc576127c9848451612615565b60209384019392909201916001016127b6565b50919695505050505050565b5f602082840312156127f8575f5ffd5b611e9f82612566565b602080825260159082015274149859999b1948191bd95cc81b9bdd08195e1a5cdd605a1b604082015260600190565b60208082526018908201527f526166666c6520686173206265656e2061726368697665640000000000000000604082015260600190565b634e487b7160e01b5f52601160045260245ffd5b808202811582820484141761289257612892612867565b92915050565b5f600182016128a9576128a9612867565b5060010190565b8082018082111561289257612892612867565b8181038181111561289257612892612867565b634e487b7160e01b5f52603260045260245ffd5b634e487b7160e01b5f52601260045260245ffd5b5f8261290c5761290c6128ea565b500490565b5f60208284031215612921575f5ffd5b5051919050565b5f82612936576129366128ea565b50069056fea26469706673582212201739c8e10ad5d4a602f07bc7bab37dba9b5a6503269e1eafc132d3074e58074c64736f6c634300081c0033",
  "linkReferences": {},
  "deployedLinkReferences": {},
  "immutableReferences": {
    "10": [
      {
        "length": 32,
        "start": 1173
      },
      {
        "length": 32,
        "start": 1239
      }
    ],
    "1177": [
      {
        "length": 32,
        "start": 916
      },
      {
        "length": 32,
        "start": 3581
      },
      {
        "length": 32,
        "start": 4428
      },
      {
        "length": 32,
        "start": 5481
      },
      {
        "length": 32,
        "start": 6217
      },
      {
        "length": 32,
        "start": 8907
      }
    ],
    "1191": [
      {
        "length": 32,
        "start": 8246
      }
    ],
    "1193": [
      {
        "length": 32,
        "start": 8199
      }
    ]
  },
  "inputSourceName": "project/contracts/RifasPlatform.sol",
  "buildInfoId": "solc-0_8_28-a420182d9464f1784b3efce9a13c3fe5fdd08a66"
}